C51 COMPILER V9.60.0.0   MAIN                                                              02/02/2023 17:59:50 PAGE 1   


C51 COMPILER V9.60.0.0, COMPILATION OF MODULE MAIN
OBJECT MODULE PLACED IN .\obj\main.obj
COMPILER INVOKED BY: D:\Keil_v5\C51\BIN\C51.EXE user\main.c OPTIMIZE(8,SPEED) BROWSE INCDIR(.\user;.\app) DEBUG OBJECTEX
                    -TEND PRINT(.\obj\main.lst) TABS(2) OBJECT(.\obj\main.obj)

line level    source

   1          
   2          
   3          /******************************************************************************
   4            * @file  main.c 
   5            * @author  公烁
   6            * @version V1.6
   7            * @date  2023--7
   8            * @Conpany 
   9            * @project 艾灸
  10            
  11              1、按键1-4：  
  12                1:电机上升
  13                2:电机下降
  14                3: 一键启动
  15                4:|---一键关闭（运行时）
  16                  |---强制关闭（待机时）
  17              2、增加数码管显示实现
  18                1）设备启动显示温湿度
  19                2）散热结束后结束显示
  20                3）强制关闭后关闭显示
  21              3、串口改动：
  22                1）关闭串口响应解析
  23                2）串口1用于调试输出
  24                3）串口2将数据传输到EMXQ，更新微信小程序数据
  25              4、定时器改动：
  26                散热定时为2分钟
  27                点火定时为1分半钟
  28                减少使用次数为统计运行时长为60分钟，此时进入散热模式
  29              5.重要宏定义数据
  30                点火温度：190℃
  31                加热阈值：200℃
  32              6.增加灯光
  33                1)加热
  34                2)风扇、风机
  35                3)电机
  36                4)点火
  37                5)运行
  38                6)电源
  39                
  40              
  41            
  42            
  43            
  44            
  45          *******************************************************************************/
  46          
  47          /* Includes ------------------------------------------------------------------*/
  48          #include <main.h>
  49          
  50          /* Private define-------------------------------------------------------------*/
  51          
  52          /* Private variables----------------------------------------------------------*/
  53          uint8_t xdata dataUpdate_Buffer[20] =
  54          {
C51 COMPILER V9.60.0.0   MAIN                                                              02/02/2023 17:59:50 PAGE 2   

  55            0, 
  56          };
  57          
  58          uint8_t     StateFlag = 0;
  59          uint8_t     StandBy_Flag = 1;
  60          
  61          
  62          
  63          /* Public variables-----------------------------------------------------------*/
  64          
  65          /* Private function prototypes------------------------------------------------*/
  66          
  67          /*
  68            * @name   main
  69            * @brief  主函数
  70            * @param  None  
  71            * @retval None    
  72          */
  73          void main()
  74          {
  75   1      
  76   1      
  77   1        Hardware_Init.Sys_Init();           //系统初始化
  78   1      
  79   1      
  80   1        while (1)
  81   1        {
  82   2          if (System.ucSystem_Status == System_RUN)
  83   2          {
  84   3            LED5_RUN = ON;
  85   3            //TM1650_Set(0x48,0x01);
  86   3            System.Run();
  87   3          }
  88   2          else
  89   2          {
  90   3            LED5_RUN = OFF;
  91   3            System.StandBy();
  92   3          }
  93   2        }
  94   1      }
  95          
  96          
  97          // 1: 串口1 单独发
  98          // 2：串口2 单独发
  99          // 3：串口1与2 都发
 100          void DataUpdate(uint8_t flag)
 101          {
 102   1        uint8_t     Flag = flag;
 103   1      
 104   1        //地址码
 105   1        dataUpdate_Buffer[0] = Modbus.Head1;
 106   1        dataUpdate_Buffer[1] = Modbus.Head2;
 107   1      
 108   1        //功能码
 109   1        dataUpdate_Buffer[2] = 0x03;
 110   1      
 111   1        //数据长度
 112   1        dataUpdate_Buffer[3] = 15;
 113   1      
 114   1        //温度
 115   1        dataUpdate_Buffer[4] = (temperature_t.temperature>>8)&255;
 116   1        dataUpdate_Buffer[5] = (temperature_t.temperature)&255;
C51 COMPILER V9.60.0.0   MAIN                                                              02/02/2023 17:59:50 PAGE 3   

 117   1      
 118   1        //继电器
 119   1        dataUpdate_Buffer[6] = 0;
 120   1        dataUpdate_Buffer[7] = JDQ_Run.JDQ_1_FLAG;
 121   1        dataUpdate_Buffer[8] = JDQ_Run.JDQ_2_FLAG;
 122   1        dataUpdate_Buffer[9] = JDQ_Run.JDQ_3_FLAG;
 123   1        dataUpdate_Buffer[10] = JDQ_Run.JDQ_4_FLAG;
 124   1        dataUpdate_Buffer[11] = JDQ_Run.JDQ_5_FLAG;
 125   1        dataUpdate_Buffer[12] = JDQ_Run.JDQ_6_FLAG;
 126   1      
 127   1        dataUpdate_Buffer[13] = JDQ_Run.JDQ_8_FLAG;
 128   1        dataUpdate_Buffer[14] = JDQ_Run.JDQ_9_FLAG;
 129   1        dataUpdate_Buffer[15] = JDQ_Run.JDQ_10_FLAG;
 130   1        dataUpdate_Buffer[16] = JDQ_Run.JDQ_11_FLAG;
 131   1        dataUpdate_Buffer[17] = JDQ_Run.JDQ_11_FLAG;
 132   1        dataUpdate_Buffer[18] = JDQ_Run.JDQ_11_FLAG;
 133   1      
 134   1        //将更新的数据发送给
 135   1        switch (flag)
 136   1          {
 137   2          case 1:
 138   2            UART1.UART_SendArray(dataUpdate_Buffer, 19);
 139   2            break;
 140   2      
 141   2          case 2:
 142   2            UART2.UART_SendArray(dataUpdate_Buffer, 19);
 143   2            break;
 144   2      
 145   2          case 3:
 146   2            UART2.UART_SendArray(dataUpdate_Buffer, 19);
 147   2            Public.Delay_ms(50);
 148   2            UART1.UART_SendArray(dataUpdate_Buffer, 19);
 149   2            break;
 150   2      
 151   2          default:
 152   2            break;
 153   2      
 154   2        }
 155   1          Public.Memory_Clr(dataUpdate_Buffer,20);//清除数据
 156   1      
 157   1      
 158   1      }
 159          
 160          
 161          
 162          
 163          
 164          
 165          /********************************************************
 166            End Of File
 167          ********************************************************/


MODULE INFORMATION:   STATIC OVERLAYABLE
   CODE SIZE        =    234    ----
   CONSTANT SIZE    =   ----    ----
   XDATA SIZE       =     20    ----
   PDATA SIZE       =   ----    ----
   DATA SIZE        =      2       1
   IDATA SIZE       =   ----    ----
   BIT SIZE         =   ----    ----
END OF MODULE INFORMATION.

C51 COMPILER V9.60.0.0   MAIN                                                              02/02/2023 17:59:50 PAGE 4   


C51 COMPILATION COMPLETE.  0 WARNING(S),  0 ERROR(S)
