:10115700540096000000000000000000000000009E
:0D11670000000000000000011E00011F013B
:10228600AA76A977800BE548B4010BD284AA4AA99D
:102296004B12069A80F0C284AA4DA94E12069A8065
:0122A600E552
:02188E00AD07A4
:101890008D249000AAA3E0900096F09000ACA3E005
:1018A000900097F0A37403F0A3740FF0E557A3F032
:1018B000E558A3F0E4A3F078BFE6A3F008E6A3F0B0
:1018C00008E6A3F008E6A3F008E6A3F008E6A3F014
:1018D00078C6E6A3F008E6A3F008E6A3F008E6A3BE
:1018E000F0A3F0A3F0EF24FE60091460122402704C
:1018F0005380357B017A007996C00278AF80337BC4
:10190000017A007996C00278AF08E6FA08E6F58217
:101910008A83D0027D137C0012069E8568828567CB
:10192000837F327E0012069E7B017A007996C00288
:10193000788F08E6FA08E6F5828A83D0027D137C68
:101940000012069E7B017A007996856E82856D83F2
:071950007D147C0002069EDD
:0B1174000966FF22DAFF0003FF221AC9
:1022DA007DA57C06ED1D70011C144C70F7EF1F7074
:0622EA00011E144E70EA13
:0122F00022CB
:070003000000007F34DFFE66
:01000A0022D3
:06221A008B228A238924B7
:10222000E4FFFEC3EF9DEE9C5015AB22AA23A92428
:0F2230008F828E83E412059D0FBF00010E80E4A4
:01223F00227C
:0F117F000DBF0000000000000000000000000095
:0B118E00096FFF203FFF2302FF20C37A
:10203F007594C0E4F59375927E7591017596C07590
:10204F00953FF5B475B30C75C930F5CA75B2027505
:10205F00B101D2A6D2A7D287D286D2C7D292D293BB
:10206F00D294D295D296C281C297C283C282C284C1
:03207F00C28522F5
:0A230200D2A9D2AC43AF01D2AF2242
:1020C300AA70A97112069A8568828567837FD07E7C
:1020D3000712069EAA18A91912069AAA73A97412BE
:1020E300069A788908E6FA08E6F912069A78A908A2
:0B20F300E6FA08E6F912069AD28522F0
:1011990054006E0001020304050607080900000057
:1011A9000000000000000054008200000000000060
:1011B90000000000000000000000000000002020E6
:1011C9007F0300000001006E010082FF2082FF23DF
:1011D9000CFF1C62FF1EB9FF1DA100FF0021FF00CB
:0111E90022E3
:10208200759850438E40538EFE53890F787FE61425
:10209200602214600F14601424037018758B80750D
:1020A2008DFB8016758BE0758DFE800E758BD0755D
:1020B2008DFF8006758BC0758DFDC2ABD28ED29C12
:0120C20022FB
:0A230C007880E670FB76018F9922BD
:0A1C62008B228A2389248C258D260D
:101C6C00E4F527F528789908E6FA08E6F912069AB9
:101C7C00E4F527F528C3E5289526E5279525502872
:101C8C00AB22AA23A92485288285278312055EFF0F
:101C9C00788C08E6FA08E6F5828A8312069E0528F7
:101CAC00E52870D1052780CD7880E670FB856882A9
:101CBC008567837F01FE12069E789C08E6FA08E68B
:041CCC00F902069A79
:101EB9008B228A238924789908E6FA08E6F912061A
:101EC9009AAB22AA23A924120545601E0524E524FC
:101ED9007002052314F9120545FF788C08E6FA0803
:101EE900E6F5828A8312069E80D77880E670FB85A4
:101EF90068828567837F01FE12069E789C08E6FA50
:061F090008E6F902069A49
:0100210022BC
:0100220022BB
:10000E008F44788C08E6FA08E6F5828A8312069EFB
:03001E00AF4422CA
:03002300021FFBBE
:101FFB00C0E0C083C082C0D075D000C00030982034
:10200B00C2987882E6C3941474809480500EE606CE
:10201B002482F582E43400F583E599F0788176012A
:10202B00309906C29978807600D000D0D0D082D07B
:04203B0083D0E0323C
:101DA1007881E664017056900082E06035E4F50ABE
:101DB100F50B7882E6C3940674809480500BC3E5DA
:101DC1000B9414E50A940040E97B007A00797FC006
:101DD100029000AEA3E0FAA3E0F5828A83D002125A
:101DE100069E7B017A0079827882E6FD7C00856E11
:0E1DF10082856D8312069EE47882F618F62233
:1011EA0012080000000000000000000000000000DB
:0411FA0000FF22F1DF
:1022F100538E7F5389F0E4F58A758CDCC28DD28CC4
:0123010022B9
:03000B00021E5D75
:101E5D00C0E0C0D00509E50970020508C394C8E5C6
:101E6D000894004006750800750900050BE50B7018
:101E7D0002050AE50C64017008050EE50E700205F9
:101E8D000D0510E5107002050F0512E51270020523
:101E9D00110514E51470020513E548640170080579
:0C1EAD0016E51670020515D0D0D0E0320A
:0911FE00077800FF1BD7FF1A0659
:101BD70020A40920A30620A103021C618568828531
:101BE70067837FFA7E0012069E30A42975780178F4
:101BF700BF7601C287D286D28330A40F85688285DB
:101C070067837FC87E0012069E80EEC283D287D28A
:101C170086E478BFF630A32975780178C07601D2BB
:101C270087C286D28330A30F8568828567837FC882
:101C37007E0012069E80EEC283D287D286E478C0E9
:101C4700F630A116757801E478C6F6C292C293D22F
:0B1C570097087601087601751A0E222E
:101A060020A40C20A30920A20620A103021AAC855B
:101A160068828567837FFA7E0012069E30A4297548
:101A2600780178BF7601C287D286D28330A40F852B
:101A360068828567837FC87E0012069E80EEC28319
:101A4600D287D286E478BFF630A32975780178C0AC
:101A56007601D287C286D28330A30F8568828567D6
:101A6600837FC87E0012069E80EEC283D287D2860E
:101A7600E478C0F630A21775780178C67601751A33
:101A86000E751F017548017D017F481222A730A1FE
:101A960015757801D292D293C297E478C8F618F6F3
:071AA600FD7F481222A72278
:06233400FF550C0220051C
:06120700041A00FF144967
:10144900E51A700302159614B40E00400302158BB9
:1014590090146775F003A4C58325F0C5837302143E
:10146900910214AB0214C40214C40214C40214C7B6
:1014790002158B0214D00214E20214F402150202BE
:10148900152302158B021533E478C0F618E66007B8
:10149900C287D286021588D287D286E478BFF6023F
:1014A9001588E478BFF608E66006D287C286800808
:1014B900D287D286E478C0F6021588021588E478C6
:1014C900C3F6F51A02158B78C6E66006C2C7D28143
:1014D9008004D2C7C28102158878C7E66006C29225
:1014E900D2978004D292C29702158878C8E6600420
:1014F900C2938002D29302158878C9E66012E4F596
:101509000DF50EC294C295C296D282750C0180085F
:10151900C282D294D295D2968065E478C9F6D294E3
:10152900D295D296C282F51A805878C6E66012C260
:10153900C7C293D28178C87601755301E4F5528008
:101549003ED2C7D294D295D296C282C281E4F548DE
:10155900F547F515F5167BFF7A237934C002788FA4
:1015690008E6FA08E6F5828A83D0027D067C001235
:10157900069EE4F511F512751F02F553755201E443
:0E158900F51AE51E640170057F0212188E220D
:10120D000F57001A01540153FF2136FF1F65FF22AE
:01121D004090
:022136008F24F4
:10213800E4F525F526752580E5256026C2A7AA6A57
:10214800A96B12069AD2A7AA6AA96B12069AE52564
:1021580030A50442268003F45226E525C313F5254D
:0421680080D6AF2648
:01216C002250
:101F6500E4F522F523C28CC2A67FFF122136752225
:101F7500008F23E523752300F5227FFF122136EF1D
:101F85004223D2A6E52330E20875220F7523FF8090
:101F950011AE22E5237803CEC313CE13D8F9F5236A
:0B1FA5008E2253220FD28CAE22AF23FD
:011FB000220E
:10224000121F65AC06AD07E41201F17B007AF0794C
:102250007F7844120046E4FBFA7980784512014FFA
:0322600002022A4D
:101957002054686520686967682074656D706572D2
:101967006174757265207468726573686F6C642042
:1019770073657474696E6720697320636F6D706C2B
:101987006574650A00686967682074656D706572BB
:101997006174757265206973202564006C6F77091F
:1019A7000974656D7065726174757265206973205D
:1019B7002564002054686520666972652074656D2A
:1019C7007065726174757265207468726573686F8B
:1019D7006C642073657474696E6720697320636F24
:1019E7006D706C6574650A00666972652074656D53
:0F19F700706572617475726520697320256400D4
:0A121E004700AA00FF0055FF16A9C3
:1016A9009000B1EBF0A3EAF0A3E9F0E4F522900091
:1016B900B1E0FBA3E0FAA3E0F99000071206441297
:1016C9000545FF9000AAE07003A3E06F60030217CD
:1016D9006B9000B1E0FBA3E0FAA3E0F990000712D8
:1016E900064490000112055EFF9000ACE07003A370
:1016F900E06F706E90000212055E24FB6031146089
:101709001E24FC602F14603C146049240970539016
:1017190000B1E0FBA3E0FAA3E0F9120D6D8043905C
:1017290000B1E0FBA3E0FAA3E0F9120F6A803312DB
:101739001597802E9000B1E0FBA3E0FAA3E0F9121F
:1017490021C6801E9000B1E0FBA3E0FAA3E0F912E4
:1017590021F0800E9000B1E0FBA3E0FAA3E0F912BA
:101769001AAD9000B1E0FBA3E0FAA3E0F9900007FD
:10177900120644120545B4381D9000B1E0FBA3E000
:10178900FAA3E0F990000712064490000112055EE1
:06179900B436031215979F
:01179F002227
:100D6D009000B4EBF0A3EAF0A3E9F09000AAA3E0A1
:100D7D00FF900004120644EF12058B9000ACA3E027
:100D8D00FF9000B4E0FBA3E0FAA3E0F99000041299
:100D9D000644900001EF12059D9000B4E0FBA3E026
:100DAD00FAA3E0F9900004120644900002740312B5
:100DBD00059D9000B4E0FBA3E0FAA3E0F9900004D8
:100DCD00120644900003740F12059D9000B4E0FBD1
:100DDD00A3E0FAA3E0F9900004120644900004E4A5
:100DED0012059DAF589000B4E0FBA3E0FAA3E0F923
:100DFD00900004120644900005EF12059D9000B47A
:100E0D00E0FBA3E0FAA3E0F9900004120644900081
:100E1D0006E412059D78BFE6FF9000B4E0FBA3E069
:100E2D00FAA3E0F9900004120644900007EF1205B2
:100E3D009D78C0E6FF9000B4E0FBA3E0FAA3E0F9D3
:100E4D00900004120644900008EF12059D78C1E64B
:100E5D00FF9000B4E0FBA3E0FAA3E0F990000412C8
:100E6D000644900009EF12059D78C2E6FF9000B48C
:100E7D00E0FBA3E0FAA3E0F9900004120644900011
:100E8D000AEF12059D78C3E6FF9000B4E0FBA3E0E6
:100E9D00FAA3E0F990000412064490000BEF12053E
:100EAD009D78C4E6FF9000B4E0FBA3E0FAA3E0F95F
:100EBD0090000412064490000CEF12059D78C6E6D2
:100ECD00FF9000B4E0FBA3E0FAA3E0F99000041258
:100EDD00064490000DEF12059D78C7E6FF9000B413
:100EED00E0FBA3E0FAA3E0F99000041206449000A1
:100EFD000EEF12059D78C8E6FF9000B4E0FBA3E06D
:100F0D00FAA3E0F990000412064490000FEF1205C9
:100F1D009D78C9E6FF9000B4E0FBA3E0FAA3E0F9E9
:100F2D00900004120644900010EF12059D9000B43D
:100F3D00E0FBA3E0FAA3E0F9900004120644900050
:100F4D0011EF12059D9000B4E0FBA3E0FAA3E0F9C8
:0D0F5D00900004120644900012EF02059D62
:100F6A009000B4EBF0A3EAF0A3E9F0E4F523F5244A
:100F7A00F525F526F5279000B4E0FBA3E0FAA3E0F7
:100F8A00F990000712064490000412055E14B4108A
:100F9A00004003021156900FAE75F003A4C58325D5
:100FAA00F0C58373020FDE020FED020FFC02100B75
:100FBA0002101A02102902115602103802104702B2
:100FCA0010560210650210740210830211560210A4
:100FDA00920210FE90000512055E24FB78BFF6759A
:100FEA001A012290000512055E24FB78C0F6751AD4
:100FFA00022290000512055E24FB78C1F6751A03D9
:10100A002290000512055E24FB78C2F6751A0422A6
:10101A0090000512055E24FB78C3F6751A05229026
:10102A00000512055E24FB78C4F6751A06229000A4
:10103A000512055E24FB78C6F6751A08229000058B
:10104A0012055E24FB78C7F6751A0922900005126C
:10105A00055E24FB78C8F6751A0A22900005120567
:10106A005E24FB78C9F6751A0B2290000512055EFC
:10107A0024FB78CAF6751A0C2290000512055E2424
:10108A00FB78CBF6751A0D2290000512055E7524C1
:10109A0000F52590000612055E752600F527E52560
:1010AA004526F559E527F55AC3E55A9405E55994B5
:1010BA0000400CE55A24FBF55CE55934FFF55B7BEF
:1010CA00FF7A197957C002789208E6FA08E6F5829B
:1010DA008A83D00212069E7BFF7A19798C85592B56
:1010EA00855A2C1207297BFF7A1979A3855B2B85F0
:1010FA005C2C80559000B4E0FBA3E0FAA3E0F990E1
:10110A00000712064490000512055E752400F525B5
:10111A0090000612055E752600F527E5254526F599
:10112A0055E527F5567BFF7A1979BAC002789208F5
:10113A00E6FA08E6F5828A83D00212069E7BFF7AD7
:0C114A001979EF85552B85562C120729CA
:011156002276
:0B1597009000B1E0FBA3E0FAA3E0F934
:1015A2009000B4EBF0A3EAF0A3E9F0E4F523900095
:1015B200AAA3E0FF9000B4E0FBA3E0FAA3E0F99055
:1015C2000004120644EF12058B9000ACA3E0FF90DA
:1015D20000B4E0FBA3E0FAA3E0F990000412064491
:1015E200900001EF12059D9000B4E0FBA3E0FAA386
:1015F200E0F9900004120644900002740512059D61
:101602009000B4E0FBA3E0FAA3E0F9900004120614
:1016120044900003740F12059DE4F523C3E523945F
:101622000F7480948050449000B4E0FBA3E0FAA3CE
:10163200E0F99000071206448523827583001205A3
:101642005EFF9000B4E0FBA3E0FAA3E0F99000048F
:10165200120644E92404F9E43AFAE5237C0029F964
:10166200EC3AFAEF12058B052380B19000B4E0FB4F
:10167200A3E0FAA3E0F9900004120644C002788FB6
:1016820008E6FA08E6F5828A83D0027D137C00120E
:10169200069E751F017F0212188E856882856783F8
:0716A2007FE87E0302069EB3
:1021C6009000B4EBF0A3EAF0A3E9F0900007120642
:1021D6004490000412055E640E700E900005120510
:0921E6005E24FB78C6F6751A0EA2
:0121EF0022CD
:1021F0009000B4EBF0A3EAF0A3E9F0900007120618
:102200004490000412055E640F700E9000051205E4
:092210005E24FB78C9F6751A0B77
:0122190022A2
:101AAD009000B4EBF0A3EAF0A3E9F0E4FF90000797
:101ABD0012064490000412055E6420701290000519
:101ACD0012055E640670057548018003E4F548E46F
:101ADD00FFEFC394067480948050379000B4E0FB00
:101AED00A3E0FAA3E0F99000071206448F827583F4
:101AFD000012055EFE9000B4E0FBA3E0FAA3E0F94E
:101B0D009000041206448F82758300EE12059D0F1E
:101B1D0080BF9000B4E0FBA3E0FAA3E0F9900004CD
:101B2D00120644C002788F08E6FA08E6F5828A8329
:0E1B3D00D0027D067C0012069E7F0202188EEA
:101228004A000000000000000000000000606400A8
:101238000A0000000000000000000000000000009C
:101248000000000000000000000000000000000096
:101258000000000000000000000000000000000086
:101268000000000000000000000000000000000076
:101278000000000000000000000000000000000066
:101288000000000000000000000000000000000056
:10129800000000000020209F030000000100000162
:1012A800000AFF20FEFF2316FF1CD0FF1F0FFF1DA3
:0812B800FF00FF233AFF233B76
:1020FE00759A50438E04789FE614601F14600C147A
:10210E0060112403701575D7A0800B75D7E075D6B6
:10211E00FE800E75D7D075D6FF800675D7C075D6E2
:08212E00FD438E10439A1022BC
:0A23160078A0E670FB76018F9B2291
:0A1CD0008B228A2389248C258D269F
:101CDA00E4F527F52878B908E6FA08E6F912069A2B
:101CEA00E4F527F528C3E5289526E5279525502804
:101CFA00AB22AA23A92485288285278312055EFFA1
:101D0A0078AC08E6FA08E6F5828A8312069E052868
:101D1A00E52870D1052780CD78A0E670FB8568821A
:101D2A008567837F01FE12069E78BC08E6FA08E6FC
:041D3A00F902069A0A
:101F0F008B228A23892478B908E6FA08E6F91206A3
:101F1F009AAB22AA23A924120545601E0524E524A5
:101F2F007002052314F9120545FF78AC08E6FA088C
:101F3F00E6F5828A8312069E80D778A0E670FB852D
:101F4F0068828567837F01FE12069E78BC08E6FAD9
:061F5F0008E6F902069AF3
:01233A002280
:01233B00227F
:03004300021FB1E8
:101FB100C0E0C083C082C0D075D000C000E59A30B7
:101FC100E021539AFE78A2E6C39464748094805011
:101FD1000EE606240AF582E43400F583E59BF078E9
:101FE100A17601E59A30E107539AFD78A07600D0F9
:0A1FF10000D0D0D082D083D0E032BF
:101DFF0078A1E66401705690000AE06035E4F50AB8
:101E0F00F50B78A2E6C3940674809480500BC3E55B
:101E1F000B9414E50A940040E97B007A00799FC087
:101E2F00029000AEA3E0FAA3E0F5828A83D00212FB
:101E3F00069E7B017A00790A78A2E6FD7C00856E0A
:0E1E4F0082856D8312069EE478A2F618F622B4
:101D3E0072656369766520646174612066726F6D89
:101D4E002075617274310A0072656369766520646C
:101D5E006174612066726F6D2075617274320A0053
:101D6E00FF5505022306FF55090000000000000084
:101D7E000000000000000000003F065B4F666D7D16
:101D8E00077F6F00BF86DBCFE6EDFD87FFDF0068C4
:031D9E006A6C6EFE
:1012C0000154000147000153000152000255012C56
:1012D000014F00074800FF2263FF17A002500000E3
:0412E00002450000C3
:10226300120B36789508E6FA08E6F912069A78B55D
:1022730008E6FA08E6F912069AAA1CA91D12069A9C
:0322830002216DC8
:10216D00E51E24FE601114600E1460121460162416
:10217D0004701AE4F51E22E4F51E7F03800CE4F5CD
:0E218D001E7F018005E4F51E7F0212188E22CF
:1017A0007522037523E8E5231523AE227002152266
:1017B0004E7003021851AA7DA97E12069A8568828E
:1017C0008567837F017E0012069EE57864017004C0
:1017D000F578807D7881E6640170087BFF7A1D7959
:1017E0003E800D78A1E66401700B7BFF7A1D79566F
:1017F000120729805C0551E5517002055064E870BC
:1018000004E5506403702FF550F551AA64A96512E0
:10181000069A8E578F58C3E5589428E55794004090
:10182000107C007D781205BF7D641205D18E578F24
:1018300058AF581212E5C3E51094D0E50F94075045
:10184000030217A67F0312188EE4F50FF510021796
:10185000A6789508E6FA08E6F912069A78B508E639
:10186000FA08E6F912069AE51F24FE7020C3E51275
:1018700094C0E511945D4015D292D293C297E4785A
:0D188000C8F618F6751F01FD7F481222A75B
:01188D002238
:100B3600E4F522F5237545037546E8E5461546AE08
:100B460045700215454E7003020D6CAA7AA97B12F8
:100B5600069A8568828567837F017E0012069E0558
:100B660051E5517002055064E87004E55064037065
:100B76002FF550F551AA64A96512069A8E578F581B
:100B8600C3E5589428E557940040107C007D781200
:100B960005BF7D641205D18E578F58AF581212E5E6
:100BA600E57864017006F578751E03227881E6649F
:100BB60001700B751E017BFF7A1D793E801078A1AE
:100BC600E66401700C751E027BFF7A1D79560207DA
:100BD60029C3E5169460E51594EA4007E4F515F592
:100BE600160547C3E547940C748094804033E4F5BA
:100BF6004778C6F67BFF7A1D7974C00278AF08E69F
:100C0600FA08E6F5828A83D0027D137C0012069EDE
:100C16008568828567837FF47E0112069E751A0EAB
:100C260022C3E50E9450E50D9446400BE4F50DF510
:100C36000EF50C751A0C22C3E51094D0E50F940737
:100C46004009751E05E4F50FF51022E55370030201
:100C56000D56D3E5589400E55794005003020D56FF
:100C6600E5589420E55794034003020D56C3E55812
:100C76009556E55795554012E552700E78C976019E
:100C8600751A0B751E0375520122E54F1460331455
:100C96006064147003020D3724036003020D537859
:100CA600C67601E408F6C2C7D292D281C297D3E5CE
:100CB60058955AE55795595003020D56754F01023E
:100CC6000D56E478C6F6087601D2C7C292D297C20C
:100CD60081C3E558955AE55795595003E4F54FE514
:100CE6005A2414FFE43559FED3E5589FE5579E4034
:100CF6005F754F02805A78C67601E408F6C2C7D2FD
:100D060092C297D281E55A240FFFE43559FED3E506
:100D1600589FE5579E5003754F01E55A243CFFE462
:100D26003559FED3E5589FE5579E4024754F0380FD
:100D36001FE478C6F6087601D2C7C292D297C2815E
:100D4600D3E558955AE557955950058000E4F54F77
:100D5600C3E5149490E51394015003020B41751EEC
:060D660004E4F513F5148E
:010D6C002264
:0412E5008E248F259F
:1012E900E4F526D3E52594E7E524940340030213A6
:1012F90078E5259463E52494004074901D9DE4935A
:10130900FF901D91E493FD1222A7AE24AF257C0026
:101319007D641205D17C007D0A1205D18D26901DB0
:101329009EE493FFE526901D8793FD1222A7AE2424
:10133900AF257C007D0A1205D17C007D0A1205D1FA
:101349008D26901D9FE493FFE526901D8793FD123E
:1013590022A7AE24AF257C007D0A1205D18D2690E7
:101369001DA0E493FFE526901D8793FD1222A7D3C4
:10137900E5259463E52494005069E5259409E5245D
:101389009400405F901D9DE493FF901D91E493FDAF
:101399001222A7901D9EE493FF901D91E493FD12E4
:1013A90022A7AE24AF257C007D0A1205D17C007DE1
:1013B9000A1205D18D26901D9FE493FFE526901D05
:1013C9008793FD1222A7AE24AF257C007D0A120562
:1013D900D18D26901DA0E493FFE526901D8793FDEE
:1013E9001222A7D3E5259409E52494005051C3E5B9
:1013F900249400404A901D9DE493FF901D91E4932D
:10140900FD1222A7901D9EE493FF901D91E493FD88
:101419001222A7901D9FE493FF901D91E493FD1262
:1014290022A7AE24AF257C007D0A1205D18D269016
:0F1439001DA0E493FFE526901D8793FD1222A7C7
:011448002281
:0622C100D2B37F057E0090
:0422C7008E278F28A7
:0E22CB00E4FFAE070FEE60067E03DEFE80F439
:0122D90022E2
:0A232000D2B3D2B21222C3C2B2221D
:100026007D011222C1C2B330B20DEDD39464748047
:0C003600948050030D80F01222C3C2B36E
:01004200229B
:0A232A00D2B3C2B21222C3D2B22213
:02219B00AD078E
:10219D00C2B37F017E001222C7E4FCECC394087425
:1021AD008094805013ED25E0FD92B2C2B31222C38C
:0821BD001222C1C2B30C80E341
:0121C50022F7
:1022A700AB05AD07122320AF0512219B120026AF05
:0A22B7000312219B12002602232AC5
:10004600EC4D6011E8497017ED33EC3304600DE4B4
:10005600FCFFFEFD22E933E8330470F80202961233
:10006600026158046009E4CC248150062850090234
:1000760002A028400302029DC0E0EB4A7044B9800A
:1000860006D0E0FB02028CEF4E701CBD8008EBFF31
:10009600EAFEE9FD80EBE98DF0A4FEE5F002012F12
:1000A600E9CDF9EAFEEBFFEF89F0A4FCE5F0CE8995
:1000B600F0A42EFFE435F0CD89F0A42DFEE435F052
:1000C6008067EF4E7005BD80D780C3EF8BF0A4AC80
:1000D600F0EE8BF0A42CFCE435F0F8EF8AF0A42CBB
:1000E600E5F038FCE433CB8DF0A42CFCE5F03BF8CE
:1000F600EE8AF0A42CFCE5F038F8E433CF89F0A4BE
:100106002CFCE5F038CF3400CE89F0A42FFFE5F0C3
:100116003EFEE433C98DF0A42EFEE5F039CD8AF01B
:10012600A42FFFE5F03EFEE43DFD33D0E0FB500793
:100136000BBB000F0202A0EC2CFCEF33FFEE33FEEC
:06014600ED33FD0202781A
:10014C000202A0EC5D046005E859047003020296FB
:10015C00120261580460F6EC4860F2EC7004FDFE8B
:10016C00FF22C860DB2481C85009C3986002500686
:10017C0002029D9850CAF582E9294B4A7005AB8260
:10018C0002028C75F0007C1A7880C3EF9BEE9AED1E
:10019C0099400DC3EF9BFFEE9AFEED99FDE842F0FE
:1001AC00DC23ACF0D0E0FFD0E0FED0E0FDAB822051
:1001BC00E7101BEB60BAEC2CFCEF33FFEE33FEEDDB
:1001CC0033FD020278E803F830E705C0F075F00063
:1001DC00EF2FFFEE33FEED33FD40B830E7C280AABF
:1001EC0075F020800E75F010800575F0087D007E8E
:1001FC00007F003392D530D503120626EC33401025
:10020C00EF33FFEE33FEED33FDEC33FCD5F0ED2296
:0E021C00E5F0247EA2D513CC92E7CDCEFF22D2
:10022A00EDD2E7CD33EC3392D524814006E4FFFECC
:10023A00FDFC22FCE4CFCECDCC24E0501174FF802B
:10024A00EDC3CC13CCCD13CDCE13CECF13CF0470C8
:07025A00F030D5DE0206269C
:1006C700E53F242BF8E6053F227828300702782BF0
:1006D700E475F0011206340205452000EB7F2ED2A7
:1006E700008018EF540F2490D43440D4FF30040B0B
:1006F700EF24BFB41A0050032461FFE540600215E0
:10070700400543E5437002054230070D7828E4753C
:10071700F001120634EF02058B02000E7403D207B4
:100727008003E4C207F53F8B288A29892AE4F5402C
:10073700F542F543E54060077F2012070280F57513
:1007470041FFC201C200C202C203C205C206C208FB
:100757001206D0FF700D3007057F00120713AF4355
:10076700AE4222B4255FC2D5C2041206D0FF24D000
:10077700B40A00501A75F00A784030D50508B6FF5C
:100787000106C6A426F620D5047002D20380D92418
:10079700CFB41A00EF5004C2E5D204020A00D20116
:1007A70080C6D20080C0D20280BCD2D580BAD20522
:1007B70080B47F201207022002077401B540004071
:1007C700F11206C7FF12070202073BD208D20680C2
:1007D700951206C7FB1206C7FA1206C7F94A4B70ED
:1007E7000679F77A0A7BFF20022EE540602A7E0011
:1007F7008E8275830012055E60060EEE654170F00D
:10080700C2D5EBC0E0EAC0E0E9C0E0EE120A60D072
:10081700E0F9D0E0FAD0E0FB120545FF60AAEBC093
:10082700E0EAC0E0E9C0E0120702D0E02401F9D015
:10083700E03400FAD0E0FBE5410460DCD541D98023
:1008470087D20280A2120A4360F7E54170010412C1
:1008570002ABA941600DE541600914F541120AEAAE
:10086700EF60F3EA30E702F404C3995077EAF4251E
:10087700410430E701E404F541800D120A4360C1E9
:10088700EA054125411202ABEA783EF630E701E47A
:10089700254104D5410420050114120A60E4C0E093
:1008A700120AEA783EE6601320E70714F61206EA12
:1008B700802204F6D0E014C0E07F001206EAE5418A
:1008C70060071206E11541800B3005031206E1D0DF
:1008D700E002073BD0E00480C5120A4360A0E5416F
:1008E700041202AB783EEAF6E541200502600104F6
:0508F7002404120A6058
:1008FC0074FF04C0E0120AEA1206EAE54120050280
:10090C0060031206E1D0E0B541E87F451206F478A9
:10091C003EE67F2B30E7047F2DF404C0E012070283
:10092C00D0E075F00A84C0F01206EBD0E01206EBB2
:10093C0002073B791080027908C206C2088008D2EF
:10094C00D5790A8004790AC2D5E541047002F541D3
:10095C00E4FAFDFEFF1206C7FC7B08200113120609
:10096C00C7FD7B1030000A1206C7FE1206C7FF7BBC
:10097C0020EC3382D592D55013C3E43000069FFF90
:10098C00E49EFEE42001039DFDE49CFCE4CBF8C254
:10099C0001EC700CCFCECDCCE824F8F870F38017B6
:1009AC00C3EF33FFEE33FEED33FDEC33FCEB33FBE7
:1009BC00994002FB0FD8E9EB300105F8D0E0C448B0
:1009CC00B201C0E00AEC4D4E4F78207B0070C2EAB9
:1009DC00B5410040BCC0E0120A62D0F0D0E020016A
:1009EC0004C4C0E0C4B201C0F01206EBD0F0D5F0E4
:1009FC00EB02073B12067407D853093F5807A94C62
:100A0C0007A54209434F094B44094B4907BE43090B
:100A1C00515508824608E045084C470B175007AD66
:100A2C002D07B12E07D42B07B52307D2200B002A94
:100A3C00076D48000007CCE541B4FF037541061271
:100A4C0006C7FC1206C7FD1206C7FE1206C7FF78C2
:100A5C00370202DA790AA2D5200314300509B9103D
:100A6C00020404B9080104A2D52006025001042096
:100A7C0002689202B540005034C0E07F2030031968
:100A8C007F30A20272067205500F120AB9C202C25E
:100A9C0006C205C2087F30800F300503E9C0E012A2
:100AAC000702300503D0E0F9D0E0B540CC30051793
:100ABC007F30B9100C1207027F583004077F788002
:100ACC0003B908031207023002057F2D0207027FCB
:100ADC00202008F87F2B2006F322920280CF7F0083
:100AEC00B4070050052437F8E6FF22286E756C6CAD
:100AFC002900D2011206C73001F8C201784030D566
:100B0C000108F602076D2D504349581206C72403FD
:100B1C00B405004001E4900B12931206F3743A12E0
:0A0B2C0006F3D20375400402093FEE
:10026100E9D2E7C933E833F892D5EDD2E7CD33ECE3
:0702710033FC5002B2D5225C
:10027800EC30E7100FBF000C0EBE00080DBD0004E7
:100288000BEB6014A2D5EB13FCED92E7FD2274FF93
:10029800FCFDFEFF22E480F8A2D574FF13FC7D80EC
:0302A800E480EF00
:1002AB00F920E72824F950037907E4F42402FB181A
:1002BB00DBFDE624FB5014E9600DE4F618E604F6CA
:0F02CB00B40A08E4F6D9F57401F60A22C2D52266
:1002DA00ED33EC3392D5FA602AB4FF33EDC2E77BF3
:1002EA00FF60067A0279FFE4227A03790820D504AE
:1002FA007A037903224E614E002B494E46002D495E
:10030A004E4600E47A08F608DAFC7B00740722E815
:10031A00C0E0ECC0E0EDC0E0EEC0E0EFC0E0EA759E
:10032A00F010A4CAABF075F04DA42BFBE435F0FC39
:10033A00EA2410FAEB34C5FBEC34D9FCEDC2E7FF32
:10034A0075F056A4F42411C5F0F434C58FF0A42A2C
:10035A00E5F03BE43CF620E714120505D0E0FFD0B7
:10036A00E0FED0E0FDD0E0FC12014F8014F404124C
:10037A000505D0E0FFD0E0FED0E0FDD0E0FC1200A1
:10038A0046D0E0F8E6FAEDD2E7CD33EC332482FB2F
:10039A00E4C3CF33CFCE33CECD33CD33DBF37B07BC
:1003AA0075F00A846004F6081B0AE5F0F6088FF077
:1003BA00740AA4FFACF08EF0740AA42CFEACF050C0
:1003CA00010C8DF0740AA42CFDE435F0F608DBDE8E
:0303DA0074072283
:1003DD00020296E86480F8E933E83360110460F0B6
:1003ED00ED33EC337009E8FCE9FDEAFEEBFF220486
:1003FD0060DED3EB9FEA9EE99DE8C2E78CF0C2F781
:10040D0095F0400CE8CCF8E9CDF9EACEFAEBCFFB4C
:10041D0012026185D0F05804700320D5B3E8047042
:10042D00075002B2D50202A092D5EC0460F7E4CCDD
:10043D00C0E0C398F8603B94186008400DD0E0FB15
:10044D00020278E4FBFAC9FC8028E830E406E4C92E
:10045D00FBE4CAFCE830E305E4C9CACBFCE8540769
:10046D006010F8C3E913F9EA13FAEB13FBEC13FC74
:10047D00D8F130F52FC3E49CFCEF9BFFEE9AFEED17
:10048D0099FDD0E0FBEF4E4D4C701222DB030202C2
:10049D009DEC2CFCEF33FFEE33FEED33FDED30E73D
:1004AD00EB020278EF2BFFEE3AFEED39FDD0E0FBCB
:1004BD0050130BBB00030202A0ED13FDEE13FEEF74
:0804CD0013FFEC13FC0202789E
:1004D5003F8000004120000042C80000447A00002F
:1004E500461C400047C35000497424004B189680B1
:1004F5004CBEBC205A0E1BCA6753C21C749DC5AEA8
:10050500FB60065407601C2323120533EB54386047
:100515000912051F12052E120046ECF8EDF9EEFA48
:10052500EFCB22EB12052E80F1543803241C9004E6
:10053500D5FE93FC0EEE93FD0EEE930ECE93FF22A9
:03000000021B4B95
:0C1B4B00787FE4F6D8FD7581CB021B9278
:10054500BB010689828A83E0225002E722BBFE02B4
:09055500E32289828A83E49322E7
:10055E00BB010CE58229F582E5833AF583E0225052
:10056E0006E92582F8E622BBFE06E92582F8E2229C
:0D057E00E58229F582E5833AF583E49322B6
:10058B00BB010689828A83F0225002F722BBFE014F
:02059B00F32249
:10059D00F8BB010DE58229F582E5833AF583E8F094
:1005AD00225006E92582C8F622BBFE05E92582C840
:0205BD00F22228
:1005BF00EF8DF0A4A8F0CF8CF0A428CE8DF0A42E50
:0205CF00FE220A
:1005D100BC000BBE0029EF8DF084FFADF022E4CC0E
:1005E100F875F008EF2FFFEE33FEEC33FCEE9DECD7
:1005F100984005FCEE9DFE0FD5F0E9E4CEFD22ED1D
:10060100F8F5F0EE8420D21CFEADF075F008EF2F66
:10061100FFED33FD4007985006D5F0F222C398FD57
:050621000FD5F0EA22F4
:0E062600C3E49FFFE49EFEE49DFDE49CFC22E5
:10063400FAE6FB0808E6F925F0F618E6CA3AF622C7
:10064400BB010DE58229F582E5833AF5830206A90B
:100654005007E92582F80206A0BBFE07E92582F8C7
:100664000206B2E58229F582E5833AF5830206BBE8
:10067400D083D082F8E4937012740193700DA3A315
:1006840093F8740193F5828883E473740293686029
:06069400EFA3A3A380DF29
:06069A008A838982E473EB
:101B5700022286E493A3F8E493A34003F68001F2FC
:101B670008DFF48029E493A3F85407240CC8C3338F
:101B7700C4540F4420C8834004F456800146F6DF5E
:101B8700E4800B0102040810204080901157E47E86
:101B9700019360BCA3FF543F30E509541FFEE49353
:101BA700A360010ECF54C025E060A840B8E493A31A
:101BB700FAE493A3F8E493A3C8C582C8CAC583CA45
:101BC700F0A3C8C582C8CAC583CADFE9DEE780BEFD
:0112E4000009
:0906A000E6FB08E6FA08E6F9227F
:0906A900E0FBA3E0FAA3E0F92252
:0906B200E2FB08E2FA08E2F92279
:0C06BB00E493FB740193FA740293F9229B
:00000001FF
