BL51 BANKED LINKER/LOCATER V6.22.2.0                                                    02/03/2023  08:32:14  PAGE 1


BL51 BANKED LINKER/LOCATER V6.22.2.0, INVOKED BY:
D:\KEIL_V5\C51\BIN\BL51.EXE .\obj\main.obj, .\obj\public.obj, .\obj\Relays.obj, .\obj\Sys_init.obj, .\obj\UART1.obj, .\o
>> bj\Timer0.obj, .\obj\RemoteControl.obj, .\obj\Trigger.obj, .\obj\MAX6675.obj, .\obj\Modbus.obj, .\obj\UART2.obj, .\ob
>> j\System.obj, .\obj\tm1650.obj TO .\obj\Project-STC15 PRINT (.\obj\Project-STC15.m51) RAMSIZE (256)


MEMORY MODEL: SMALL WITH FLOATING POINT ARITHMETIC


INPUT MODULES INCLUDED:
  .\obj\main.obj (MAIN)
  .\obj\public.obj (PUBLIC)
  .\obj\Relays.obj (RELAYS)
  .\obj\Sys_init.obj (SYS_INIT)
  .\obj\UART1.obj (UART1)
  .\obj\Timer0.obj (TIMER0)
  .\obj\RemoteControl.obj (REMOTECONTROL)
  .\obj\Trigger.obj (TRIGGER)
  .\obj\MAX6675.obj (MAX6675)
  .\obj\Modbus.obj (MODBUS)
  .\obj\UART2.obj (UART2)
  .\obj\System.obj (SYSTEM)
  .\obj\tm1650.obj (TM1650)
  D:\KEIL_V5\C51\LIB\C51FPS.LIB (?C?FPMUL)
  D:\KEIL_V5\C51\LIB\C51FPS.LIB (?C?FPDIV)
  D:\KEIL_V5\C51\LIB\C51FPS.LIB (?C?FCAST)
  D:\KEIL_V5\C51\LIB\C51FPS.LIB (?C?CASTF)
  D:\KEIL_V5\C51\LIB\C51FPS.LIB (PRINTF)
  D:\KEIL_V5\C51\LIB\C51FPS.LIB (?C?FPGETOPN)
  D:\KEIL_V5\C51\LIB\C51FPS.LIB (?C?FPROUND)
  D:\KEIL_V5\C51\LIB\C51FPS.LIB (?C?FPCONVERT)
  D:\KEIL_V5\C51\LIB\C51FPS.LIB (?C?FPADD)
  D:\KEIL_V5\C51\LIB\C51FPS.LIB (?C?FTNPWR)
  D:\KEIL_V5\C51\LIB\C51S.LIB (?C_STARTUP)
  D:\KEIL_V5\C51\LIB\C51S.LIB (?C?CLDPTR)
  D:\KEIL_V5\C51\LIB\C51S.LIB (?C?CLDOPTR)
  D:\KEIL_V5\C51\LIB\C51S.LIB (?C?CSTPTR)
  D:\KEIL_V5\C51\LIB\C51S.LIB (?C?CSTOPTR)
  D:\KEIL_V5\C51\LIB\C51S.LIB (?C?IMUL)
  D:\KEIL_V5\C51\LIB\C51S.LIB (?C?UIDIV)
  D:\KEIL_V5\C51\LIB\C51S.LIB (?C?LNEG)
  D:\KEIL_V5\C51\LIB\C51S.LIB (?C?PLDIIDATA)
  D:\KEIL_V5\C51\LIB\C51S.LIB (?C?PLDOPTR)
  D:\KEIL_V5\C51\LIB\C51S.LIB (?C?CCASE)
  D:\KEIL_V5\C51\LIB\C51S.LIB (?C?ICALL)
  D:\KEIL_V5\C51\LIB\C51S.LIB (?C_INIT)
  D:\KEIL_V5\C51\LIB\C51S.LIB (?C?PLDIDATA)
  D:\KEIL_V5\C51\LIB\C51S.LIB (?C?PLDXDATA)
  D:\KEIL_V5\C51\LIB\C51S.LIB (?C?PLDPDATA)
  D:\KEIL_V5\C51\LIB\C51S.LIB (?C?PLDCODE)


LINK MAP OF MODULE:  .\obj\Project-STC15 (MAIN)


            TYPE    BASE      LENGTH    RELOCATION   SEGMENT NAME
            -----------------------------------------------------

BL51 BANKED LINKER/LOCATER V6.22.2.0                                                  02/03/2023  08:32:14  PAGE 2


            * * * * * * *   D A T A   M E M O R Y   * * * * * * *
            REG     0000H     0008H     ABSOLUTE     "REG BANK 0"
            DATA    0008H     0012H     UNIT         ?DT?TIMER0
            DATA    001AH     0004H     UNIT         ?DT?TRIGGER
            DATA    001EH     0002H     UNIT         ?DT?MAIN
            BIT     0020H.0   0001H.1   UNIT         _BIT_GROUP_
                    0021H.1   0000H.7                *** GAP ***
            DATA    0022H     0023H     UNIT         _DATA_GROUP_
            DATA    0045H     0012H     UNIT         ?DT?SYSTEM
            DATA    0057H     000FH     UNIT         ?DT?MAX6675
            DATA    0066H     0009H     UNIT         ?DT?PUBLIC
            DATA    006FH     0009H     UNIT         ?DT?SYS_INIT
            DATA    0078H     0007H     UNIT         ?DT?REMOTECONTROL
            IDATA   007FH     0020H     UNIT         ?ID?UART1
            IDATA   009FH     0020H     UNIT         ?ID?UART2
            IDATA   00BFH     000DH     UNIT         ?ID?RELAYS
            IDATA   00CCH     0001H     UNIT         ?STACK

            * * * * * * *  X D A T A   M E M O R Y  * * * * * * *
            XDATA   0000H     006EH     UNIT         ?XD?UART2
            XDATA   006EH     0028H     UNIT         ?XD?UART1
            XDATA   0096H     0014H     UNIT         ?XD?MAIN
            XDATA   00AAH     0007H     UNIT         ?XD?MODBUS
            XDATA   00B1H     0006H     UNIT         _XDATA_GROUP_

            * * * * * * *   C O D E   M E M O R Y   * * * * * * *
            CODE    0000H     0003H     ABSOLUTE     
            CODE    0003H     0008H     UNIT         ?PR?SPI_DELAY?PUBLIC
            CODE    000BH     0003H     ABSOLUTE     
            CODE    000EH     0013H     UNIT         ?PR?_PUTCHAR?UART1
            CODE    0021H     0001H     UNIT         ?PR?RS485_SET_SENDMODE?UART1
            CODE    0022H     0001H     UNIT         ?PR?RS485_SET_RECMODE?UART1
            CODE    0023H     0003H     ABSOLUTE     
            CODE    0026H     001DH     UNIT         ?PR?I2CASK?TM1650
            CODE    0043H     0003H     ABSOLUTE     
            CODE    0046H     0681H     UNIT         ?C?LIB_CODE
            CODE    06C7H     046FH     UNIT         ?PR?PRINTF?PRINTF
            CODE    0B36H     0237H     UNIT         ?PR?SYS_RUN_CHECK?SYSTEM
            CODE    0D6DH     01FDH     UNIT         ?PR?_MODBUS_READ_REGISTER?MODBUS
            CODE    0F6AH     01EDH     UNIT         ?PR?_MODBUS_WRTIE_REGISTER?MODBUS
            CODE    1157H     018EH     UNIT         ?C_INITSEG
            CODE    12E5H     0164H     UNIT         ?PR?_LEDNUM_UPDATA?SYSTEM
            CODE    1449H     014EH     UNIT         ?PR?TRIGGER_CONTROL?TRIGGER
            CODE    1597H     0112H     UNIT         ?PR?_MODBUS_WRITE_IMEI?MODBUS
            CODE    16A9H     00F7H     UNIT         ?PR?_PROTOCOL_ANALYSIS?MODBUS
            CODE    17A0H     00EEH     UNIT         ?PR?STANDBY?SYSTEM
            CODE    188EH     00C9H     UNIT         ?PR?_DATAUPDATE?MAIN
            CODE    1957H     00AFH     UNIT         ?CO?MODBUS
            CODE    1A06H     00A7H     UNIT         ?PR?QKEY_STANDBY_FLAG_DETECT?REMOTECONTROL
            CODE    1AADH     009EH     UNIT         ?PR?_MODBUS_USE_THE_DEVICE?MODBUS
            CODE    1B4BH     008CH     UNIT         ?C_C51STARTUP
            CODE    1BD7H     008BH     UNIT         ?PR?QKEY_DETECT?REMOTECONTROL
            CODE    1C62H     006EH     UNIT         ?PR?_SENDARRAY?UART1
            CODE    1CD0H     006EH     UNIT         ?PR?_SENDARRAY?UART2
            CODE    1D3EH     0063H     UNIT         ?CO?SYSTEM
            CODE    1DA1H     005EH     UNIT         ?PR?PROTOCOL?UART1
            CODE    1DFFH     005EH     UNIT         ?PR?PROTOCOL?UART2
BL51 BANKED LINKER/LOCATER V6.22.2.0                                                  02/03/2023  08:32:14  PAGE 3


            CODE    1E5DH     005CH     UNIT         ?PR?TIMER0_ISR?TIMER0
            CODE    1EB9H     0056H     UNIT         ?PR?_SENDSTRING?UART1
            CODE    1F0FH     0056H     UNIT         ?PR?_SENDSTRING?UART2
            CODE    1F65H     004CH     UNIT         ?PR?MAX6675_READRAWVALUE?MAX6675
            CODE    1FB1H     004AH     UNIT         ?PR?UART2_ISR?UART2
            CODE    1FFBH     0044H     UNIT         ?PR?UART1_ISR?UART1
            CODE    203FH     0043H     UNIT         ?PR?GPIO_INIT?SYS_INIT
            CODE    2082H     0041H     UNIT         ?PR?INIT?UART1
            CODE    20C3H     003BH     UNIT         ?PR?SYS_INIT?SYS_INIT
            CODE    20FEH     0038H     UNIT         ?PR?INIT?UART2
            CODE    2136H     0037H     UNIT         ?PR?_MAX6675_READWRITEBYTE?MAX6675
            CODE    216DH     002EH     UNIT         ?PR?SYS_RUN_UPDATE?SYSTEM
            CODE    219BH     002BH     UNIT         ?PR?_I2CWRBYTE?TM1650
            CODE    21C6H     002AH     UNIT         ?PR?_MODBUS_BOOT_THE_DEVICE?MODBUS
            CODE    21F0H     002AH     UNIT         ?PR?_MODBUS_HEAT_IGNITION?MODBUS
            CODE    221AH     0026H     UNIT         ?PR?_MEMORY_CLR?PUBLIC
            CODE    2240H     0023H     UNIT         ?PR?MAX6675_READTEMPERATURE?MAX6675
            CODE    2263H     0023H     UNIT         ?PR?RUN?SYSTEM
            CODE    2286H     0021H     UNIT         ?PR?MAIN?MAIN
            CODE    22A7H     001AH     UNIT         ?PR?_TM1650_SET?TM1650
            CODE    22C1H     0019H     UNIT         ?PR?_DELAY_US?TM1650
            CODE    22DAH     0017H     UNIT         ?PR?_DELAY_MS?PUBLIC
            CODE    22F1H     0011H     UNIT         ?PR?TIMER0_INIT?TIMER0
            CODE    2302H     000AH     UNIT         ?PR?IE_INIT?SYS_INIT
            CODE    230CH     000AH     UNIT         ?PR?_SENDDATA?UART1
            CODE    2316H     000AH     UNIT         ?PR?_SENDDATA?UART2
            CODE    2320H     000AH     UNIT         ?PR?I2CSTART?TM1650
            CODE    232AH     000AH     UNIT         ?PR?I2CSTOP?TM1650
            CODE    2334H     0006H     UNIT         ?CO?TRIGGER
            CODE    233AH     0001H     UNIT         ?PR?RS485_SET_SENDMODE?UART2
            CODE    233BH     0001H     UNIT         ?PR?RS485_SET_RECMODE?UART2



OVERLAY MAP OF MODULE:   .\obj\Project-STC15 (MAIN)


SEGMENT                                             BIT_GROUP          DATA_GROUP          XDATA_GROUP
  +--> CALLED SEGMENT                            START    LENGTH     START    LENGTH     START    LENGTH
--------------------------------------------------------------------------------------------------------
?C_C51STARTUP                                    -----    -----      -----    -----      -----    -----
  +--> ?PR?MAIN?MAIN
  +--> ?C_INITSEG

?C_INITSEG                                       -----    -----      -----    -----      -----    -----
  +--> ?PR?_DELAY_MS?PUBLIC
  +--> ?PR?SPI_DELAY?PUBLIC
  +--> ?PR?_MEMORY_CLR?PUBLIC
  +--> ?PR?GPIO_INIT?SYS_INIT
  +--> ?PR?IE_INIT?SYS_INIT
  +--> ?PR?SYS_INIT?SYS_INIT
  +--> ?PR?INIT?UART1
  +--> ?PR?_SENDDATA?UART1
  +--> ?PR?_SENDARRAY?UART1
  +--> ?PR?_SENDSTRING?UART1
  +--> ?PR?PROTOCOL?UART1
  +--> ?PR?RS485_SET_SENDMODE?UART1
BL51 BANKED LINKER/LOCATER V6.22.2.0                                                  02/03/2023  08:32:14  PAGE 4


  +--> ?PR?RS485_SET_RECMODE?UART1
  +--> ?PR?TIMER0_INIT?TIMER0
  +--> ?PR?QKEY_DETECT?REMOTECONTROL
  +--> ?PR?QKEY_STANDBY_FLAG_DETECT?REMOTECO...
  +--> ?PR?TRIGGER_CONTROL?TRIGGER
  +--> ?PR?_MAX6675_READWRITEBYTE?MAX6675
  +--> ?PR?MAX6675_READRAWVALUE?MAX6675
  +--> ?PR?MAX6675_READTEMPERATURE?MAX6675
  +--> ?PR?_PROTOCOL_ANALYSIS?MODBUS
  +--> ?PR?INIT?UART2
  +--> ?PR?_SENDDATA?UART2
  +--> ?PR?_SENDARRAY?UART2
  +--> ?PR?_SENDSTRING?UART2
  +--> ?PR?PROTOCOL?UART2
  +--> ?PR?RS485_SET_SENDMODE?UART2
  +--> ?PR?RS485_SET_RECMODE?UART2
  +--> ?PR?RUN?SYSTEM
  +--> ?PR?STANDBY?SYSTEM

?PR?_MEMORY_CLR?PUBLIC                           -----    -----      0022H    0003H      -----    -----

?PR?_SENDARRAY?UART1                             -----    -----      0022H    0007H      -----    -----

?PR?_SENDSTRING?UART1                            -----    -----      0022H    0003H      -----    -----

?PR?QKEY_STANDBY_FLAG_DETECT?REMOTECO...         -----    -----      -----    -----      -----    -----
  +--> ?PR?_TM1650_SET?TM1650

?PR?_TM1650_SET?TM1650                           -----    -----      -----    -----      -----    -----
  +--> ?PR?I2CSTART?TM1650
  +--> ?PR?_I2CWRBYTE?TM1650
  +--> ?PR?I2CASK?TM1650
  +--> ?PR?I2CSTOP?TM1650

?PR?I2CSTART?TM1650                              -----    -----      -----    -----      -----    -----
  +--> ?PR?_DELAY_US?TM1650

?PR?_DELAY_US?TM1650                             -----    -----      0027H    0002H      -----    -----

?PR?_I2CWRBYTE?TM1650                            -----    -----      -----    -----      -----    -----
  +--> ?PR?_DELAY_US?TM1650

?PR?I2CASK?TM1650                                -----    -----      -----    -----      -----    -----
  +--> ?PR?_DELAY_US?TM1650

?PR?I2CSTOP?TM1650                               -----    -----      -----    -----      -----    -----
  +--> ?PR?_DELAY_US?TM1650

?PR?TRIGGER_CONTROL?TRIGGER                      -----    -----      -----    -----      -----    -----
  +--> ?CO?TRIGGER
  +--> ?PR?_DATAUPDATE?MAIN

?PR?_DATAUPDATE?MAIN                             -----    -----      0024H    0001H      -----    -----

?PR?_MAX6675_READWRITEBYTE?MAX6675               -----    -----      0024H    0003H      -----    -----

?PR?MAX6675_READRAWVALUE?MAX6675                 -----    -----      0022H    0002H      -----    -----
BL51 BANKED LINKER/LOCATER V6.22.2.0                                                  02/03/2023  08:32:14  PAGE 5


  +--> ?PR?_MAX6675_READWRITEBYTE?MAX6675

?PR?MAX6675_READTEMPERATURE?MAX6675              -----    -----      -----    -----      -----    -----
  +--> ?PR?MAX6675_READRAWVALUE?MAX6675

?PR?_PROTOCOL_ANALYSIS?MODBUS                    -----    -----      0022H    0001H      00B1H    0003H
  +--> ?PR?_MODBUS_READ_REGISTER?MODBUS
  +--> ?PR?_MODBUS_WRTIE_REGISTER?MODBUS
  +--> ?PR?_MODBUS_WRITE_IMEI?MODBUS
  +--> ?PR?_MODBUS_BOOT_THE_DEVICE?MODBUS
  +--> ?PR?_MODBUS_HEAT_IGNITION?MODBUS
  +--> ?PR?_MODBUS_USE_THE_DEVICE?MODBUS

?PR?_MODBUS_READ_REGISTER?MODBUS                 -----    -----      -----    -----      00B4H    0003H

?PR?_MODBUS_WRTIE_REGISTER?MODBUS                -----    -----      0023H    0005H      00B4H    0003H
  +--> ?CO?MODBUS
  +--> ?PR?PRINTF?PRINTF

?PR?PRINTF?PRINTF                                0020H.0  0001H.1    0028H    001CH      -----    -----
  +--> ?PR?_PUTCHAR?UART1

?PR?_PUTCHAR?UART1                               -----    -----      0044H    0001H      -----    -----

?PR?_MODBUS_WRITE_IMEI?MODBUS                    -----    -----      0023H    0001H      00B4H    0003H
  +--> ?PR?_DATAUPDATE?MAIN

?PR?_MODBUS_BOOT_THE_DEVICE?MODBUS               -----    -----      -----    -----      00B4H    0003H

?PR?_MODBUS_HEAT_IGNITION?MODBUS                 -----    -----      -----    -----      00B4H    0003H

?PR?_MODBUS_USE_THE_DEVICE?MODBUS                -----    -----      -----    -----      00B4H    0003H
  +--> ?PR?_DATAUPDATE?MAIN

?PR?_SENDARRAY?UART2                             -----    -----      0022H    0007H      -----    -----

?PR?_SENDSTRING?UART2                            -----    -----      0022H    0003H      -----    -----

?PR?RUN?SYSTEM                                   -----    -----      -----    -----      -----    -----
  +--> ?PR?SYS_RUN_CHECK?SYSTEM
  +--> ?PR?SYS_RUN_UPDATE?SYSTEM

?PR?SYS_RUN_CHECK?SYSTEM                         -----    -----      0022H    0002H      -----    -----
  +--> ?PR?_LEDNUM_UPDATA?SYSTEM
  +--> ?CO?SYSTEM
  +--> ?PR?PRINTF?PRINTF

?PR?_LEDNUM_UPDATA?SYSTEM                        -----    -----      0024H    0003H      -----    -----
  +--> ?CO?SYSTEM
  +--> ?PR?_TM1650_SET?TM1650

?PR?SYS_RUN_UPDATE?SYSTEM                        -----    -----      -----    -----      -----    -----
  +--> ?PR?_DATAUPDATE?MAIN

?PR?STANDBY?SYSTEM                               -----    -----      0022H    0002H      -----    -----
  +--> ?CO?SYSTEM
  +--> ?PR?PRINTF?PRINTF
BL51 BANKED LINKER/LOCATER V6.22.2.0                                                  02/03/2023  08:32:14  PAGE 6


  +--> ?PR?_LEDNUM_UPDATA?SYSTEM
  +--> ?PR?_DATAUPDATE?MAIN
  +--> ?PR?_TM1650_SET?TM1650



SYMBOL TABLE OF MODULE:  .\obj\Project-STC15 (MAIN)

  VALUE           TYPE          NAME
  ----------------------------------

  -------         MODULE        MAIN
  C:0000H         SYMBOL        _ICE_DUMMY_
  D:0080H         PUBLIC        P0
  D:001EH         PUBLIC        StateFlag
  D:0090H         PUBLIC        P1
  D:00A0H         PUBLIC        P2
  D:00B0H         PUBLIC        P3
  D:00C0H         PUBLIC        P4
  D:00C8H         PUBLIC        P5
  D:00E8H         PUBLIC        P6
  D:00F8H         PUBLIC        P7
  D:00A8H         PUBLIC        IE
  D:001FH         PUBLIC        StandBy_Flag
  D:00B8H         PUBLIC        IP
  D:00D8H         PUBLIC        CCON
  C:2286H         PUBLIC        main
  D:0098H         PUBLIC        SCON
  B:0080H.4       PUBLIC        P04
  D:0088H         PUBLIC        TCON
  X:0096H         PUBLIC        dataUpdate_Buffer
  C:188EH         PUBLIC        _DataUpdate
  D:00D0H         PUBLIC        PSW
  -------         PROC          MAIN
  C:2286H         LINE#         73
  C:2286H         LINE#         74
  C:2286H         LINE#         77
  C:228CH         LINE#         80
  C:228CH         LINE#         81
  C:228CH         LINE#         82
  C:2291H         LINE#         83
  C:2291H         LINE#         84
  C:2293H         LINE#         86
  C:229AH         LINE#         87
  C:229CH         LINE#         89
  C:229CH         LINE#         90
  C:229EH         LINE#         91
  C:22A5H         LINE#         92
  C:22A5H         LINE#         93
  -------         ENDPROC       MAIN
  -------         PROC          _DATAUPDATE
  D:0005H         SYMBOL        flag
  -------         DO            
  D:0024H         SYMBOL        Flag
  -------         ENDDO         
  C:188EH         LINE#         100
  C:1890H         LINE#         101
BL51 BANKED LINKER/LOCATER V6.22.2.0                                                  02/03/2023  08:32:14  PAGE 7


  C:1890H         LINE#         102
  C:1892H         LINE#         105
  C:189BH         LINE#         106
  C:18A4H         LINE#         109
  C:18A8H         LINE#         112
  C:18ACH         LINE#         115
  C:18B0H         LINE#         116
  C:18B4H         LINE#         119
  C:18B7H         LINE#         120
  C:18BCH         LINE#         121
  C:18C0H         LINE#         122
  C:18C4H         LINE#         123
  C:18C8H         LINE#         124
  C:18CCH         LINE#         125
  C:18D0H         LINE#         127
  C:18D5H         LINE#         128
  C:18D9H         LINE#         129
  C:18DDH         LINE#         130
  C:18E1H         LINE#         131
  C:18E3H         LINE#         132
  C:18E5H         LINE#         135
  C:18F1H         LINE#         136
  C:18F1H         LINE#         137
  C:18F1H         LINE#         138
  C:18F1H         LINE#         139
  C:18F3H         LINE#         141
  C:18F3H         LINE#         142
  C:18FDH         LINE#         143
  C:18FFH         LINE#         145
  C:18FFH         LINE#         146
  C:191BH         LINE#         147
  C:1928H         LINE#         148
  C:1944H         LINE#         149
  C:1944H         LINE#         151
  C:1944H         LINE#         152
  C:1944H         LINE#         154
  C:1944H         LINE#         155
  -------         ENDPROC       _DATAUPDATE
  -------         ENDMOD        MAIN

  -------         MODULE        PUBLIC
  C:0000H         SYMBOL        _ICE_DUMMY_
  C:221AH         PUBLIC        _Memory_Clr
  D:0080H         PUBLIC        P0
  D:0090H         PUBLIC        P1
  D:00A0H         PUBLIC        P2
  D:00B0H         PUBLIC        P3
  D:00C0H         PUBLIC        P4
  D:00C8H         PUBLIC        P5
  D:00E8H         PUBLIC        P6
  D:00F8H         PUBLIC        P7
  D:00A8H         PUBLIC        IE
  D:00B8H         PUBLIC        IP
  D:00D8H         PUBLIC        CCON
  C:22DAH         SYMBOL        _Delay_ms
  D:0098H         PUBLIC        SCON
  D:0088H         PUBLIC        TCON
BL51 BANKED LINKER/LOCATER V6.22.2.0                                                  02/03/2023  08:32:14  PAGE 8


  C:0003H         SYMBOL        SPI_delay
  D:0066H         PUBLIC        Public
  D:00D0H         PUBLIC        PSW
  -------         PROC          _DELAY_MS
  D:0006H         SYMBOL        ms
  -------         DO            
  D:0004H         SYMBOL        i
  -------         ENDDO         
  C:22DAH         LINE#         26
  C:22DAH         LINE#         27
  C:22DAH         LINE#         29
  C:22DAH         LINE#         30
  C:22DEH         LINE#         31
  C:22E7H         LINE#         32
  C:22F0H         LINE#         34
  -------         ENDPROC       _DELAY_MS
  -------         PROC          SPI_DELAY
  -------         DO            
  D:0007H         SYMBOL        i
  -------         ENDDO         
  C:0003H         LINE#         36
  C:0003H         LINE#         37
  C:0003H         LINE#         41
  C:0004H         LINE#         42
  C:0005H         LINE#         43
  C:0006H         LINE#         44
  C:0008H         LINE#         45
  C:000AH         LINE#         48
  -------         ENDPROC       SPI_DELAY
  -------         PROC          _MEMORY_CLR
  D:0022H         SYMBOL        pucBuffer
  D:0004H         SYMBOL        LEN
  -------         DO            
  D:0006H         SYMBOL        i
  -------         ENDDO         
  C:221AH         LINE#         57
  C:2220H         LINE#         58
  C:2220H         LINE#         61
  C:222AH         LINE#         62
  C:222AH         LINE#         63
  C:2238H         LINE#         64
  C:223FH         LINE#         65
  -------         ENDPROC       _MEMORY_CLR
  -------         ENDMOD        PUBLIC

  -------         MODULE        RELAYS
  C:0000H         SYMBOL        _ICE_DUMMY_
  D:0080H         PUBLIC        P0
  D:0090H         PUBLIC        P1
  D:00A0H         PUBLIC        P2
  D:00B0H         PUBLIC        P3
  D:00C0H         PUBLIC        P4
  D:00C8H         PUBLIC        P5
  D:00E8H         PUBLIC        P6
  D:00F8H         PUBLIC        P7
  D:00A8H         PUBLIC        IE
  D:00B8H         PUBLIC        IP
BL51 BANKED LINKER/LOCATER V6.22.2.0                                                  02/03/2023  08:32:14  PAGE 9


  D:00D8H         PUBLIC        CCON
  D:0098H         PUBLIC        SCON
  D:0088H         PUBLIC        TCON
  I:00BFH         PUBLIC        JDQ_Run
  D:00D0H         PUBLIC        PSW
  -------         ENDMOD        RELAYS

  -------         MODULE        SYS_INIT
  C:0000H         SYMBOL        _ICE_DUMMY_
  D:0092H         PUBLIC        P1M0
  D:0093H         PUBLIC        P0M1
  D:0096H         PUBLIC        P2M0
  D:0091H         PUBLIC        P1M1
  D:0080H         PUBLIC        P0
  D:00B2H         PUBLIC        P3M0
  D:0095H         PUBLIC        P2M1
  D:0090H         PUBLIC        P1
  D:00B4H         PUBLIC        P4M0
  D:00B1H         PUBLIC        P3M1
  D:00A0H         PUBLIC        P2
  D:00CAH         PUBLIC        P5M0
  D:00B3H         PUBLIC        P4M1
  D:00B0H         PUBLIC        P3
  D:00C9H         PUBLIC        P5M1
  D:00C0H         PUBLIC        P4
  D:00C8H         PUBLIC        P5
  B:00A8H.7       PUBLIC        EA
  D:00E8H         PUBLIC        P6
  D:00F8H         PUBLIC        P7
  D:00A8H         PUBLIC        IE
  B:00A8H.4       PUBLIC        ES
  D:00B8H         PUBLIC        IP
  D:00D8H         PUBLIC        CCON
  C:2302H         SYMBOL        IE_init
  C:203FH         SYMBOL        GPIO_Init
  D:006FH         PUBLIC        Hardware_Init
  B:0080H.1       PUBLIC        P01
  B:0080H.2       PUBLIC        P02
  B:0090H.2       PUBLIC        P12
  B:0080H.3       PUBLIC        P03
  D:0098H         PUBLIC        SCON
  B:0090H.3       PUBLIC        P13
  B:0080H.4       PUBLIC        P04
  D:0088H         PUBLIC        TCON
  B:0090H.4       PUBLIC        P14
  B:0080H.5       PUBLIC        P05
  B:0090H.5       PUBLIC        P15
  B:0080H.6       PUBLIC        P06
  C:20C3H         SYMBOL        Sys_Init
  B:0090H.6       PUBLIC        P16
  B:0080H.7       PUBLIC        P07
  B:00A0H.6       PUBLIC        P26
  B:0090H.7       PUBLIC        P17
  B:00A0H.7       PUBLIC        P27
  B:00C0H.7       PUBLIC        P47
  D:00AFH         PUBLIC        IE2
  B:00A8H.1       PUBLIC        ET0
BL51 BANKED LINKER/LOCATER V6.22.2.0                                                  02/03/2023  08:32:14  PAGE 10


  D:00D0H         PUBLIC        PSW
  D:0094H         PUBLIC        P0M0
  -------         PROC          GPIO_INIT
  C:203FH         LINE#         28
  C:203FH         LINE#         29
  C:203FH         LINE#         51
  C:2042H         LINE#         52
  C:2045H         LINE#         64
  C:2048H         LINE#         65
  C:204BH         LINE#         75
  C:204EH         LINE#         76
  C:2051H         LINE#         83
  C:2053H         LINE#         84
  C:2056H         LINE#         98
  C:2059H         LINE#         99
  C:205BH         LINE#         107
  C:205EH         LINE#         108
  C:2061H         LINE#         110
  C:2063H         LINE#         111
  C:2065H         LINE#         113
  C:2067H         LINE#         114
  C:2069H         LINE#         115
  C:206BH         LINE#         116
  C:206DH         LINE#         117
  C:206FH         LINE#         118
  C:2071H         LINE#         119
  C:2073H         LINE#         120
  C:2075H         LINE#         123
  C:2077H         LINE#         124
  C:2079H         LINE#         125
  C:207BH         LINE#         126
  C:207DH         LINE#         127
  C:207FH         LINE#         128
  C:2081H         LINE#         133
  -------         ENDPROC       GPIO_INIT
  -------         PROC          IE_INIT
  C:2302H         LINE#         141
  C:2302H         LINE#         142
  C:2302H         LINE#         145
  C:2304H         LINE#         147
  C:2306H         LINE#         148
  C:2309H         LINE#         150
  C:230BH         LINE#         152
  -------         ENDPROC       IE_INIT
  -------         PROC          SYS_INIT
  C:20C3H         LINE#         162
  C:20C3H         LINE#         163
  C:20C3H         LINE#         164
  C:20CAH         LINE#         165
  C:20D7H         LINE#         167
  C:20DEH         LINE#         168
  C:20E5H         LINE#         169
  C:20F0H         LINE#         170
  C:20FBH         LINE#         172
  C:20FDH         LINE#         173
  -------         ENDPROC       SYS_INIT
  -------         ENDMOD        SYS_INIT
BL51 BANKED LINKER/LOCATER V6.22.2.0                                                  02/03/2023  08:32:14  PAGE 11



  -------         MODULE        UART1
  C:0000H         SYMBOL        _ICE_DUMMY_
  D:0080H         PUBLIC        P0
  D:0090H         PUBLIC        P1
  D:00A0H         PUBLIC        P2
  D:00B0H         PUBLIC        P3
  D:00C0H         PUBLIC        P4
  D:00C8H         PUBLIC        P5
  D:00E8H         PUBLIC        P6
  D:00F8H         PUBLIC        P7
  C:1EB9H         SYMBOL        _SendString
  C:230CH         SYMBOL        _SendData
  D:00A8H         PUBLIC        IE
  C:1C62H         SYMBOL        _SendArray
  C:2082H         SYMBOL        Init
  D:00B8H         PUBLIC        IP
  B:0098H.0       PUBLIC        RI
  B:0098H.1       PUBLIC        TI
  C:1FFBH         PUBLIC        UART1_isr
  X:006EH         SYMBOL        ucSend_Buffer
  D:00D8H         PUBLIC        CCON
  D:0099H         PUBLIC        SBUF
  X:0082H         SYMBOL        ucRec_Buffer
  D:0098H         PUBLIC        SCON
  D:0089H         PUBLIC        TMOD
  D:0088H         PUBLIC        TCON
  D:008EH         PUBLIC        AUXR
  C:0021H         SYMBOL        RS485_Set_SendMode
  B:00A8H.3       PUBLIC        ET1
  D:008DH         PUBLIC        TH1
  D:008BH         PUBLIC        TL1
  C:1DA1H         SYMBOL        Protocol
  B:0088H.6       PUBLIC        TR1
  C:0022H         SYMBOL        RS485_Set_RecMode
  B:0098H.4       PUBLIC        REN
  I:007FH         PUBLIC        UART1
  D:00D0H         PUBLIC        PSW
  C:000EH         PUBLIC        _putchar
  -------         PROC          INIT
  C:2082H         LINE#         59
  C:2082H         LINE#         60
  C:2082H         LINE#         66
  C:2085H         LINE#         67
  C:2088H         LINE#         68
  C:208BH         LINE#         69
  C:208EH         LINE#         71
  C:209EH         LINE#         72
  C:209EH         LINE#         73
  C:20A6H         LINE#         74
  C:20A6H         LINE#         75
  C:20AEH         LINE#         76
  C:20B6H         LINE#         77
  C:20BCH         LINE#         78
  C:20BCH         LINE#         79
  C:20BEH         LINE#         80
  C:20C0H         LINE#         82
BL51 BANKED LINKER/LOCATER V6.22.2.0                                                  02/03/2023  08:32:14  PAGE 12


  C:20C2H         LINE#         83
  -------         ENDPROC       INIT
  -------         PROC          _SENDDATA
  D:0007H         SYMBOL        dat
  C:230CH         LINE#         91
  C:230CH         LINE#         92
  C:230CH         LINE#         93
  C:2311H         LINE#         94
  C:2313H         LINE#         95
  C:2315H         LINE#         96
  -------         ENDPROC       _SENDDATA
  -------         PROC          _SENDARRAY
  D:0022H         SYMBOL        p_Arr
  D:0025H         SYMBOL        LEN
  -------         DO            
  D:0027H         SYMBOL        i
  -------         ENDDO         
  C:1C62H         LINE#         104
  C:1C6CH         LINE#         105
  C:1C6CH         LINE#         106
  C:1C71H         LINE#         108
  C:1C7CH         LINE#         110
  C:1C8CH         LINE#         111
  C:1C8CH         LINE#         112
  C:1CAAH         LINE#         113
  C:1CB4H         LINE#         114
  C:1CB9H         LINE#         115
  C:1CC5H         LINE#         117
  -------         ENDPROC       _SENDARRAY
  -------         PROC          _SENDSTRING
  D:0022H         SYMBOL        p_Str
  C:1EB9H         LINE#         127
  C:1EBFH         LINE#         128
  C:1EBFH         LINE#         129
  C:1ECAH         LINE#         131
  C:1ED5H         LINE#         132
  C:1ED5H         LINE#         133
  C:1EF1H         LINE#         134
  C:1EF3H         LINE#         135
  C:1EF8H         LINE#         136
  C:1F04H         LINE#         138
  -------         ENDPROC       _SENDSTRING
  -------         PROC          RS485_SET_SENDMODE
  C:0021H         LINE#         147
  C:0021H         LINE#         148
  C:0021H         LINE#         151
  -------         ENDPROC       RS485_SET_SENDMODE
  -------         PROC          RS485_SET_RECMODE
  C:0022H         LINE#         159
  C:0022H         LINE#         160
  C:0022H         LINE#         163
  -------         ENDPROC       RS485_SET_RECMODE
  -------         PROC          _PUTCHAR
  D:0044H         SYMBOL        c
  C:000EH         LINE#         168
  C:0010H         LINE#         169
  C:0010H         LINE#         170
BL51 BANKED LINKER/LOCATER V6.22.2.0                                                  02/03/2023  08:32:14  PAGE 13


  C:001EH         LINE#         171
  C:0020H         LINE#         172
  -------         ENDPROC       _PUTCHAR
  -------         PROC          UART1_ISR
  C:1FFBH         LINE#         182
  C:2008H         LINE#         184
  C:200BH         LINE#         185
  C:200BH         LINE#         186
  C:200DH         LINE#         188
  C:2019H         LINE#         189
  C:2019H         LINE#         190
  C:2027H         LINE#         191
  C:2027H         LINE#         193
  C:202BH         LINE#         194
  C:202BH         LINE#         196
  C:202EH         LINE#         197
  C:202EH         LINE#         198
  C:2030H         LINE#         199
  C:2034H         LINE#         200
  C:2034H         LINE#         201
  -------         ENDPROC       UART1_ISR
  -------         PROC          PROTOCOL
  C:1DA1H         LINE#         211
  C:1DA1H         LINE#         212
  C:1DA1H         LINE#         213
  C:1DA8H         LINE#         214
  C:1DA8H         LINE#         218
  C:1DAEH         LINE#         219
  C:1DAEH         LINE#         220
  C:1DB3H         LINE#         221
  C:1DBFH         LINE#         222
  C:1DBFH         LINE#         224
  C:1DCAH         LINE#         225
  C:1DCAH         LINE#         226
  C:1DCAH         LINE#         229
  C:1DE3H         LINE#         230
  C:1DE3H         LINE#         233
  C:1DF8H         LINE#         236
  C:1DFCH         LINE#         237
  C:1DFEH         LINE#         238
  C:1DFEH         LINE#         239
  -------         ENDPROC       PROTOCOL
  -------         ENDMOD        UART1

  -------         MODULE        TIMER0
  C:0000H         SYMBOL        _ICE_DUMMY_
  D:0080H         PUBLIC        P0
  D:0090H         PUBLIC        P1
  D:00A0H         PUBLIC        P2
  D:00B0H         PUBLIC        P3
  D:00C0H         PUBLIC        P4
  D:00C8H         PUBLIC        P5
  D:00E8H         PUBLIC        P6
  D:00F8H         PUBLIC        P7
  D:00A8H         PUBLIC        IE
  D:00B8H         PUBLIC        IP
  D:00D8H         PUBLIC        CCON
BL51 BANKED LINKER/LOCATER V6.22.2.0                                                  02/03/2023  08:32:14  PAGE 14


  C:22F1H         SYMBOL        Timer0_Init
  D:0008H         PUBLIC        Timer0
  D:0098H         PUBLIC        SCON
  D:0089H         PUBLIC        TMOD
  D:0088H         PUBLIC        TCON
  D:008EH         PUBLIC        AUXR
  B:0088H.5       PUBLIC        TF0
  D:008CH         PUBLIC        TH0
  D:008AH         PUBLIC        TL0
  B:0088H.4       PUBLIC        TR0
  C:1E5DH         PUBLIC        Timer0_isr
  D:00D0H         PUBLIC        PSW
  -------         PROC          TIMER0_INIT
  C:22F1H         LINE#         32
  C:22F1H         LINE#         33
  C:22F1H         LINE#         35
  C:22F4H         LINE#         36
  C:22F7H         LINE#         37
  C:22FAH         LINE#         38
  C:22FDH         LINE#         39
  C:22FFH         LINE#         40
  C:2301H         LINE#         42
  -------         ENDPROC       TIMER0_INIT
  -------         PROC          TIMER0_ISR
  C:1E5DH         LINE#         51
  C:1E61H         LINE#         54
  C:1E72H         LINE#         55
  C:1E72H         LINE#         56
  C:1E78H         LINE#         57
  C:1E78H         LINE#         58
  C:1E80H         LINE#         60
  C:1E86H         LINE#         61
  C:1E86H         LINE#         62
  C:1E8EH         LINE#         63
  C:1E8EH         LINE#         64
  C:1E96H         LINE#         65
  C:1E9EH         LINE#         66
  C:1EA6H         LINE#         69
  C:1EACH         LINE#         70
  C:1EACH         LINE#         71
  C:1EB4H         LINE#         72
  C:1EB4H         LINE#         75
  -------         ENDPROC       TIMER0_ISR
  -------         ENDMOD        TIMER0

  -------         MODULE        REMOTECONTROL
  C:0000H         SYMBOL        _ICE_DUMMY_
  D:0080H         PUBLIC        P0
  D:0090H         PUBLIC        P1
  D:00A0H         PUBLIC        P2
  D:00B0H         PUBLIC        P3
  D:00C0H         PUBLIC        P4
  D:00C8H         PUBLIC        P5
  D:00E8H         PUBLIC        P6
  D:00F8H         PUBLIC        P7
  D:00A8H         PUBLIC        IE
  D:00B8H         PUBLIC        IP
BL51 BANKED LINKER/LOCATER V6.22.2.0                                                  02/03/2023  08:32:14  PAGE 15


  D:00D8H         PUBLIC        CCON
  B:00A0H.1       PUBLIC        P21
  B:0090H.2       PUBLIC        P12
  B:0080H.3       PUBLIC        P03
  D:0098H         PUBLIC        SCON
  B:00A0H.2       PUBLIC        P22
  B:0090H.3       PUBLIC        P13
  D:0088H         PUBLIC        TCON
  B:00A0H.3       PUBLIC        P23
  B:00A0H.4       PUBLIC        P24
  B:0080H.6       PUBLIC        P06
  B:0080H.7       PUBLIC        P07
  B:0090H.7       PUBLIC        P17
  D:0078H         PUBLIC        RemoteControl_1
  C:1A06H         SYMBOL        QKEY_StandBy_Flag_Detect
  C:1BD7H         SYMBOL        QKEY_Detect
  D:00D0H         PUBLIC        PSW
  -------         PROC          QKEY_DETECT
  C:1BD7H         LINE#         25
  C:1BD7H         LINE#         26
  C:1BD7H         LINE#         28
  C:1BE3H         LINE#         29
  C:1BE3H         LINE#         31
  C:1BF0H         LINE#         33
  C:1BF3H         LINE#         34
  C:1BF3H         LINE#         35
  C:1BF6H         LINE#         39
  C:1BFAH         LINE#         40
  C:1BFCH         LINE#         41
  C:1BFEH         LINE#         42
  C:1C00H         LINE#         43
  C:1C03H         LINE#         44
  C:1C03H         LINE#         45
  C:1C10H         LINE#         46
  C:1C12H         LINE#         47
  C:1C14H         LINE#         49
  C:1C16H         LINE#         50
  C:1C18H         LINE#         51
  C:1C1CH         LINE#         54
  C:1C1CH         LINE#         56
  C:1C1FH         LINE#         57
  C:1C1FH         LINE#         58
  C:1C22H         LINE#         62
  C:1C26H         LINE#         64
  C:1C28H         LINE#         65
  C:1C2AH         LINE#         66
  C:1C2CH         LINE#         67
  C:1C2FH         LINE#         68
  C:1C2FH         LINE#         69
  C:1C3CH         LINE#         70
  C:1C3EH         LINE#         72
  C:1C40H         LINE#         73
  C:1C42H         LINE#         74
  C:1C44H         LINE#         75
  C:1C48H         LINE#         78
  C:1C48H         LINE#         91
  C:1C4BH         LINE#         92
BL51 BANKED LINKER/LOCATER V6.22.2.0                                                  02/03/2023  08:32:14  PAGE 16


  C:1C4BH         LINE#         95
  C:1C4EH         LINE#         96
  C:1C52H         LINE#         97
  C:1C54H         LINE#         98
  C:1C56H         LINE#         100
  C:1C58H         LINE#         101
  C:1C5BH         LINE#         102
  C:1C5EH         LINE#         104
  C:1C61H         LINE#         105
  C:1C61H         LINE#         107
  C:1C61H         LINE#         108
  -------         ENDPROC       QKEY_DETECT
  -------         PROC          QKEY_STANDBY_FLAG_DETECT
  C:1A06H         LINE#         112
  C:1A06H         LINE#         113
  C:1A06H         LINE#         115
  C:1A15H         LINE#         116
  C:1A15H         LINE#         118
  C:1A22H         LINE#         119
  C:1A25H         LINE#         120
  C:1A25H         LINE#         121
  C:1A28H         LINE#         125
  C:1A2CH         LINE#         126
  C:1A2EH         LINE#         127
  C:1A30H         LINE#         128
  C:1A32H         LINE#         131
  C:1A35H         LINE#         132
  C:1A35H         LINE#         133
  C:1A42H         LINE#         134
  C:1A44H         LINE#         136
  C:1A46H         LINE#         137
  C:1A48H         LINE#         138
  C:1A4AH         LINE#         139
  C:1A4EH         LINE#         142
  C:1A4EH         LINE#         144
  C:1A51H         LINE#         145
  C:1A51H         LINE#         146
  C:1A54H         LINE#         148
  C:1A58H         LINE#         149
  C:1A5AH         LINE#         150
  C:1A5CH         LINE#         151
  C:1A5EH         LINE#         153
  C:1A61H         LINE#         154
  C:1A61H         LINE#         155
  C:1A6EH         LINE#         156
  C:1A70H         LINE#         158
  C:1A72H         LINE#         159
  C:1A74H         LINE#         160
  C:1A76H         LINE#         161
  C:1A7AH         LINE#         166
  C:1A7AH         LINE#         168
  C:1A7DH         LINE#         169
  C:1A7DH         LINE#         171
  C:1A80H         LINE#         172
  C:1A84H         LINE#         173
  C:1A87H         LINE#         174
  C:1A8AH         LINE#         175
BL51 BANKED LINKER/LOCATER V6.22.2.0                                                  02/03/2023  08:32:14  PAGE 17


  C:1A8DH         LINE#         176
  C:1A94H         LINE#         177
  C:1A94H         LINE#         179
  C:1A97H         LINE#         180
  C:1A97H         LINE#         181
  C:1A9AH         LINE#         183
  C:1A9CH         LINE#         184
  C:1A9EH         LINE#         185
  C:1AA0H         LINE#         187
  C:1AA4H         LINE#         188
  C:1AA6H         LINE#         189
  C:1AACH         LINE#         199
  C:1AACH         LINE#         200
  C:1AACH         LINE#         201
  -------         ENDPROC       QKEY_STANDBY_FLAG_DETECT
  -------         ENDMOD        REMOTECONTROL

  -------         MODULE        TRIGGER
  C:0000H         SYMBOL        _ICE_DUMMY_
  D:0080H         PUBLIC        P0
  D:0090H         PUBLIC        P1
  D:00A0H         PUBLIC        P2
  D:00B0H         PUBLIC        P3
  D:00C0H         PUBLIC        P4
  D:00C8H         PUBLIC        P5
  D:00E8H         PUBLIC        P6
  D:00F8H         PUBLIC        P7
  D:00A8H         PUBLIC        IE
  D:00B8H         PUBLIC        IP
  C:1449H         SYMBOL        Trigger_Control
  D:00D8H         PUBLIC        CCON
  B:0080H.1       PUBLIC        P01
  B:0080H.2       PUBLIC        P02
  B:0090H.2       PUBLIC        P12
  D:0098H         PUBLIC        SCON
  B:0090H.3       PUBLIC        P13
  D:0088H         PUBLIC        TCON
  B:0090H.4       PUBLIC        P14
  B:0090H.5       PUBLIC        P15
  B:0080H.6       PUBLIC        P06
  B:0090H.6       PUBLIC        P16
  B:0080H.7       PUBLIC        P07
  B:0090H.7       PUBLIC        P17
  B:00C0H.7       PUBLIC        P47
  D:001AH         PUBLIC        Trigger_1
  C:2334H         PUBLIC        close_device
  D:00D0H         PUBLIC        PSW
  -------         PROC          TRIGGER_CONTROL
  C:1449H         LINE#         33
  C:1449H         LINE#         34
  C:1449H         LINE#         37
  C:1450H         LINE#         38
  C:1450H         LINE#         40
  C:1491H         LINE#         41
  C:1491H         LINE#         42
  C:1491H         LINE#         43
  C:1495H         LINE#         45
BL51 BANKED LINKER/LOCATER V6.22.2.0                                                  02/03/2023  08:32:14  PAGE 18


  C:1499H         LINE#         46
  C:1499H         LINE#         47
  C:149BH         LINE#         48
  C:149DH         LINE#         49
  C:14A0H         LINE#         51
  C:14A0H         LINE#         52
  C:14A2H         LINE#         53
  C:14A4H         LINE#         54
  C:14A8H         LINE#         55
  C:14A8H         LINE#         57
  C:14A8H         LINE#         58
  C:14ABH         LINE#         60
  C:14ABH         LINE#         61
  C:14AFH         LINE#         63
  C:14B3H         LINE#         64
  C:14B3H         LINE#         65
  C:14B5H         LINE#         66
  C:14B7H         LINE#         67
  C:14B9H         LINE#         69
  C:14B9H         LINE#         70
  C:14BBH         LINE#         71
  C:14BDH         LINE#         72
  C:14C1H         LINE#         73
  C:14C1H         LINE#         75
  C:14C1H         LINE#         76
  C:14C4H         LINE#         78
  C:14C4H         LINE#         84
  C:14C4H         LINE#         87
  C:14C4H         LINE#         88
  C:14C7H         LINE#         90
  C:14C7H         LINE#         97
  C:14C7H         LINE#         98
  C:14CBH         LINE#         100
  C:14CDH         LINE#         101
  C:14D0H         LINE#         103
  C:14D0H         LINE#         104
  C:14D0H         LINE#         106
  C:14D0H         LINE#         107
  C:14D5H         LINE#         108
  C:14D5H         LINE#         109
  C:14D7H         LINE#         110
  C:14D9H         LINE#         111
  C:14DBH         LINE#         113
  C:14DBH         LINE#         114
  C:14DDH         LINE#         115
  C:14DFH         LINE#         116
  C:14DFH         LINE#         118
  C:14DFH         LINE#         119
  C:14E2H         LINE#         121
  C:14E2H         LINE#         122
  C:14E7H         LINE#         123
  C:14E7H         LINE#         124
  C:14E9H         LINE#         125
  C:14EBH         LINE#         126
  C:14EDH         LINE#         128
  C:14EDH         LINE#         129
  C:14EFH         LINE#         130
BL51 BANKED LINKER/LOCATER V6.22.2.0                                                  02/03/2023  08:32:14  PAGE 19


  C:14F1H         LINE#         131
  C:14F1H         LINE#         133
  C:14F1H         LINE#         134
  C:14F4H         LINE#         136
  C:14F4H         LINE#         137
  C:14F9H         LINE#         138
  C:14F9H         LINE#         139
  C:14FBH         LINE#         141
  C:14FDH         LINE#         143
  C:14FDH         LINE#         144
  C:14FFH         LINE#         146
  C:14FFH         LINE#         148
  C:14FFH         LINE#         149
  C:1502H         LINE#         151
  C:1502H         LINE#         152
  C:1507H         LINE#         153
  C:1507H         LINE#         155
  C:150CH         LINE#         156
  C:150EH         LINE#         157
  C:1510H         LINE#         158
  C:1512H         LINE#         159
  C:1514H         LINE#         161
  C:1517H         LINE#         165
  C:1519H         LINE#         167
  C:1519H         LINE#         168
  C:151BH         LINE#         169
  C:151DH         LINE#         170
  C:151FH         LINE#         171
  C:1521H         LINE#         174
  C:1521H         LINE#         176
  C:1521H         LINE#         177
  C:1523H         LINE#         179
  C:1523H         LINE#         180
  C:1527H         LINE#         181
  C:1529H         LINE#         182
  C:152BH         LINE#         183
  C:152DH         LINE#         184
  C:152FH         LINE#         185
  C:1531H         LINE#         186
  C:1533H         LINE#         188
  C:1533H         LINE#         192
  C:1533H         LINE#         193
  C:1538H         LINE#         194
  C:1538H         LINE#         195
  C:153AH         LINE#         197
  C:153CH         LINE#         199
  C:153EH         LINE#         203
  C:1542H         LINE#         205
  C:1545H         LINE#         206
  C:1548H         LINE#         207
  C:154AH         LINE#         209
  C:154AH         LINE#         212
  C:154CH         LINE#         213
  C:154EH         LINE#         214
  C:1550H         LINE#         215
  C:1552H         LINE#         216
  C:1554H         LINE#         217
BL51 BANKED LINKER/LOCATER V6.22.2.0                                                  02/03/2023  08:32:14  PAGE 20


  C:1556H         LINE#         218
  C:1559H         LINE#         219
  C:155BH         LINE#         220
  C:155FH         LINE#         221
  C:157BH         LINE#         222
  C:1580H         LINE#         223
  C:1583H         LINE#         224
  C:1585H         LINE#         225
  C:1588H         LINE#         226
  C:1588H         LINE#         227
  C:158BH         LINE#         228
  C:158BH         LINE#         229
  C:158BH         LINE#         231
  C:158BH         LINE#         232
  C:158BH         LINE#         233
  C:158BH         LINE#         234
  C:158BH         LINE#         235
  C:158BH         LINE#         237
  C:1591H         LINE#         238
  C:1591H         LINE#         239
  C:1596H         LINE#         240
  C:1596H         LINE#         241
  C:1596H         LINE#         242
  -------         ENDPROC       TRIGGER_CONTROL
  -------         ENDMOD        TRIGGER

  -------         MODULE        MAX6675
  C:0000H         SYMBOL        _ICE_DUMMY_
  D:0080H         PUBLIC        P0
  D:0090H         PUBLIC        P1
  D:00A0H         PUBLIC        P2
  D:00B0H         PUBLIC        P3
  D:00C0H         PUBLIC        P4
  D:00C8H         PUBLIC        P5
  D:00E8H         PUBLIC        P6
  D:00F8H         PUBLIC        P7
  D:0057H         PUBLIC        temperature_t
  D:00A8H         PUBLIC        IE
  D:00B8H         PUBLIC        IP
  D:00D8H         PUBLIC        CCON
  D:0098H         PUBLIC        SCON
  D:0088H         PUBLIC        TCON
  C:2240H         SYMBOL        max6675_readTemperature
  B:00A0H.5       PUBLIC        P25
  B:00A0H.6       PUBLIC        P26
  B:00A0H.7       PUBLIC        P27
  C:2136H         SYMBOL        _max6675_readWriteByte
  C:1F65H         SYMBOL        max6675_readRawValue
  B:0088H.4       PUBLIC        TR0
  D:00D0H         PUBLIC        PSW
  -------         PROC          _MAX6675_READWRITEBYTE
  D:0024H         SYMBOL        txData
  -------         DO            
  D:0025H         SYMBOL        temp
  D:0026H         SYMBOL        dat
  -------         ENDDO         
  C:2136H         LINE#         41
BL51 BANKED LINKER/LOCATER V6.22.2.0                                                  02/03/2023  08:32:14  PAGE 21


  C:2138H         LINE#         42
  C:2138H         LINE#         43
  C:213BH         LINE#         44
  C:213DH         LINE#         45
  C:2144H         LINE#         46
  C:2144H         LINE#         47
  C:2146H         LINE#         48
  C:214DH         LINE#         49
  C:214FH         LINE#         50
  C:2156H         LINE#         51
  C:215BH         LINE#         52
  C:215BH         LINE#         53
  C:215DH         LINE#         54
  C:215FH         LINE#         56
  C:215FH         LINE#         57
  C:2162H         LINE#         58
  C:2162H         LINE#         59
  C:216AH         LINE#         60
  C:216CH         LINE#         62
  -------         ENDPROC       _MAX6675_READWRITEBYTE
  -------         PROC          MAX6675_READRAWVALUE
  -------         DO            
  D:0022H         SYMBOL        tmp
  -------         ENDDO         
  C:1F65H         LINE#         64
  C:1F65H         LINE#         65
  C:1F65H         LINE#         66
  C:1F6AH         LINE#         69
  C:1F6CH         LINE#         71
  C:1F6EH         LINE#         72
  C:1F78H         LINE#         73
  C:1F7FH         LINE#         74
  C:1F87H         LINE#         77
  C:1F89H         LINE#         78
  C:1F8EH         LINE#         79
  C:1F8EH         LINE#         82
  C:1F94H         LINE#         84
  C:1F96H         LINE#         86
  C:1F96H         LINE#         87
  C:1FA7H         LINE#         88
  C:1FA7H         LINE#         89
  C:1FAAH         LINE#         90
  C:1FACH         LINE#         91
  C:1FB0H         LINE#         92
  -------         ENDPROC       MAX6675_READRAWVALUE
  -------         PROC          MAX6675_READTEMPERATURE
  C:2240H         LINE#         94
  C:2240H         LINE#         95
  C:2240H         LINE#         96
  -------         ENDPROC       MAX6675_READTEMPERATURE
  -------         ENDMOD        MAX6675

  -------         MODULE        MODBUS
  C:0000H         SYMBOL        _ICE_DUMMY_
  D:0080H         PUBLIC        P0
  D:0090H         PUBLIC        P1
  C:16A9H         SYMBOL        _Protocol_Analysis
BL51 BANKED LINKER/LOCATER V6.22.2.0                                                  02/03/2023  08:32:14  PAGE 22


  D:00A0H         PUBLIC        P2
  D:00B0H         PUBLIC        P3
  D:00C0H         PUBLIC        P4
  D:00C8H         PUBLIC        P5
  D:00E8H         PUBLIC        P6
  D:00F8H         PUBLIC        P7
  C:0F6AH         SYMBOL        _Modbus_Wrtie_Register
  D:00A8H         PUBLIC        IE
  D:00B8H         PUBLIC        IP
  C:21C6H         SYMBOL        _Modbus_Boot_The_Device
  D:00D8H         PUBLIC        CCON
  C:1AADH         SYMBOL        _Modbus_Use_The_Device
  D:0098H         PUBLIC        SCON
  D:0088H         PUBLIC        TCON
  C:15A2H         SYMBOL        _Modbus_Write_Imei
  X:00AAH         PUBLIC        Modbus
  C:0D6DH         SYMBOL        _Modbus_Read_Register
  C:21F0H         SYMBOL        _Modbus_Heat_Ignition
  D:00D0H         PUBLIC        PSW
  -------         PROC          _PROTOCOL_ANALYSIS
  D:0001H         SYMBOL        UART
  -------         DO            
  X:00B1H         SYMBOL        COM
  D:0022H         SYMBOL        i
  -------         ENDDO         
  C:16A9H         LINE#         43
  C:16A9H         LINE#         44
  C:16A9H         LINE#         45
  C:16B4H         LINE#         46
  C:16B7H         LINE#         49
  C:16FDH         LINE#         50
  C:16FDH         LINE#         52
  C:1718H         LINE#         53
  C:1718H         LINE#         54
  C:1718H         LINE#         55
  C:1726H         LINE#         56
  C:1728H         LINE#         58
  C:1728H         LINE#         59
  C:1736H         LINE#         60
  C:1738H         LINE#         62
  C:1738H         LINE#         63
  C:173BH         LINE#         64
  C:173DH         LINE#         66
  C:173DH         LINE#         67
  C:174BH         LINE#         68
  C:174DH         LINE#         70
  C:174DH         LINE#         71
  C:175BH         LINE#         72
  C:175DH         LINE#         74
  C:175DH         LINE#         75
  C:176BH         LINE#         77
  C:176BH         LINE#         78
  C:176BH         LINE#         79
  C:176BH         LINE#         80
  C:176BH         LINE#         81
  C:179CH         LINE#         82
  C:179CH         LINE#         83
BL51 BANKED LINKER/LOCATER V6.22.2.0                                                  02/03/2023  08:32:14  PAGE 23


  C:179FH         LINE#         85
  C:179FH         LINE#         86
  -------         ENDPROC       _PROTOCOL_ANALYSIS
  -------         PROC          _MODBUS_READ_REGISTER
  D:0001H         SYMBOL        UART
  -------         DO            
  X:00B4H         SYMBOL        COM
  -------         ENDDO         
  C:0D6DH         LINE#         95
  C:0D6DH         LINE#         96
  C:0D6DH         LINE#         97
  C:0D78H         LINE#         101
  C:0D88H         LINE#         102
  C:0DA6H         LINE#         105
  C:0DBFH         LINE#         108
  C:0DD8H         LINE#         111
  C:0DF0H         LINE#         112
  C:0E0AH         LINE#         115
  C:0E22H         LINE#         116
  C:0E3EH         LINE#         117
  C:0E5AH         LINE#         118
  C:0E76H         LINE#         119
  C:0E92H         LINE#         120
  C:0EAEH         LINE#         121
  C:0ECAH         LINE#         122
  C:0EE6H         LINE#         123
  C:0F02H         LINE#         124
  C:0F1EH         LINE#         125
  C:0F3AH         LINE#         126
  C:0F52H         LINE#         127
  -------         ENDPROC       _MODBUS_READ_REGISTER
  -------         PROC          _MODBUS_WRTIE_REGISTER
  D:0001H         SYMBOL        UART
  -------         DO            
  X:00B4H         SYMBOL        COM
  D:0023H         SYMBOL        i
  D:0024H         SYMBOL        high
  D:0026H         SYMBOL        low
  -------         ENDDO         
  C:0F6AH         LINE#         142
  C:0F6AH         LINE#         143
  C:0F6AH         LINE#         144
  C:0F75H         LINE#         145
  C:0F78H         LINE#         146
  C:0F7CH         LINE#         147
  C:0F80H         LINE#         157
  C:0FDEH         LINE#         158
  C:0FDEH         LINE#         159
  C:0FDEH         LINE#         160
  C:0FE9H         LINE#         161
  C:0FECH         LINE#         162
  C:0FEDH         LINE#         164
  C:0FEDH         LINE#         165
  C:0FF8H         LINE#         166
  C:0FFBH         LINE#         167
  C:0FFCH         LINE#         169
  C:0FFCH         LINE#         170
BL51 BANKED LINKER/LOCATER V6.22.2.0                                                  02/03/2023  08:32:14  PAGE 24


  C:1007H         LINE#         171
  C:100AH         LINE#         172
  C:100BH         LINE#         174
  C:100BH         LINE#         175
  C:1016H         LINE#         176
  C:1019H         LINE#         177
  C:101AH         LINE#         179
  C:101AH         LINE#         180
  C:1025H         LINE#         181
  C:1028H         LINE#         182
  C:1029H         LINE#         184
  C:1029H         LINE#         185
  C:1034H         LINE#         186
  C:1037H         LINE#         187
  C:1038H         LINE#         189
  C:1038H         LINE#         190
  C:1038H         LINE#         192
  C:1038H         LINE#         193
  C:1043H         LINE#         194
  C:1046H         LINE#         195
  C:1047H         LINE#         197
  C:1047H         LINE#         198
  C:1052H         LINE#         199
  C:1055H         LINE#         200
  C:1056H         LINE#         202
  C:1056H         LINE#         203
  C:1061H         LINE#         204
  C:1064H         LINE#         205
  C:1065H         LINE#         207
  C:1065H         LINE#         208
  C:1070H         LINE#         209
  C:1073H         LINE#         210
  C:1074H         LINE#         212
  C:1074H         LINE#         213
  C:107FH         LINE#         214
  C:1082H         LINE#         215
  C:1083H         LINE#         217
  C:1083H         LINE#         218
  C:108EH         LINE#         219
  C:1091H         LINE#         220
  C:1092H         LINE#         224
  C:1092H         LINE#         226
  C:109DH         LINE#         227
  C:10A8H         LINE#         228
  C:10B2H         LINE#         229
  C:10BDH         LINE#         230
  C:10C9H         LINE#         231
  C:10C9H         LINE#         232
  C:10E1H         LINE#         233
  C:10F0H         LINE#         234
  C:10FCH         LINE#         235
  C:10FEH         LINE#         239
  C:10FEH         LINE#         240
  C:111AH         LINE#         241
  C:1125H         LINE#         242
  C:112FH         LINE#         243
  C:1147H         LINE#         244
BL51 BANKED LINKER/LOCATER V6.22.2.0                                                  02/03/2023  08:32:14  PAGE 25


  C:1156H         LINE#         246
  C:1156H         LINE#         249
  C:1156H         LINE#         251
  C:1156H         LINE#         253
  C:1156H         LINE#         254
  C:1156H         LINE#         255
  C:1156H         LINE#         258
  -------         ENDPROC       _MODBUS_WRTIE_REGISTER
  -------         PROC          L?0053
  -------         ENDPROC       L?0053
  -------         PROC          _MODBUS_WRITE_IMEI
  D:0001H         SYMBOL        UART
  -------         DO            
  X:00B4H         SYMBOL        COM
  D:0023H         SYMBOL        i
  -------         ENDDO         
  C:15A2H         LINE#         267
  C:15A2H         LINE#         268
  C:15A2H         LINE#         269
  C:15ADH         LINE#         270
  C:15B0H         LINE#         275
  C:15CBH         LINE#         276
  C:15E9H         LINE#         279
  C:1602H         LINE#         282
  C:161BH         LINE#         284
  C:1629H         LINE#         285
  C:1629H         LINE#         286
  C:1669H         LINE#         287
  C:166DH         LINE#         289
  C:1694H         LINE#         291
  C:1697H         LINE#         293
  C:169CH         LINE#         295
  -------         ENDPROC       _MODBUS_WRITE_IMEI
  -------         PROC          _MODBUS_BOOT_THE_DEVICE
  D:0001H         SYMBOL        UART
  -------         DO            
  X:00B4H         SYMBOL        COM
  -------         ENDDO         
  C:21C6H         LINE#         308
  C:21C6H         LINE#         309
  C:21C6H         LINE#         310
  C:21D1H         LINE#         312
  C:21E1H         LINE#         313
  C:21E1H         LINE#         314
  C:21ECH         LINE#         315
  C:21EFH         LINE#         316
  C:21EFH         LINE#         317
  -------         ENDPROC       _MODBUS_BOOT_THE_DEVICE
  -------         PROC          _MODBUS_HEAT_IGNITION
  D:0001H         SYMBOL        UART
  -------         DO            
  X:00B4H         SYMBOL        COM
  -------         ENDDO         
  C:21F0H         LINE#         328
  C:21F0H         LINE#         329
  C:21F0H         LINE#         330
  C:21FBH         LINE#         332
BL51 BANKED LINKER/LOCATER V6.22.2.0                                                  02/03/2023  08:32:14  PAGE 26


  C:220BH         LINE#         333
  C:220BH         LINE#         334
  C:2216H         LINE#         335
  C:2219H         LINE#         336
  C:2219H         LINE#         337
  -------         ENDPROC       _MODBUS_HEAT_IGNITION
  -------         PROC          _MODBUS_USE_THE_DEVICE
  D:0001H         SYMBOL        UART
  -------         DO            
  X:00B4H         SYMBOL        COM
  D:0007H         SYMBOL        i
  -------         ENDDO         
  C:1AADH         LINE#         348
  C:1AADH         LINE#         349
  C:1AADH         LINE#         350
  C:1AB8H         LINE#         351
  C:1ABAH         LINE#         353
  C:1ACAH         LINE#         354
  C:1ACAH         LINE#         355
  C:1AD4H         LINE#         356
  C:1AD4H         LINE#         357
  C:1AD7H         LINE#         358
  C:1AD9H         LINE#         360
  C:1AD9H         LINE#         361
  C:1ADCH         LINE#         362
  C:1ADCH         LINE#         363
  C:1ADCH         LINE#         366
  C:1AE8H         LINE#         367
  C:1AE8H         LINE#         368
  C:1B1CH         LINE#         369
  C:1B1FH         LINE#         372
  C:1B46H         LINE#         374
  -------         ENDPROC       _MODBUS_USE_THE_DEVICE
  -------         ENDMOD        MODBUS

  -------         MODULE        UART2
  C:0000H         SYMBOL        _ICE_DUMMY_
  D:0080H         PUBLIC        P0
  D:0090H         PUBLIC        P1
  D:00A0H         PUBLIC        P2
  D:00B0H         PUBLIC        P3
  D:00C0H         PUBLIC        P4
  D:00C8H         PUBLIC        P5
  D:00E8H         PUBLIC        P6
  D:00F8H         PUBLIC        P7
  C:1F0FH         SYMBOL        _SendString
  C:2316H         SYMBOL        _SendData
  D:00A8H         PUBLIC        IE
  C:1CD0H         SYMBOL        _SendArray
  C:20FEH         SYMBOL        Init
  D:00B8H         PUBLIC        IP
  C:1FB1H         PUBLIC        UART2_isr
  X:0000H         SYMBOL        ucSend_Buffer
  D:00D8H         PUBLIC        CCON
  X:000AH         SYMBOL        ucRec_Buffer
  D:0098H         PUBLIC        SCON
  D:0088H         PUBLIC        TCON
BL51 BANKED LINKER/LOCATER V6.22.2.0                                                  02/03/2023  08:32:14  PAGE 27


  D:008EH         PUBLIC        AUXR
  C:233AH         SYMBOL        RS485_Set_SendMode
  D:00D6H         PUBLIC        T2H
  D:00D7H         PUBLIC        T2L
  C:1DFFH         SYMBOL        Protocol
  C:233BH         SYMBOL        RS485_Set_RecMode
  D:009BH         PUBLIC        S2BUF
  D:009AH         PUBLIC        S2CON
  I:009FH         PUBLIC        UART2
  D:00D0H         PUBLIC        PSW
  -------         PROC          INIT
  C:20FEH         LINE#         56
  C:20FEH         LINE#         57
  C:20FEH         LINE#         58
  C:2101H         LINE#         59
  C:2104H         LINE#         61
  C:2114H         LINE#         62
  C:2114H         LINE#         63
  C:2119H         LINE#         64
  C:2119H         LINE#         65
  C:2121H         LINE#         66
  C:2129H         LINE#         67
  C:212FH         LINE#         68
  C:212FH         LINE#         69
  C:2132H         LINE#         71
  C:2135H         LINE#         72
  -------         ENDPROC       INIT
  -------         PROC          _SENDDATA
  D:0007H         SYMBOL        dat
  C:2316H         LINE#         80
  C:2316H         LINE#         81
  C:2316H         LINE#         82
  C:231BH         LINE#         83
  C:231DH         LINE#         84
  C:231FH         LINE#         85
  -------         ENDPROC       _SENDDATA
  -------         PROC          _SENDARRAY
  D:0022H         SYMBOL        p_Arr
  D:0025H         SYMBOL        LEN
  -------         DO            
  D:0027H         SYMBOL        i
  -------         ENDDO         
  C:1CD0H         LINE#         93
  C:1CDAH         LINE#         94
  C:1CDAH         LINE#         95
  C:1CDFH         LINE#         97
  C:1CEAH         LINE#         99
  C:1CFAH         LINE#         100
  C:1CFAH         LINE#         101
  C:1D18H         LINE#         102
  C:1D22H         LINE#         103
  C:1D27H         LINE#         104
  C:1D33H         LINE#         106
  -------         ENDPROC       _SENDARRAY
  -------         PROC          _SENDSTRING
  D:0022H         SYMBOL        p_Str
  C:1F0FH         LINE#         116
BL51 BANKED LINKER/LOCATER V6.22.2.0                                                  02/03/2023  08:32:14  PAGE 28


  C:1F15H         LINE#         117
  C:1F15H         LINE#         118
  C:1F20H         LINE#         120
  C:1F2BH         LINE#         121
  C:1F2BH         LINE#         122
  C:1F47H         LINE#         123
  C:1F49H         LINE#         124
  C:1F4EH         LINE#         125
  C:1F5AH         LINE#         127
  -------         ENDPROC       _SENDSTRING
  -------         PROC          RS485_SET_SENDMODE
  C:233AH         LINE#         137
  C:233AH         LINE#         138
  C:233AH         LINE#         140
  -------         ENDPROC       RS485_SET_SENDMODE
  -------         PROC          RS485_SET_RECMODE
  C:233BH         LINE#         148
  C:233BH         LINE#         149
  C:233BH         LINE#         151
  -------         ENDPROC       RS485_SET_RECMODE
  -------         PROC          UART2_ISR
  C:1FB1H         LINE#         159
  C:1FBEH         LINE#         162
  C:1FC3H         LINE#         163
  C:1FC3H         LINE#         164
  C:1FC6H         LINE#         166
  C:1FD2H         LINE#         167
  C:1FD2H         LINE#         168
  C:1FE0H         LINE#         169
  C:1FE0H         LINE#         171
  C:1FE4H         LINE#         172
  C:1FE4H         LINE#         175
  C:1FE9H         LINE#         176
  C:1FE9H         LINE#         177
  C:1FECH         LINE#         178
  C:1FF0H         LINE#         179
  C:1FF0H         LINE#         180
  -------         ENDPROC       UART2_ISR
  -------         PROC          PROTOCOL
  C:1DFFH         LINE#         189
  C:1DFFH         LINE#         190
  C:1DFFH         LINE#         191
  C:1E06H         LINE#         192
  C:1E06H         LINE#         196
  C:1E0CH         LINE#         197
  C:1E0CH         LINE#         198
  C:1E11H         LINE#         199
  C:1E1DH         LINE#         200
  C:1E1DH         LINE#         202
  C:1E28H         LINE#         203
  C:1E28H         LINE#         204
  C:1E28H         LINE#         205
  C:1E41H         LINE#         207
  C:1E41H         LINE#         209
  C:1E56H         LINE#         211
  C:1E5AH         LINE#         212
  C:1E5CH         LINE#         213
BL51 BANKED LINKER/LOCATER V6.22.2.0                                                  02/03/2023  08:32:14  PAGE 29


  C:1E5CH         LINE#         216
  -------         ENDPROC       PROTOCOL
  -------         ENDMOD        UART2

  -------         MODULE        SYSTEM
  C:0000H         SYMBOL        _ICE_DUMMY_
  C:216DH         PUBLIC        sys_run_update
  D:0080H         PUBLIC        P0
  D:0090H         PUBLIC        P1
  D:0047H         PUBLIC        Sys_Timer_Flag
  D:00A0H         PUBLIC        P2
  D:00B0H         PUBLIC        P3
  D:00C0H         PUBLIC        P4
  D:00C8H         PUBLIC        P5
  D:00E8H         PUBLIC        P6
  D:00F8H         PUBLIC        P7
  D:0048H         PUBLIC        System
  D:00A8H         PUBLIC        IE
  D:00B8H         PUBLIC        IP
  C:1D87H         PUBLIC        CODE
  C:1D6EH         PUBLIC        ReadIMEI
  D:00D8H         PUBLIC        CCON
  D:004FH         PUBLIC        HotFlag
  D:0050H         SYMBOL        count
  B:0080H.1       PUBLIC        P01
  B:0090H.2       PUBLIC        P12
  D:0098H         PUBLIC        SCON
  B:0090H.3       PUBLIC        P13
  D:0088H         PUBLIC        TCON
  C:2263H         SYMBOL        Run
  D:0052H         PUBLIC        OneKey_Fire
  B:0090H.7       PUBLIC        P17
  C:17A0H         SYMBOL        StandBy
  B:00C0H.7       PUBLIC        P47
  D:0053H         PUBLIC        OneKey
  C:1D74H         PUBLIC        ReduceUsage
  D:0054H         PUBLIC        Fire_Timer_Count
  D:0055H         PUBLIC        firTempearture
  C:1D9DH         PUBLIC        SEG
  C:1D92H         PUBLIC        CODED
  C:12E5H         PUBLIC        _LEDNUM_UpData
  C:0B36H         PUBLIC        sys_run_check
  D:00D0H         PUBLIC        PSW
  -------         PROC          RUN
  C:2263H         LINE#         55
  C:2263H         LINE#         56
  C:2263H         LINE#         59
  C:2266H         LINE#         61
  C:2271H         LINE#         62
  C:227CH         LINE#         63
  C:2283H         LINE#         64
  -------         ENDPROC       RUN
  -------         PROC          SYS_RUN_UPDATE
  C:216DH         LINE#         75
  C:216DH         LINE#         76
  C:216DH         LINE#         78
  C:2180H         LINE#         79
BL51 BANKED LINKER/LOCATER V6.22.2.0                                                  02/03/2023  08:32:14  PAGE 30


  C:2180H         LINE#         81
  C:2180H         LINE#         82
  C:2180H         LINE#         84
  C:2180H         LINE#         85
  C:2183H         LINE#         86
  C:2184H         LINE#         89
  C:2184H         LINE#         90
  C:2184H         LINE#         91
  C:2184H         LINE#         92
  C:2184H         LINE#         95
  C:2187H         LINE#         97
  C:2189H         LINE#         98
  C:218BH         LINE#         101
  C:218BH         LINE#         102
  C:218EH         LINE#         104
  C:2190H         LINE#         105
  C:2192H         LINE#         108
  C:2192H         LINE#         109
  C:2195H         LINE#         110
  C:219AH         LINE#         111
  C:219AH         LINE#         112
  C:219AH         LINE#         113
  C:219AH         LINE#         114
  C:219AH         LINE#         118
  -------         ENDPROC       SYS_RUN_UPDATE
  -------         PROC          STANDBY
  -------         DO            
  D:0022H         SYMBOL        i
  -------         ENDDO         
  C:17A0H         LINE#         127
  C:17A0H         LINE#         128
  C:17A0H         LINE#         129
  C:17A6H         LINE#         131
  C:17B6H         LINE#         132
  C:17B6H         LINE#         135
  C:17BDH         LINE#         137
  C:17CAH         LINE#         139
  C:17D0H         LINE#         140
  C:17D0H         LINE#         141
  C:17D2H         LINE#         142
  C:17D4H         LINE#         143
  C:17D4H         LINE#         144
  C:17DBH         LINE#         145
  C:17DBH         LINE#         146
  C:17E1H         LINE#         147
  C:17E3H         LINE#         148
  C:17E3H         LINE#         150
  C:17EAH         LINE#         151
  C:17EAH         LINE#         152
  C:17F3H         LINE#         153
  C:17F5H         LINE#         154
  C:17F5H         LINE#         155
  C:17FDH         LINE#         157
  C:1807H         LINE#         158
  C:1807H         LINE#         159
  C:180BH         LINE#         160
  C:1816H         LINE#         161
BL51 BANKED LINKER/LOCATER V6.22.2.0                                                  02/03/2023  08:32:14  PAGE 31


  C:1821H         LINE#         162
  C:1821H         LINE#         163
  C:1831H         LINE#         164
  C:1831H         LINE#         166
  C:1836H         LINE#         168
  C:1836H         LINE#         170
  C:1844H         LINE#         171
  C:1844H         LINE#         172
  C:1849H         LINE#         173
  C:184EH         LINE#         174
  C:184EH         LINE#         176
  C:1851H         LINE#         178
  C:185CH         LINE#         179
  C:1867H         LINE#         180
  C:186DH         LINE#         181
  C:186DH         LINE#         183
  C:186DH         LINE#         187
  C:186DH         LINE#         188
  C:186DH         LINE#         190
  C:1878H         LINE#         191
  C:1878H         LINE#         192
  C:187AH         LINE#         193
  C:187CH         LINE#         194
  C:187EH         LINE#         196
  C:1882H         LINE#         197
  C:1884H         LINE#         199
  C:1887H         LINE#         200
  C:188DH         LINE#         203
  C:188DH         LINE#         205
  C:188DH         LINE#         206
  C:188DH         LINE#         207
  C:188DH         LINE#         209
  C:188DH         LINE#         210
  -------         ENDPROC       STANDBY
  -------         PROC          SYS_RUN_CHECK
  -------         DO            
  D:0045H         SYMBOL        i
  D:0022H         SYMBOL        temp
  -------         ENDDO         
  C:0B36H         LINE#         214
  C:0B36H         LINE#         215
  C:0B36H         LINE#         217
  C:0B3BH         LINE#         219
  C:0B41H         LINE#         220
  C:0B51H         LINE#         221
  C:0B51H         LINE#         222
  C:0B58H         LINE#         223
  C:0B65H         LINE#         224
  C:0B6DH         LINE#         225
  C:0B77H         LINE#         226
  C:0B77H         LINE#         227
  C:0B7BH         LINE#         228
  C:0B86H         LINE#         236
  C:0B91H         LINE#         237
  C:0B91H         LINE#         238
  C:0BA1H         LINE#         239
  C:0BA1H         LINE#         242
BL51 BANKED LINKER/LOCATER V6.22.2.0                                                  02/03/2023  08:32:14  PAGE 32


  C:0BA6H         LINE#         244
  C:0BA6H         LINE#         246
  C:0BACH         LINE#         247
  C:0BACH         LINE#         248
  C:0BAEH         LINE#         249
  C:0BB1H         LINE#         250
  C:0BB2H         LINE#         251
  C:0BB2H         LINE#         253
  C:0BB9H         LINE#         254
  C:0BB9H         LINE#         255
  C:0BBCH         LINE#         256
  C:0BC2H         LINE#         257
  C:0BC4H         LINE#         258
  C:0BC4H         LINE#         260
  C:0BCBH         LINE#         261
  C:0BCBH         LINE#         262
  C:0BCEH         LINE#         263
  C:0BD7H         LINE#         264
  C:0BD7H         LINE#         265
  C:0BD7H         LINE#         274
  C:0BE2H         LINE#         275
  C:0BE2H         LINE#         276
  C:0BE7H         LINE#         277
  C:0BE9H         LINE#         278
  C:0BE9H         LINE#         280
  C:0BF4H         LINE#         281
  C:0BF4H         LINE#         282
  C:0BF7H         LINE#         283
  C:0BFAH         LINE#         285
  C:0C16H         LINE#         286
  C:0C23H         LINE#         288
  C:0C26H         LINE#         289
  C:0C27H         LINE#         290
  C:0C27H         LINE#         293
  C:0C32H         LINE#         294
  C:0C32H         LINE#         296
  C:0C37H         LINE#         297
  C:0C39H         LINE#         298
  C:0C3CH         LINE#         299
  C:0C3DH         LINE#         300
  C:0C3DH         LINE#         301
  C:0C48H         LINE#         302
  C:0C48H         LINE#         303
  C:0C4BH         LINE#         304
  C:0C50H         LINE#         305
  C:0C51H         LINE#         306
  C:0C51H         LINE#         309
  C:0C58H         LINE#         310
  C:0C58H         LINE#         311
  C:0C73H         LINE#         312
  C:0C73H         LINE#         314
  C:0C82H         LINE#         315
  C:0C82H         LINE#         316
  C:0C86H         LINE#         317
  C:0C89H         LINE#         318
  C:0C8CH         LINE#         319
  C:0C8FH         LINE#         320
BL51 BANKED LINKER/LOCATER V6.22.2.0                                                  02/03/2023  08:32:14  PAGE 33


  C:0C90H         LINE#         321
  C:0C90H         LINE#         323
  C:0CA5H         LINE#         324
  C:0CA5H         LINE#         325
  C:0CA5H         LINE#         327
  C:0CA9H         LINE#         328
  C:0CACH         LINE#         329
  C:0CB0H         LINE#         330
  C:0CB4H         LINE#         332
  C:0CC2H         LINE#         333
  C:0CC2H         LINE#         334
  C:0CC5H         LINE#         335
  C:0CC5H         LINE#         336
  C:0CC8H         LINE#         337
  C:0CC8H         LINE#         339
  C:0CCCH         LINE#         340
  C:0CCFH         LINE#         341
  C:0CD3H         LINE#         342
  C:0CD7H         LINE#         343
  C:0CE2H         LINE#         344
  C:0CE2H         LINE#         345
  C:0CE5H         LINE#         347
  C:0CE5H         LINE#         348
  C:0CF7H         LINE#         349
  C:0CF7H         LINE#         350
  C:0CFAH         LINE#         352
  C:0CFAH         LINE#         354
  C:0CFCH         LINE#         356
  C:0CFCH         LINE#         358
  C:0D00H         LINE#         359
  C:0D03H         LINE#         360
  C:0D07H         LINE#         361
  C:0D0BH         LINE#         362
  C:0D1DH         LINE#         363
  C:0D1DH         LINE#         364
  C:0D20H         LINE#         366
  C:0D20H         LINE#         367
  C:0D32H         LINE#         368
  C:0D32H         LINE#         369
  C:0D35H         LINE#         370
  C:0D35H         LINE#         371
  C:0D37H         LINE#         372
  C:0D37H         LINE#         373
  C:0D3BH         LINE#         374
  C:0D3EH         LINE#         375
  C:0D42H         LINE#         376
  C:0D46H         LINE#         377
  C:0D51H         LINE#         378
  C:0D51H         LINE#         379
  C:0D51H         LINE#         380
  C:0D51H         LINE#         381
  C:0D53H         LINE#         383
  C:0D53H         LINE#         384
  C:0D56H         LINE#         385
  C:0D56H         LINE#         386
  C:0D56H         LINE#         389
  C:0D56H         LINE#         390
BL51 BANKED LINKER/LOCATER V6.22.2.0                                                  02/03/2023  08:32:14  PAGE 34


  C:0D56H         LINE#         392
  C:0D64H         LINE#         393
  C:0D64H         LINE#         394
  C:0D67H         LINE#         395
  C:0D6CH         LINE#         399
  C:0D6CH         LINE#         400
  C:0D6CH         LINE#         401
  C:0D6CH         LINE#         402
  -------         ENDPROC       SYS_RUN_CHECK
  -------         PROC          _LEDNUM_UPDATA
  D:0024H         SYMBOL        Data
  -------         DO            
  D:0026H         SYMBOL        i
  -------         ENDDO         
  C:12E5H         LINE#         406
  C:12E9H         LINE#         407
  C:12E9H         LINE#         408
  C:12ECH         LINE#         409
  C:1304H         LINE#         410
  C:1304H         LINE#         411
  C:1313H         LINE#         412
  C:1327H         LINE#         413
  C:1337H         LINE#         414
  C:134BH         LINE#         415
  C:135BH         LINE#         416
  C:1368H         LINE#         417
  C:1378H         LINE#         418
  C:1378H         LINE#         419
  C:138DH         LINE#         420
  C:138DH         LINE#         421
  C:139CH         LINE#         422
  C:13ABH         LINE#         423
  C:13BFH         LINE#         424
  C:13CFH         LINE#         425
  C:13DCH         LINE#         426
  C:13ECH         LINE#         427
  C:13ECH         LINE#         428
  C:13FEH         LINE#         429
  C:13FEH         LINE#         430
  C:140DH         LINE#         431
  C:141CH         LINE#         432
  C:142BH         LINE#         433
  C:1438H         LINE#         434
  C:1448H         LINE#         435
  C:1448H         LINE#         437
  -------         ENDPROC       _LEDNUM_UPDATA
  -------         ENDMOD        SYSTEM

  -------         MODULE        TM1650
  C:0000H         SYMBOL        _ICE_DUMMY_
  C:0026H         PUBLIC        I2Cask
  D:0080H         PUBLIC        P0
  D:0090H         PUBLIC        P1
  D:00A0H         PUBLIC        P2
  D:00B0H         PUBLIC        P3
  D:00C0H         PUBLIC        P4
  D:00C8H         PUBLIC        P5
BL51 BANKED LINKER/LOCATER V6.22.2.0                                                  02/03/2023  08:32:14  PAGE 35


  D:00E8H         PUBLIC        P6
  D:00F8H         PUBLIC        P7
  D:00A8H         PUBLIC        IE
  D:00B8H         PUBLIC        IP
  B:00D0H.7       PUBLIC        CY
  C:219BH         PUBLIC        _I2CWrByte
  D:00D8H         PUBLIC        CCON
  D:0098H         PUBLIC        SCON
  D:0088H         PUBLIC        TCON
  C:22C7H         PUBLIC        _Delay_us
  C:2320H         PUBLIC        I2CStart
  B:00B0H.3       PUBLIC        CLK
  B:00B0H.2       PUBLIC        DIO
  C:232AH         PUBLIC        I2CStop
  D:00D0H         PUBLIC        PSW
  C:22A7H         PUBLIC        _TM1650_Set
  C:22C3H         SYMBOL        L?0018
  -------         PROC          L?0017
  -------         ENDPROC       L?0017
  C:22C3H         SYMBOL        L?0018
  -------         PROC          _DELAY_US
  D:0027H         SYMBOL        t
  -------         DO            
  D:0006H         SYMBOL        i
  D:0007H         SYMBOL        j
  -------         ENDDO         
  C:22C7H         LINE#         2
  C:22CBH         LINE#         3
  C:22CBH         LINE#         5
  C:22D3H         LINE#         6
  C:22D3H         LINE#         7
  C:22D5H         LINE#         8
  C:22D7H         LINE#         9
  C:22D9H         LINE#         10
  -------         ENDPROC       _DELAY_US
  -------         PROC          I2CSTART
  C:2320H         LINE#         11
  C:2320H         LINE#         12
  C:2320H         LINE#         13
  C:2322H         LINE#         14
  C:2324H         LINE#         15
  C:2327H         LINE#         16
  C:2329H         LINE#         18
  -------         ENDPROC       I2CSTART
  -------         PROC          I2CASK
  -------         DO            
  D:0005H         SYMBOL        timeout
  -------         ENDDO         
  C:0026H         LINE#         20
  C:0026H         LINE#         21
  C:0026H         LINE#         22
  C:0028H         LINE#         23
  C:0028H         LINE#         24
  C:002BH         LINE#         25
  C:002DH         LINE#         26
  C:003AH         LINE#         27
  C:003AH         LINE#         28
BL51 BANKED LINKER/LOCATER V6.22.2.0                                                  02/03/2023  08:32:14  PAGE 36


  C:003BH         LINE#         29
  C:003DH         LINE#         30
  C:0040H         LINE#         31
  C:0042H         LINE#         32
  -------         ENDPROC       I2CASK
  -------         PROC          I2CSTOP
  C:232AH         LINE#         34
  C:232AH         LINE#         35
  C:232AH         LINE#         36
  C:232CH         LINE#         37
  C:232EH         LINE#         38
  C:2331H         LINE#         39
  C:2333H         LINE#         40
  -------         ENDPROC       I2CSTOP
  -------         PROC          _I2CWRBYTE
  D:0005H         SYMBOL        oneByte
  -------         DO            
  D:0004H         SYMBOL        i
  -------         ENDDO         
  C:219BH         LINE#         42
  C:219DH         LINE#         43
  C:219DH         LINE#         45
  C:219FH         LINE#         46
  C:21A6H         LINE#         47
  C:21B2H         LINE#         48
  C:21B2H         LINE#         49
  C:21B6H         LINE#         50
  C:21B8H         LINE#         51
  C:21BAH         LINE#         52
  C:21BDH         LINE#         53
  C:21BDH         LINE#         54
  C:21C0H         LINE#         55
  C:21C2H         LINE#         56
  C:21C5H         LINE#         57
  -------         ENDPROC       _I2CWRBYTE
  -------         PROC          _TM1650_SET
  D:0005H         SYMBOL        add
  D:0003H         SYMBOL        dat
  C:22A7H         LINE#         59
  C:22ABH         LINE#         60
  C:22ABH         LINE#         62
  C:22AEH         LINE#         63
  C:22B3H         LINE#         64
  C:22B6H         LINE#         65
  C:22BBH         LINE#         66
  C:22BEH         LINE#         67
  -------         ENDPROC       _TM1650_SET
  -------         ENDMOD        TM1650

  -------         MODULE        ?C?FPMUL
  C:0046H         PUBLIC        ?C?FPMUL
  -------         ENDMOD        ?C?FPMUL

  -------         MODULE        ?C?FPDIV
  C:014FH         PUBLIC        ?C?FPDIV
  -------         ENDMOD        ?C?FPDIV

BL51 BANKED LINKER/LOCATER V6.22.2.0                                                  02/03/2023  08:32:14  PAGE 37


  -------         MODULE        ?C?FCAST
  C:01F6H         PUBLIC        ?C?FCASTC
  C:01F1H         PUBLIC        ?C?FCASTI
  C:01ECH         PUBLIC        ?C?FCASTL
  -------         ENDMOD        ?C?FCAST

  -------         MODULE        ?C?CASTF
  C:022AH         PUBLIC        ?C?CASTF
  -------         ENDMOD        ?C?CASTF

  -------         MODULE        PRINTF
  D:0028H         PUBLIC        ?_PRINTF?BYTE
  D:0028H         PUBLIC        ?_SPRINTF?BYTE
  C:0729H         PUBLIC        _PRINTF
  C:0723H         PUBLIC        _SPRINTF
  -------         ENDMOD        PRINTF

  -------         MODULE        ?C?FPROUND
  C:02ABH         PUBLIC        ?C?FPROUND
  -------         ENDMOD        ?C?FPROUND

  -------         MODULE        ?C?FPCONVERT
  C:02DAH         PUBLIC        ?C?FPCONVERT
  -------         ENDMOD        ?C?FPCONVERT

  -------         MODULE        ?C?FPADD
  C:03E4H         PUBLIC        ?C?FPADD
  C:03E0H         PUBLIC        ?C?FPSUB
  -------         ENDMOD        ?C?FPADD

  -------         MODULE        ?C?FTNPWR
  C:0505H         PUBLIC        ?C?FTNPWR
  -------         ENDMOD        ?C?FTNPWR

  -------         MODULE        ?C?CLDPTR
  C:0545H         PUBLIC        ?C?CLDPTR
  -------         ENDMOD        ?C?CLDPTR

  -------         MODULE        ?C?CLDOPTR
  C:055EH         PUBLIC        ?C?CLDOPTR
  -------         ENDMOD        ?C?CLDOPTR

  -------         MODULE        ?C?CSTPTR
  C:058BH         PUBLIC        ?C?CSTPTR
  -------         ENDMOD        ?C?CSTPTR

  -------         MODULE        ?C?CSTOPTR
  C:059DH         PUBLIC        ?C?CSTOPTR
  -------         ENDMOD        ?C?CSTOPTR

  -------         MODULE        ?C?IMUL
  C:05BFH         PUBLIC        ?C?IMUL
  -------         ENDMOD        ?C?IMUL

  -------         MODULE        ?C?UIDIV
  C:05D1H         PUBLIC        ?C?UIDIV
  -------         ENDMOD        ?C?UIDIV
BL51 BANKED LINKER/LOCATER V6.22.2.0                                                  02/03/2023  08:32:14  PAGE 38



  -------         MODULE        ?C?LNEG
  C:0626H         PUBLIC        ?C?LNEG
  -------         ENDMOD        ?C?LNEG

  -------         MODULE        ?C?PLDIIDATA
  C:0634H         PUBLIC        ?C?PLDIIDATA
  -------         ENDMOD        ?C?PLDIIDATA

  -------         MODULE        ?C?PLDOPTR
  C:0644H         PUBLIC        ?C?PLDOPTR
  -------         ENDMOD        ?C?PLDOPTR

  -------         MODULE        ?C?CCASE
  C:0674H         PUBLIC        ?C?CCASE
  -------         ENDMOD        ?C?CCASE

  -------         MODULE        ?C?ICALL
  C:069AH         PUBLIC        ?C?ICALL
  C:069EH         PUBLIC        ?C?ICALL2
  -------         ENDMOD        ?C?ICALL

  -------         MODULE        ?C?PLDIDATA
  C:06A0H         PUBLIC        ?C?PLDIDATA
  -------         ENDMOD        ?C?PLDIDATA

  -------         MODULE        ?C?PLDXDATA
  C:06A9H         PUBLIC        ?C?PLDXDATA
  -------         ENDMOD        ?C?PLDXDATA

  -------         MODULE        ?C?PLDPDATA
  C:06B2H         PUBLIC        ?C?PLDPDATA
  -------         ENDMOD        ?C?PLDPDATA

  -------         MODULE        ?C?PLDCODE
  C:06BBH         PUBLIC        ?C?PLDCODE
  -------         ENDMOD        ?C?PLDCODE

Program Size: data=204.1 xdata=183 code=9020
LINK/LOCATE RUN COMPLETE.  0 WARNING(S),  0 ERROR(S)
