C51 COMPILER V9.60.0.0   SYS_INIT                                                          02/02/2023 11:56:16 PAGE 1   


C51 COMPILER V9.60.0.0, COMPILATION OF MODULE SYS_INIT
OBJECT MODULE PLACED IN .\obj\Sys_init.obj
COMPILER INVOKED BY: D:\Keil_v5\C51\BIN\C51.EXE app\Sys_init.c OPTIMIZE(8,SPEED) BROWSE INCDIR(.\user;.\app) DEBUG OBJEC
                    -TEXTEND PRINT(.\obj\Sys_init.lst) TABS(2) OBJECT(.\obj\Sys_init.obj)

line level    source

   1          /* Includes ------------------------------------------------------------------*/
   2          #include <main.h>
   3          
   4          /* Private define-------------------------------------------------------------*/
   5          
   6          /* Private variables----------------------------------------------------------*/
   7          static void GPIO_Init(void);           //通用输入输出端口初始化
   8          static void IE_init(void);             //中断初始化
   9          static void Power_ON_Indication(void); //上电指示
  10          static void Sys_Init(void);            //系统初始化
  11          
  12          /* Public variables-----------------------------------------------------------*/
  13          Hardware_Init_t Hardware_Init = 
  14          {
  15            GPIO_Init,
  16            IE_init,
  17            Sys_Init
  18          };
  19          
  20          /* Private function prototypes------------------------------------------------*/      
  21          
  22          /*
  23            * @name   GPIO_Init
  24            * @brief  通用输入输出端口初始化
  25            * @param  None
  26            * @retval None      
  27          */
  28          static void GPIO_Init()
  29          {
  30   1      
  31   1        
  32   1        //M1  M0
  33   1          //0   0      准双向口
  34   1          //0   1      推挽输出
  35   1          //1   0      高阻输入
  36   1          //1   1      开漏
  37   1      
  38   1        //对JQD的GPIO进行配置 设置为准双向口
  39   1      /*
  40   1      #define   JDQ1  P07 //上
  41   1      #define   JDQ2  P06 //下
  42   1      
  43   1      //220V
  44   1      #define   JDQ8  P47 //加热
  45   1      #define   JDQ9  P12 //风扇
  46   1      #define   JDQ10   P13 //风机
  47   1      #define   JDQ11   P14 //点火
  48   1      #define   JDQ12   P15 //点火棒
  49   1      #define   JDQ13   P16 //点火棒
  50   1      */
  51   1        P0M0 = 0xC0;//1100 0000
  52   1        P0M1 = 0x00;//0000 0000
  53   1        
  54   1      
C51 COMPILER V9.60.0.0   SYS_INIT                                                          02/02/2023 11:56:16 PAGE 2   

  55   1      
  56   1        
  57   1        /*
  58   1      
  59   1        
  60   1        #串口二的设计 P10 P11
  61   1        
  62   1      
  63   1        */
  64   1        P1M0 = 0x7E;//0111 1110
  65   1        P1M1 = 0x01;//0000 0001
  66   1        
  67   1      
  68   1        /*
  69   1          对MAX6675GPIO设置为
  70   1        
  71   1        #define SCK  P27  推挽输出
  72   1        #define CS  P26   推挽输出
  73   1        #define MISO P25  浮空输入
  74   1        */
  75   1        P2M0 = 0xC0;//1100 0000
  76   1        P2M1 = 0x3F;//0011 1111
  77   1        
  78   1      
  79   1      
  80   1        
  81   1      
  82   1        
  83   1        P4M0 = 0x00;// 0000 0000
  84   1        P4M1 = 0x0C;// 0001 1100
  85   1      
  86   1        /*
  87   1        对于遥控器的GPIO进行设置高阻输入
  88   1        #define Q1  P24
  89   1        #define Q2  P23
  90   1        #define Q3  P22
  91   1        #define Q4  P21
  92   1        #define Q5  P20
  93   1        #define Q6  P44
  94   1        #define Q7  P43
  95   1        #define Q8  P42
  96   1        */
  97   1      
  98   1        P5M1 = 0x30;
  99   1        P5M0 = 0x00;
 100   1      
 101   1      
 102   1        /*
 103   1          对于串口进行GPIO引脚配置
 104   1          P30   高阻输入
 105   1          P31   推挽输出
 106   1        */
 107   1        P3M0 = 0x02;
 108   1        P3M1 = 0x01;
 109   1        
 110   1        P26 = 1;
 111   1        P27 = 1;
 112   1      
 113   1        JDQ1 = CLOSE;
 114   1        JDQ2 = CLOSE;
 115   1        JDQ8 = CLOSE;
 116   1        JDQ9 = CLOSE;
C51 COMPILER V9.60.0.0   SYS_INIT                                                          02/02/2023 11:56:16 PAGE 3   

 117   1        JDQ10 = CLOSE;
 118   1        JDQ11 = CLOSE;
 119   1        JDQ12 = CLOSE;
 120   1        JDQ13 = CLOSE;
 121   1      
 122   1        
 123   1        LED1_HOT = OFF;
 124   1        LED2_FAN = OFF;
 125   1        LED3_MTR = OFF;
 126   1        LED4_FIR = OFF;
 127   1        LED5_RUN = OFF;
 128   1        LED6_POW = OFF;
 129   1        
 130   1        
 131   1        
 132   1      
 133   1      }
 134          
 135          /*
 136            * @name   IE_init
 137            * @brief  中断初始化
 138            * @param  None
 139            * @retval None      
 140          */
 141          static void IE_init()
 142          { 
 143   1      
 144   1      
 145   1        ET0 =  1;            //打开定时器0中断
 146   1        
 147   1        ES  = 1;              //使能串口1中断
 148   1        IE2 |= BIT0;          //使能串口2中断
 149   1        
 150   1        EA  =  1;             //打开总中断
 151   1        
 152   1      }
 153          
 154          
 155          
 156          /*
 157            * @name   Sys_Init
 158            * @brief  系统初始化
 159            * @param  None
 160            * @retval None      
 161          */
 162          static void Sys_Init()
 163          { 
 164   1        Hardware_Init.GPIO_Init();          //GPIO口初始化
 165   1        Public.Delay_ms(2000);                //上电延时2s
 166   1        
 167   1        Timer0.Timer0_Init();               //定时器0初始化
 168   1        Hardware_Init.IE_init();            //中断初始化
 169   1        UART1.UART_Init();                  //串口1初始化
 170   1        UART2.UART_Init();                  //串口2初始化
 171   1        //TM1650_Set(0x48,0x01);//初始化为6级灰度，开显示
 172   1        LED6_POW = ON;
 173   1      }
 174          
 175          /********************************************************
 176            End Of File
 177          ********************************************************/

C51 COMPILER V9.60.0.0   SYS_INIT                                                          02/02/2023 11:56:16 PAGE 4   


MODULE INFORMATION:   STATIC OVERLAYABLE
   CODE SIZE        =    136    ----
   CONSTANT SIZE    =   ----    ----
   XDATA SIZE       =   ----    ----
   PDATA SIZE       =   ----    ----
   DATA SIZE        =      9    ----
   IDATA SIZE       =   ----    ----
   BIT SIZE         =   ----    ----
END OF MODULE INFORMATION.


C51 COMPILATION COMPLETE.  0 WARNING(S),  0 ERROR(S)
