C51 COMPILER V9.60.0.0   TRIGGER                                                           02/02/2023 11:56:17 PAGE 1   


C51 COMPILER V9.60.0.0, COMPILATION OF MODULE TRIGGER
OBJECT MODULE PLACED IN .\obj\Trigger.obj
COMPILER INVOKED BY: D:\Keil_v5\C51\BIN\C51.EXE app\Trigger.c OPTIMIZE(8,SPEED) BROWSE INCDIR(.\user;.\app) DEBUG OBJECT
                    -EXTEND PRINT(.\obj\Trigger.lst) TABS(2) OBJECT(.\obj\Trigger.obj)

line level    source

   1          
   2          
   3          /* Includes ------------------------------------------------------------------*/
   4          #include <main.h>
   5          
   6          /* Private define-------------------------------------------------------------*/
   7          
   8          /* Private variables----------------------------------------------------------*/
   9          static void Trigger_Control(void);
  10          uint8_t code  close_device[6] =
  11          {
  12            0xff, 0x55, 0x0C, 0x02, 0x20, 0x05
  13          };
  14          
  15          
  16          /* Public variables-----------------------------------------------------------*/
  17          Trigger_t   Trigger_1 =
  18          {
  19          
  20            0, 
  21            Trigger_Control
  22          };
  23          
  24          
  25          
  26          /* Private function prototypes------------------------------------------------*/
  27          /*
  28            * @name   Trigger_Control
  29            * @brief  根据触发器对JDQ标志进行操作
  30            * @param  None
  31            * @retval None    
  32          */
  33          static void Trigger_Control(void)
  34          {
  35   1      
  36   1      
  37   1        if (Trigger_1.trigger_state != 0)
  38   1          {
  39   2      
  40   2          switch (Trigger_1.trigger_state)
  41   2            {
  42   3            case 1:
  43   3              JDQ_Run.JDQ_2_FLAG = 0;
  44   3      
  45   3              if (JDQ_Run.JDQ_1_FLAG)
  46   3                {
  47   4                JDQ1        = OPEN;
  48   4                JDQ2        = CLOSE;
  49   4                }
  50   3              else 
  51   3                {
  52   4                JDQ1        = CLOSE;
  53   4                JDQ2        = CLOSE;
  54   4                JDQ_Run.JDQ_1_FLAG  = 0;
C51 COMPILER V9.60.0.0   TRIGGER                                                           02/02/2023 11:56:17 PAGE 2   

  55   4                }
  56   3      
  57   3              Trigger_1.trigger_state = 0;
  58   3              break;
  59   3      
  60   3            case 2:
  61   3              JDQ_Run.JDQ_1_FLAG = 0;
  62   3      
  63   3              if (JDQ_Run.JDQ_2_FLAG)
  64   3                {
  65   4                JDQ1        = CLOSE;
  66   4                JDQ2        = OPEN;
  67   4                }
  68   3              else 
  69   3                {
  70   4                JDQ1        = CLOSE;
  71   4                JDQ2        = CLOSE;
  72   4                JDQ_Run.JDQ_2_FLAG  = 0;
  73   4                }
  74   3      
  75   3              Trigger_1.trigger_state = 0;
  76   3              break;
  77   3      
  78   3            case 3:
  79   3      
  80   3      
  81   3              Trigger_1.trigger_state = 0;
  82   3              break;
  83   3      
  84   3            case 4:
  85   3      
  86   3      
  87   3              Trigger_1.trigger_state = 0;
  88   3              break;
  89   3      
  90   3            case 5:
  91   3      
  92   3      
  93   3      
  94   3              Trigger_1.trigger_state = 0;
  95   3              break;
  96   3      
  97   3            case 6:
  98   3              JDQ_Run.JDQ_5_FLAG = 0;
  99   3      
 100   3              Trigger_1.trigger_state = 0;
 101   3              break;
 102   3      
 103   3            case 7:
 104   3              break;
 105   3      
 106   3            case 8:
 107   3              if (JDQ_Run.JDQ_8_FLAG)
 108   3                {
 109   4                JDQ8        = OPEN;
 110   4                LED1_HOT = ON;
 111   4                }
 112   3              else 
 113   3                {
 114   4                JDQ8        = CLOSE;
 115   4                LED1_HOT = OFF;
 116   4                }
C51 COMPILER V9.60.0.0   TRIGGER                                                           02/02/2023 11:56:17 PAGE 3   

 117   3      
 118   3              Trigger_1.trigger_state = 0;
 119   3              break;
 120   3      
 121   3            case 9:
 122   3              if (JDQ_Run.JDQ_9_FLAG)
 123   3                {
 124   4                JDQ9        = OPEN;
 125   4                LED2_FAN = ON;
 126   4                }
 127   3              else 
 128   3                {
 129   4                JDQ9        = CLOSE;
 130   4                LED2_FAN = OFF;
 131   4                }
 132   3      
 133   3              Trigger_1.trigger_state = 0;
 134   3              break;
 135   3      
 136   3            case 10:
 137   3              if (JDQ_Run.JDQ_10_FLAG)
 138   3                {
 139   4                JDQ10       = OPEN;
 140   4                LED3_MTR = ON;
 141   4                }
 142   3              else 
 143   3                {
 144   4                JDQ10       = CLOSE;
 145   4                LED3_MTR   = OFF;
 146   4                }
 147   3      
 148   3              Trigger_1.trigger_state = 0;
 149   3              break;
 150   3      
 151   3            case 11:
 152   3              if (JDQ_Run.JDQ_11_FLAG)
 153   3                {
 154   4      
 155   4                Timer0.fire_Timer = 0;
 156   4                JDQ11       = OPEN;
 157   4                JDQ12       = OPEN;
 158   4                JDQ13       = OPEN;
 159   4                LED4_FIR = ON;
 160   4              
 161   4                Timer0.fire_Timer_start = TRUE;
 162   4      
 163   4                //点火间隔时间
 164   4                //Fire_Timer_Count  = 1;
 165   4                }
 166   3              else 
 167   3                {
 168   4                LED4_FIR = OFF;
 169   4                JDQ11       = CLOSE;
 170   4                JDQ12       = CLOSE;
 171   4                JDQ13       = CLOSE;
 172   4                //关闭点火标志归0
 173   4                //Fire_Timer_Count  = 0;
 174   4                } 
 175   3      
 176   3              Trigger_1.trigger_state = 0;
 177   3              break;
 178   3      
C51 COMPILER V9.60.0.0   TRIGGER                                                           02/02/2023 11:56:17 PAGE 4   

 179   3            case 12:
 180   3              JDQ_Run.JDQ_11_FLAG = 0;
 181   3              JDQ11 = CLOSE;
 182   3              JDQ12 = CLOSE;
 183   3              JDQ13 = CLOSE;
 184   3              LED4_FIR = OFF;
 185   3              Trigger_1.trigger_state = 0;
 186   3              break;
 187   3      
 188   3            case 14:
 189   3              //一键启动模式
 190   3              //启动、关闭设备  
 191   3              // 风扇 风机 加热
 192   3              {
 193   4              if (JDQ_Run.JDQ_8_FLAG)
 194   4                {
 195   5                JDQ8        = OPEN;
 196   5                JDQ9        = OPEN;
 197   5                JDQ10       = OPEN;
 198   5      
 199   5                LED1_HOT = ON;
 200   5                LED2_FAN = ON;
 201   5              
 202   5                JDQ_Run.JDQ_9_FLAG  = 1;
 203   5                JDQ_Run.JDQ_10_FLAG = 1;
 204   5                OneKey        = 1;//打开一键启动时候，会重新设置启动标志与启动点火标志
 205   5                OneKey_Fire = 0 ;
 206   5                }
 207   4              else 
 208   4                {
 209   5                  //一键关闭模式，
 210   5                  //关闭加热 点火，风扇风机等到散热结束后再关闭
 211   5                JDQ8  = CLOSE;
 212   5                JDQ11 = CLOSE;
 213   5                JDQ12 = CLOSE;
 214   5                JDQ13 = CLOSE;
 215   5                LED4_FIR = OFF;
 216   5                LED1_HOT = OFF;
 217   5                System.ucSystem_Status = System_StandBy; //系统进入待机
 218   5                Sys_Timer_Flag    = 0;
 219   5                Timer0.System_Run_Timer = 0;
 220   5                UART1.UART_SendArray(close_device, 6);
 221   5                Timer0.temperature_Timer = 0;
 222   5                StandBy_Flag    = 2;    //进入散热模式
 223   5                OneKey  = 0;
 224   5                OneKey_Fire = 1 ;
 225   5                }
 226   4                Trigger_1.trigger_state = 0;
 227   4              }
 228   3                break;
 229   3      
 230   3            case 15: //关闭外设 
 231   3              break;
 232   3            default:
 233   3              break;
 234   3            }
 235   2      
 236   2          if (StateFlag == 1)
 237   2            {
 238   3            DataUpdate(2);
 239   3            }
 240   2          }
C51 COMPILER V9.60.0.0   TRIGGER                                                           02/02/2023 11:56:17 PAGE 5   

 241   1      }
 242          
 243          


MODULE INFORMATION:   STATIC OVERLAYABLE
   CODE SIZE        =    344    ----
   CONSTANT SIZE    =      6    ----
   XDATA SIZE       =   ----    ----
   PDATA SIZE       =   ----    ----
   DATA SIZE        =      4    ----
   IDATA SIZE       =   ----    ----
   BIT SIZE         =   ----    ----
END OF MODULE INFORMATION.


C51 COMPILATION COMPLETE.  0 WARNING(S),  0 ERROR(S)
