C51 COMPILER V9.60.0.0   REMOTECONTROL                                                     12/13/2022 15:41:48 PAGE 1   


C51 COMPILER V9.60.0.0, COMPILATION OF MODULE REMOTECONTROL
OBJECT MODULE PLACED IN .\obj\RemoteControl.obj
COMPILER INVOKED BY: D:\Keil_v5\C51\BIN\C51.EXE app\RemoteControl.c OPTIMIZE(8,SPEED) BROWSE INCDIR(.\user;.\app) DEBUG 
                    -OBJECTEXTEND PRINT(.\obj\RemoteControl.lst) TABS(2) OBJECT(.\obj\RemoteControl.obj)

line level    source

   1          
   2          
   3          /* Includes ------------------------------------------------------------------*/
   4          #include <main.h>
   5          
   6          /* Private define-------------------------------------------------------------*/
   7          #define DIANDONG 1
   8          
   9          /* Private variables----------------------------------------------------------*/
  10          /* Private function prototypes------------------------------------------------*/
  11          static void QKEY_Detect(void); //按钮开关检测
  12          static void QKEY_StandBy_Flag_Detect(void);// 模式切换按键检测
  13          /* Public variables-----------------------------------------------------------*/
  14          //结构体初始化
  15          RemoteControl_t RemoteControl_1 =
  16            {
  17              FALSE, QKEY_Detect,QKEY_StandBy_Flag_Detect};
  18          
  19          /*
  20           * @name   KEY_Detect
  21           * @brief  按钮开关检测
  22           * @param  None
  23           * @retval None
  24           */
  25          static void QKEY_Detect()
  26          {
  27   1        //单击检测
  28   1        if (Q1 || Q2 || Q3 || Q4 || Q5 || Q6 || Q7 || Q8)
  29   1        {
  30   2          //消抖
  31   2          Public.Delay_ms(200);
  32   2      
  33   2          if (Q1)
  34   2          {
  35   3            RemoteControl_1.QKEY_Clicked = TRUE;
  36   3      
  37   3            // UART1.UART_SendString("Q1 is click");
  38   3      #if DIANDONG
  39   3            JDQ_Run.JDQ_1_FLAG = 1;
  40   3            JDQ1 = OPEN;
  41   3            JDQ2 = CLOSE;
  42   3      
  43   3            while (Q1)
  44   3            {
  45   4              Public.Delay_ms(10);
  46   4            }
  47   3      
  48   3            JDQ1 = CLOSE;
  49   3            JDQ2 = CLOSE;
  50   3            JDQ_Run.JDQ_1_FLAG = 0;
  51   3      
  52   3      #else
              
              #endif
C51 COMPILER V9.60.0.0   REMOTECONTROL                                                     12/13/2022 15:41:48 PAGE 2   

  55   3      
  56   3            Trigger_1.trigger_state = 1;
  57   3          }
  58   2      
  59   2          if (Q2)
  60   2          {
  61   3            RemoteControl_1.QKEY_Clicked = TRUE;
  62   3      
  63   3            // UART1.UART_SendString("Q2 is click");
  64   3      #if DIANDONG
  65   3            JDQ_Run.JDQ_2_FLAG = 1;
  66   3            JDQ1 = CLOSE;
  67   3            JDQ2 = OPEN;
  68   3      
  69   3            while (Q2)
  70   3            {
  71   4              Public.Delay_ms(10);
  72   4            }
  73   3      
  74   3            JDQ1 = CLOSE;
  75   3            JDQ2 = CLOSE;
  76   3            JDQ_Run.JDQ_2_FLAG = 0;
  77   3      
  78   3      #else
              
                    JDQ_Run.JDQ_2_FLAG = !JDQ_Run.JDQ_2_FLAG;
              #endif
  82   3      
  83   3            Trigger_1.trigger_state = 2;
  84   3          }
  85   2      
  86   2          if (Q3)
  87   2          {
  88   3            //打开加热
  89   3            RemoteControl_1.QKEY_Clicked = TRUE;
  90   3      
  91   3            // UART1.UART_SendString("Q3 is click");
  92   3            JDQ_Run.JDQ_8_FLAG = !JDQ_Run.JDQ_8_FLAG;
  93   3            Trigger_1.trigger_state = 8;
  94   3      
  95   3      
  96   3          }
  97   2          //风扇按键 
  98   2          if (Q4)
  99   2          {
 100   3            RemoteControl_1.QKEY_Clicked = TRUE;
 101   3      
 102   3      
 103   3            JDQ_Run.JDQ_9_FLAG = !JDQ_Run.JDQ_9_FLAG;
 104   3      
 105   3            Trigger_1.trigger_state = 9;
 106   3          }
 107   2          //风机按键
 108   2          if (Q5)
 109   2          {
 110   3            RemoteControl_1.QKEY_Clicked = TRUE;
 111   3      
 112   3            JDQ_Run.JDQ_10_FLAG = !JDQ_Run.JDQ_10_FLAG;
 113   3      
 114   3            Trigger_1.trigger_state = 10;
 115   3          }
 116   2          //点火按键
C51 COMPILER V9.60.0.0   REMOTECONTROL                                                     12/13/2022 15:41:48 PAGE 3   

 117   2          if (Q6)
 118   2          {
 119   3            RemoteControl_1.QKEY_Clicked = TRUE;
 120   3      
 121   3      
 122   3            JDQ_Run.JDQ_11_FLAG = !JDQ_Run.JDQ_11_FLAG;
 123   3      
 124   3      
 125   3            Trigger_1.trigger_state = 11;
 126   3          }
 127   2          //一键启动 启动 加热 风扇 风机
 128   2          if (Q7)
 129   2          {
 130   3            RemoteControl_1.QKEY_Clicked = TRUE;
 131   3            JDQ_Run.JDQ_8_FLAG = !JDQ_Run.JDQ_8_FLAG;
 132   3            Trigger_1.trigger_state = 14;
 133   3          }
 134   2          //进入散热/运行模式切换
 135   2          if (Q8)
 136   2          {
 137   3            RemoteControl_1.QKEY_Clicked = TRUE;
 138   3            //按一下 切换系统模式
 139   3            System.ucSystem_Status = !System.ucSystem_Status;
 140   3      
 141   3      
 142   3          }
 143   2        }
 144   1      }
 145          
 146          
 147          
 148          static void QKEY_StandBy_Flag_Detect(void)
 149          {
 150   1        
 151   1        if (Q1 || Q2 || Q3 || Q4 || Q5 || Q6 || Q7 || Q8)
 152   1          {
 153   2            //消抖
 154   2            Public.Delay_ms(200);
 155   2          if(Q8)
 156   2          {
 157   3            RemoteControl_1.QKEY_Clicked = TRUE;
 158   3            //按一下 切换系统模式
 159   3            System.ucSystem_Status = System_RUN;
 160   3          }
 161   2        }
 162   1      }
 163          
 164          
 165          
 166          /********************************************************
 167            End Of File
 168          ********************************************************/


MODULE INFORMATION:   STATIC OVERLAYABLE
   CODE SIZE        =    312    ----
   CONSTANT SIZE    =   ----    ----
   XDATA SIZE       =   ----    ----
   PDATA SIZE       =   ----    ----
   DATA SIZE        =      7    ----
   IDATA SIZE       =   ----    ----
   BIT SIZE         =   ----    ----
C51 COMPILER V9.60.0.0   REMOTECONTROL                                                     12/13/2022 15:41:48 PAGE 4   

END OF MODULE INFORMATION.


C51 COMPILATION COMPLETE.  0 WARNING(S),  0 ERROR(S)
