BL51 BANKED LINKER/LOCATER V6.22.2.0                                                    12/16/2022  09:40:19  PAGE 1


BL51 BANKED LINKER/LOCATER V6.22.2.0, INVOKED BY:
D:\KEIL_V5\C51\BIN\BL51.EXE .\obj\main.obj, .\obj\public.obj, .\obj\Relays.obj, .\obj\Sys_init.obj, .\obj\Timer0.obj, .\
>> obj\UART1.obj, .\obj\RemoteControl.obj, .\obj\Trigger.obj, .\obj\MAX6675.obj, .\obj\Modbus.obj, .\obj\UART2.obj, .\ob
>> j\System.obj TO .\obj\Project-STC15 PRINT (.\obj\Project-STC15.m51) RAMSIZE (256)


MEMORY MODEL: SMALL WITH FLOATING POINT ARITHMETIC


INPUT MODULES INCLUDED:
  .\obj\main.obj (MAIN)
  .\obj\public.obj (PUBLIC)
  .\obj\Relays.obj (RELAYS)
  .\obj\Sys_init.obj (SYS_INIT)
  .\obj\Timer0.obj (TIMER0)
  .\obj\UART1.obj (UART1)
  .\obj\RemoteControl.obj (REMOTECONTROL)
  .\obj\Trigger.obj (TRIGGER)
  .\obj\MAX6675.obj (MAX6675)
  .\obj\Modbus.obj (MODBUS)
  .\obj\UART2.obj (UART2)
  .\obj\System.obj (SYSTEM)
  D:\KEIL_V5\C51\LIB\C51FPS.LIB (?C?FPMUL)
  D:\KEIL_V5\C51\LIB\C51FPS.LIB (?C?FPDIV)
  D:\KEIL_V5\C51\LIB\C51FPS.LIB (?C?FCAST)
  D:\KEIL_V5\C51\LIB\C51FPS.LIB (?C?CASTF)
  D:\KEIL_V5\C51\LIB\C51FPS.LIB (?C?FPGETOPN)
  D:\KEIL_V5\C51\LIB\C51S.LIB (?C_STARTUP)
  D:\KEIL_V5\C51\LIB\C51S.LIB (?C?CLDPTR)
  D:\KEIL_V5\C51\LIB\C51S.LIB (?C?CLDOPTR)
  D:\KEIL_V5\C51\LIB\C51S.LIB (?C?CSTPTR)
  D:\KEIL_V5\C51\LIB\C51S.LIB (?C?CSTOPTR)
  D:\KEIL_V5\C51\LIB\C51S.LIB (?C?LNEG)
  D:\KEIL_V5\C51\LIB\C51S.LIB (?C?PLDOPTR)
  D:\KEIL_V5\C51\LIB\C51S.LIB (?C?ICALL)
  D:\KEIL_V5\C51\LIB\C51S.LIB (?C_INIT)
  D:\KEIL_V5\C51\LIB\C51S.LIB (?C?PLDIDATA)
  D:\KEIL_V5\C51\LIB\C51S.LIB (?C?PLDXDATA)
  D:\KEIL_V5\C51\LIB\C51S.LIB (?C?PLDPDATA)
  D:\KEIL_V5\C51\LIB\C51S.LIB (?C?PLDCODE)


LINK MAP OF MODULE:  .\obj\Project-STC15 (MAIN)


            TYPE    BASE      LENGTH    RELOCATION   SEGMENT NAME
            -----------------------------------------------------

            * * * * * * *   D A T A   M E M O R Y   * * * * * * *
            REG     0000H     0008H     ABSOLUTE     "REG BANK 0"
            DATA    0008H     0014H     UNIT         ?DT?TIMER0
            DATA    001CH     000FH     UNIT         ?DT?MAX6675
            DATA    002BH     000FH     UNIT         ?DT?SYSTEM
            DATA    003AH     0009H     UNIT         ?DT?PUBLIC
            DATA    0043H     0009H     UNIT         ?DT?SYS_INIT
            DATA    004CH     0007H     UNIT         ?DT?REMOTECONTROL
            DATA    0053H     0007H     UNIT         _DATA_GROUP_
            DATA    005AH     0004H     UNIT         ?DT?TRIGGER
BL51 BANKED LINKER/LOCATER V6.22.2.0                                                  12/16/2022  09:40:19  PAGE 2


            DATA    005EH     0002H     UNIT         ?DT?MAIN
            DATA    0060H     0001H     UNIT         ?DT?_PUTCHAR?UART1
            IDATA   0061H     0020H     UNIT         ?ID?UART1
            IDATA   0081H     0020H     UNIT         ?ID?UART2
            IDATA   00A1H     000DH     UNIT         ?ID?RELAYS
            IDATA   00AEH     0001H     UNIT         ?STACK

            * * * * * * *  X D A T A   M E M O R Y  * * * * * * *
            XDATA   0000H     006EH     UNIT         ?XD?UART2
            XDATA   006EH     0028H     UNIT         ?XD?UART1
            XDATA   0096H     0014H     UNIT         ?XD?MAIN
            XDATA   00AAH     0007H     UNIT         ?XD?MODBUS
            XDATA   00B1H     0006H     UNIT         _XDATA_GROUP_

            * * * * * * *   C O D E   M E M O R Y   * * * * * * *
            CODE    0000H     0003H     ABSOLUTE     
            CODE    0003H     0008H     UNIT         ?PR?SPI_DELAY?PUBLIC
            CODE    000BH     0003H     ABSOLUTE     
            CODE    000EH     0013H     UNIT         ?PR?_PUTCHAR?UART1
            CODE    0021H     0001H     UNIT         ?PR?RS485_SET_SENDMODE?UART1
            CODE    0022H     0001H     UNIT         ?PR?RS485_SET_RECMODE?UART1
            CODE    0023H     0003H     ABSOLUTE     
            CODE    0026H     0019H     UNIT         ?CO?SYSTEM
            CODE    003FH     0001H     UNIT         ?PR?RS485_SET_SENDMODE?UART2
            CODE    0040H     0001H     UNIT         ?PR?RS485_SET_RECMODE?UART2
                    0041H     0002H                  *** GAP ***
            CODE    0043H     0003H     ABSOLUTE     
            CODE    0046H     034AH     UNIT         ?C?LIB_CODE
            CODE    0390H     01FDH     UNIT         ?PR?_MODBUS_READ_REGISTER?MODBUS
            CODE    058DH     0193H     UNIT         ?PR?SYS_RUN_CHECK?SYSTEM
            CODE    0720H     0189H     UNIT         ?C_INITSEG
            CODE    08A9H     0155H     UNIT         ?PR?TRIGGER_CONTROL?TRIGGER
            CODE    09FEH     0138H     UNIT         ?PR?_MODBUS_WRTIE_REGISTER?MODBUS
            CODE    0B36H     0112H     UNIT         ?PR?_MODBUS_WRITE_IMEI?MODBUS
            CODE    0C48H     0109H     UNIT         ?PR?QKEY_DETECT?REMOTECONTROL
            CODE    0D51H     00F7H     UNIT         ?PR?_PROTOCOL_ANALYSIS?MODBUS
            CODE    0E48H     00C6H     UNIT         ?PR?_DATAUPDATE?MAIN
            CODE    0F0EH     009EH     UNIT         ?PR?_MODBUS_USE_THE_DEVICE?MODBUS
            CODE    0FACH     008FH     UNIT         ?PR?STANDBY?SYSTEM
            CODE    103BH     008CH     UNIT         ?C_C51STARTUP
            CODE    10C7H     006EH     UNIT         ?PR?_SENDARRAY?UART1
            CODE    1135H     006EH     UNIT         ?PR?_SENDARRAY?UART2
            CODE    11A3H     0068H     UNIT         ?PR?TIMER0_ISR?TIMER0
            CODE    120BH     005EH     UNIT         ?PR?PROTOCOL?UART1
            CODE    1269H     005EH     UNIT         ?PR?PROTOCOL?UART2
            CODE    12C7H     0056H     UNIT         ?PR?_SENDSTRING?UART1
            CODE    131DH     0056H     UNIT         ?PR?_SENDSTRING?UART2
            CODE    1373H     004AH     UNIT         ?PR?UART2_ISR?UART2
            CODE    13BDH     0048H     UNIT         ?PR?MAX6675_READRAWVALUE?MAX6675
            CODE    1405H     0044H     UNIT         ?PR?UART1_ISR?UART1
            CODE    1449H     0043H     UNIT         ?PR?GPIO_INIT?SYS_INIT
            CODE    148CH     0041H     UNIT         ?PR?INIT?UART1
            CODE    14CDH     0038H     UNIT         ?PR?SYS_INIT?SYS_INIT
            CODE    1505H     0038H     UNIT         ?PR?INIT?UART2
            CODE    153DH     0037H     UNIT         ?PR?_MAX6675_READWRITEBYTE?MAX6675
            CODE    1574H     002FH     UNIT         ?PR?QKEY_STANDBY_FLAG_DETECT?REMOTECONTROL
            CODE    15A3H     002EH     UNIT         ?PR?SYS_RUN_UPDATE?SYSTEM
BL51 BANKED LINKER/LOCATER V6.22.2.0                                                  12/16/2022  09:40:19  PAGE 3


            CODE    15D1H     002DH     UNIT         ?PR?RUN?SYSTEM
            CODE    15FEH     002AH     UNIT         ?PR?_MODBUS_BOOT_THE_DEVICE?MODBUS
            CODE    1628H     002AH     UNIT         ?PR?_MODBUS_HEAT_IGNITION?MODBUS
            CODE    1652H     0026H     UNIT         ?PR?_MEMORY_CLR?PUBLIC
            CODE    1678H     0025H     UNIT         ?PR?MAIN?MAIN
            CODE    169DH     0022H     UNIT         ?PR?MAX6675_READTEMPERATURE?MAX6675
            CODE    16BFH     0017H     UNIT         ?PR?_DELAY_MS?PUBLIC
            CODE    16D6H     0011H     UNIT         ?PR?TIMER0_INIT?TIMER0
            CODE    16E7H     000AH     UNIT         ?PR?IE_INIT?SYS_INIT
            CODE    16F1H     000AH     UNIT         ?PR?_SENDDATA?UART1
            CODE    16FBH     000AH     UNIT         ?PR?_SENDDATA?UART2
            CODE    1705H     0006H     UNIT         ?CO?TRIGGER



OVERLAY MAP OF MODULE:   .\obj\Project-STC15 (MAIN)


SEGMENT                                            DATA_GROUP          XDATA_GROUP
  +--> CALLED SEGMENT                            START    LENGTH     START    LENGTH
------------------------------------------------------------------------------------
?C_C51STARTUP                                    -----    -----      -----    -----
  +--> ?PR?MAIN?MAIN
  +--> ?C_INITSEG

?C_INITSEG                                       -----    -----      -----    -----
  +--> ?PR?_DELAY_MS?PUBLIC
  +--> ?PR?SPI_DELAY?PUBLIC
  +--> ?PR?_MEMORY_CLR?PUBLIC
  +--> ?PR?GPIO_INIT?SYS_INIT
  +--> ?PR?IE_INIT?SYS_INIT
  +--> ?PR?SYS_INIT?SYS_INIT
  +--> ?PR?TIMER0_INIT?TIMER0
  +--> ?PR?INIT?UART1
  +--> ?PR?_SENDDATA?UART1
  +--> ?PR?_SENDARRAY?UART1
  +--> ?PR?_SENDSTRING?UART1
  +--> ?PR?PROTOCOL?UART1
  +--> ?PR?RS485_SET_SENDMODE?UART1
  +--> ?PR?RS485_SET_RECMODE?UART1
  +--> ?PR?QKEY_DETECT?REMOTECONTROL
  +--> ?PR?QKEY_STANDBY_FLAG_DETECT?REMOTECO...
  +--> ?PR?TRIGGER_CONTROL?TRIGGER
  +--> ?PR?_MAX6675_READWRITEBYTE?MAX6675
  +--> ?PR?MAX6675_READRAWVALUE?MAX6675
  +--> ?PR?MAX6675_READTEMPERATURE?MAX6675
  +--> ?PR?_PROTOCOL_ANALYSIS?MODBUS
  +--> ?PR?INIT?UART2
  +--> ?PR?_SENDDATA?UART2
  +--> ?PR?_SENDARRAY?UART2
  +--> ?PR?_SENDSTRING?UART2
  +--> ?PR?PROTOCOL?UART2
  +--> ?PR?RS485_SET_SENDMODE?UART2
  +--> ?PR?RS485_SET_RECMODE?UART2
  +--> ?PR?RUN?SYSTEM
  +--> ?PR?STANDBY?SYSTEM

BL51 BANKED LINKER/LOCATER V6.22.2.0                                                  12/16/2022  09:40:19  PAGE 4


?PR?_MEMORY_CLR?PUBLIC                           0053H    0003H      -----    -----

?PR?_SENDARRAY?UART1                             0053H    0007H      -----    -----

?PR?_SENDSTRING?UART1                            0053H    0003H      -----    -----

?PR?TRIGGER_CONTROL?TRIGGER                      -----    -----      -----    -----
  +--> ?CO?TRIGGER
  +--> ?PR?_DATAUPDATE?MAIN

?PR?_DATAUPDATE?MAIN                             0055H    0001H      -----    -----

?PR?_MAX6675_READWRITEBYTE?MAX6675               0055H    0003H      -----    -----

?PR?MAX6675_READRAWVALUE?MAX6675                 0053H    0002H      -----    -----
  +--> ?PR?_MAX6675_READWRITEBYTE?MAX6675

?PR?MAX6675_READTEMPERATURE?MAX6675              -----    -----      -----    -----
  +--> ?PR?MAX6675_READRAWVALUE?MAX6675

?PR?_PROTOCOL_ANALYSIS?MODBUS                    0053H    0001H      00B1H    0003H
  +--> ?PR?_MODBUS_READ_REGISTER?MODBUS
  +--> ?PR?_MODBUS_WRTIE_REGISTER?MODBUS
  +--> ?PR?_MODBUS_WRITE_IMEI?MODBUS
  +--> ?PR?_MODBUS_BOOT_THE_DEVICE?MODBUS
  +--> ?PR?_MODBUS_HEAT_IGNITION?MODBUS
  +--> ?PR?_MODBUS_USE_THE_DEVICE?MODBUS

?PR?_MODBUS_READ_REGISTER?MODBUS                 -----    -----      00B4H    0003H

?PR?_MODBUS_WRTIE_REGISTER?MODBUS                0054H    0001H      00B4H    0003H

?PR?_MODBUS_WRITE_IMEI?MODBUS                    0054H    0001H      00B4H    0003H
  +--> ?PR?_DATAUPDATE?MAIN

?PR?_MODBUS_BOOT_THE_DEVICE?MODBUS               -----    -----      00B4H    0003H

?PR?_MODBUS_HEAT_IGNITION?MODBUS                 -----    -----      00B4H    0003H

?PR?_MODBUS_USE_THE_DEVICE?MODBUS                -----    -----      00B4H    0003H
  +--> ?PR?_DATAUPDATE?MAIN

?PR?_SENDARRAY?UART2                             0053H    0007H      -----    -----

?PR?_SENDSTRING?UART2                            0053H    0003H      -----    -----

?PR?RUN?SYSTEM                                   -----    -----      -----    -----
  +--> ?PR?SYS_RUN_CHECK?SYSTEM
  +--> ?PR?SYS_RUN_UPDATE?SYSTEM

?PR?SYS_RUN_CHECK?SYSTEM                         -----    -----      -----    -----
  +--> ?CO?SYSTEM

?PR?SYS_RUN_UPDATE?SYSTEM                        -----    -----      -----    -----
  +--> ?PR?_DATAUPDATE?MAIN

?PR?STANDBY?SYSTEM                               0053H    0002H      -----    -----
BL51 BANKED LINKER/LOCATER V6.22.2.0                                                  12/16/2022  09:40:19  PAGE 5


  +--> ?PR?_DATAUPDATE?MAIN



SYMBOL TABLE OF MODULE:  .\obj\Project-STC15 (MAIN)

  VALUE           TYPE          NAME
  ----------------------------------

  -------         MODULE        MAIN
  C:0000H         SYMBOL        _ICE_DUMMY_
  D:0080H         PUBLIC        P0
  D:005EH         PUBLIC        StateFlag
  D:0090H         PUBLIC        P1
  D:00A0H         PUBLIC        P2
  D:00B0H         PUBLIC        P3
  D:00C0H         PUBLIC        P4
  D:00C8H         PUBLIC        P5
  D:00E8H         PUBLIC        P6
  D:00F8H         PUBLIC        P7
  D:00A8H         PUBLIC        IE
  D:005FH         PUBLIC        StandBy_Flag
  D:00B8H         PUBLIC        IP
  D:00D8H         PUBLIC        CCON
  C:1678H         PUBLIC        main
  B:0080H.1       PUBLIC        P01
  D:0098H         PUBLIC        SCON
  D:0088H         PUBLIC        TCON
  B:0090H.7       PUBLIC        P17
  X:0096H         PUBLIC        dataUpdate_Buffer
  C:0E48H         PUBLIC        _DataUpdate
  D:00D0H         PUBLIC        PSW
  -------         PROC          MAIN
  C:1678H         LINE#         38
  C:1678H         LINE#         39
  C:1678H         LINE#         42
  C:167EH         LINE#         45
  C:167EH         LINE#         46
  C:167EH         LINE#         47
  C:1683H         LINE#         48
  C:1683H         LINE#         49
  C:1685H         LINE#         50
  C:1687H         LINE#         51
  C:168EH         LINE#         52
  C:1690H         LINE#         54
  C:1690H         LINE#         55
  C:1692H         LINE#         56
  C:1694H         LINE#         57
  C:169BH         LINE#         58
  C:169BH         LINE#         59
  -------         ENDPROC       MAIN
  -------         PROC          _DATAUPDATE
  D:0007H         SYMBOL        flag
  -------         DO            
  D:0055H         SYMBOL        Flag
  -------         ENDDO         
  C:0E48H         LINE#         66
BL51 BANKED LINKER/LOCATER V6.22.2.0                                                  12/16/2022  09:40:19  PAGE 6


  C:0E48H         LINE#         67
  C:0E48H         LINE#         68
  C:0E4AH         LINE#         71
  C:0E53H         LINE#         72
  C:0E5CH         LINE#         75
  C:0E60H         LINE#         78
  C:0E64H         LINE#         81
  C:0E67H         LINE#         82
  C:0E6BH         LINE#         85
  C:0E6EH         LINE#         86
  C:0E73H         LINE#         87
  C:0E77H         LINE#         88
  C:0E7BH         LINE#         89
  C:0E7FH         LINE#         90
  C:0E83H         LINE#         91
  C:0E87H         LINE#         93
  C:0E8CH         LINE#         94
  C:0E90H         LINE#         95
  C:0E94H         LINE#         96
  C:0E98H         LINE#         97
  C:0E9AH         LINE#         98
  C:0E9CH         LINE#         101
  C:0EA8H         LINE#         102
  C:0EA8H         LINE#         103
  C:0EA8H         LINE#         104
  C:0EA8H         LINE#         105
  C:0EAAH         LINE#         107
  C:0EAAH         LINE#         108
  C:0EB4H         LINE#         109
  C:0EB6H         LINE#         111
  C:0EB6H         LINE#         112
  C:0ED2H         LINE#         113
  C:0EDFH         LINE#         114
  C:0EFBH         LINE#         115
  C:0EFBH         LINE#         117
  C:0EFBH         LINE#         118
  C:0EFBH         LINE#         120
  C:0EFBH         LINE#         121
  -------         ENDPROC       _DATAUPDATE
  -------         ENDMOD        MAIN

  -------         MODULE        PUBLIC
  C:0000H         SYMBOL        _ICE_DUMMY_
  C:1652H         PUBLIC        _Memory_Clr
  D:0080H         PUBLIC        P0
  D:0090H         PUBLIC        P1
  D:00A0H         PUBLIC        P2
  D:00B0H         PUBLIC        P3
  D:00C0H         PUBLIC        P4
  D:00C8H         PUBLIC        P5
  D:00E8H         PUBLIC        P6
  D:00F8H         PUBLIC        P7
  D:00A8H         PUBLIC        IE
  D:00B8H         PUBLIC        IP
  D:00D8H         PUBLIC        CCON
  C:16BFH         SYMBOL        _Delay_ms
  D:0098H         PUBLIC        SCON
BL51 BANKED LINKER/LOCATER V6.22.2.0                                                  12/16/2022  09:40:19  PAGE 7


  D:0088H         PUBLIC        TCON
  C:0003H         SYMBOL        SPI_delay
  D:003AH         PUBLIC        Public
  D:00D0H         PUBLIC        PSW
  -------         PROC          _DELAY_MS
  D:0006H         SYMBOL        ms
  -------         DO            
  D:0004H         SYMBOL        i
  -------         ENDDO         
  C:16BFH         LINE#         26
  C:16BFH         LINE#         27
  C:16BFH         LINE#         29
  C:16BFH         LINE#         30
  C:16C3H         LINE#         31
  C:16CCH         LINE#         32
  C:16D5H         LINE#         34
  -------         ENDPROC       _DELAY_MS
  -------         PROC          SPI_DELAY
  -------         DO            
  D:0007H         SYMBOL        i
  -------         ENDDO         
  C:0003H         LINE#         36
  C:0003H         LINE#         37
  C:0003H         LINE#         41
  C:0004H         LINE#         42
  C:0005H         LINE#         43
  C:0006H         LINE#         44
  C:0008H         LINE#         45
  C:000AH         LINE#         48
  -------         ENDPROC       SPI_DELAY
  -------         PROC          _MEMORY_CLR
  D:0053H         SYMBOL        pucBuffer
  D:0004H         SYMBOL        LEN
  -------         DO            
  D:0006H         SYMBOL        i
  -------         ENDDO         
  C:1652H         LINE#         57
  C:1658H         LINE#         58
  C:1658H         LINE#         61
  C:1662H         LINE#         62
  C:1662H         LINE#         63
  C:1670H         LINE#         64
  C:1677H         LINE#         65
  -------         ENDPROC       _MEMORY_CLR
  -------         ENDMOD        PUBLIC

  -------         MODULE        RELAYS
  C:0000H         SYMBOL        _ICE_DUMMY_
  D:0080H         PUBLIC        P0
  D:0090H         PUBLIC        P1
  D:00A0H         PUBLIC        P2
  D:00B0H         PUBLIC        P3
  D:00C0H         PUBLIC        P4
  D:00C8H         PUBLIC        P5
  D:00E8H         PUBLIC        P6
  D:00F8H         PUBLIC        P7
  D:00A8H         PUBLIC        IE
BL51 BANKED LINKER/LOCATER V6.22.2.0                                                  12/16/2022  09:40:19  PAGE 8


  D:00B8H         PUBLIC        IP
  D:00D8H         PUBLIC        CCON
  D:0098H         PUBLIC        SCON
  D:0088H         PUBLIC        TCON
  I:00A1H         PUBLIC        JDQ_Run
  D:00D0H         PUBLIC        PSW
  -------         ENDMOD        RELAYS

  -------         MODULE        SYS_INIT
  C:0000H         SYMBOL        _ICE_DUMMY_
  D:0092H         PUBLIC        P1M0
  D:0093H         PUBLIC        P0M1
  D:0096H         PUBLIC        P2M0
  D:0091H         PUBLIC        P1M1
  D:0080H         PUBLIC        P0
  D:00B2H         PUBLIC        P3M0
  D:0095H         PUBLIC        P2M1
  D:0090H         PUBLIC        P1
  D:00B4H         PUBLIC        P4M0
  D:00B1H         PUBLIC        P3M1
  D:00A0H         PUBLIC        P2
  D:00CAH         PUBLIC        P5M0
  D:00B3H         PUBLIC        P4M1
  D:00B0H         PUBLIC        P3
  D:00C9H         PUBLIC        P5M1
  D:00C0H         PUBLIC        P4
  D:00C8H         PUBLIC        P5
  B:00A8H.7       PUBLIC        EA
  D:00E8H         PUBLIC        P6
  D:00F8H         PUBLIC        P7
  D:00A8H         PUBLIC        IE
  B:00A8H.4       PUBLIC        ES
  D:00B8H         PUBLIC        IP
  D:00D8H         PUBLIC        CCON
  C:16E7H         SYMBOL        IE_init
  C:1449H         SYMBOL        GPIO_Init
  D:0043H         PUBLIC        Hardware_Init
  B:0080H.1       PUBLIC        P01
  B:0080H.2       PUBLIC        P02
  B:0090H.2       PUBLIC        P12
  B:0080H.3       PUBLIC        P03
  D:0098H         PUBLIC        SCON
  B:0090H.3       PUBLIC        P13
  B:0080H.4       PUBLIC        P04
  D:0088H         PUBLIC        TCON
  B:0090H.4       PUBLIC        P14
  B:0080H.5       PUBLIC        P05
  B:0090H.5       PUBLIC        P15
  B:0080H.6       PUBLIC        P06
  C:14CDH         SYMBOL        Sys_Init
  B:0090H.6       PUBLIC        P16
  B:0080H.7       PUBLIC        P07
  B:00A0H.6       PUBLIC        P26
  B:0090H.7       PUBLIC        P17
  B:00A0H.7       PUBLIC        P27
  B:00C0H.7       PUBLIC        P47
  D:00AFH         PUBLIC        IE2
BL51 BANKED LINKER/LOCATER V6.22.2.0                                                  12/16/2022  09:40:19  PAGE 9


  B:00A8H.1       PUBLIC        ET0
  D:00D0H         PUBLIC        PSW
  D:0094H         PUBLIC        P0M0
  -------         PROC          GPIO_INIT
  C:1449H         LINE#         28
  C:1449H         LINE#         29
  C:1449H         LINE#         51
  C:144CH         LINE#         52
  C:144FH         LINE#         64
  C:1452H         LINE#         65
  C:1455H         LINE#         75
  C:1458H         LINE#         76
  C:145BH         LINE#         83
  C:145DH         LINE#         84
  C:1460H         LINE#         98
  C:1463H         LINE#         99
  C:1465H         LINE#         107
  C:1468H         LINE#         108
  C:146BH         LINE#         110
  C:146DH         LINE#         111
  C:146FH         LINE#         113
  C:1471H         LINE#         114
  C:1473H         LINE#         115
  C:1475H         LINE#         116
  C:1477H         LINE#         117
  C:1479H         LINE#         118
  C:147BH         LINE#         119
  C:147DH         LINE#         120
  C:147FH         LINE#         123
  C:1481H         LINE#         124
  C:1483H         LINE#         125
  C:1485H         LINE#         126
  C:1487H         LINE#         127
  C:1489H         LINE#         128
  C:148BH         LINE#         133
  -------         ENDPROC       GPIO_INIT
  -------         PROC          IE_INIT
  C:16E7H         LINE#         141
  C:16E7H         LINE#         142
  C:16E7H         LINE#         154
  C:16E9H         LINE#         156
  C:16EBH         LINE#         157
  C:16EEH         LINE#         159
  C:16F0H         LINE#         163
  -------         ENDPROC       IE_INIT
  -------         PROC          SYS_INIT
  C:14CDH         LINE#         173
  C:14CDH         LINE#         174
  C:14CDH         LINE#         176
  C:14DAH         LINE#         177
  C:14E1H         LINE#         178
  C:14E8H         LINE#         179
  C:14EFH         LINE#         180
  C:14FAH         LINE#         181
  -------         ENDPROC       SYS_INIT
  -------         ENDMOD        SYS_INIT

BL51 BANKED LINKER/LOCATER V6.22.2.0                                                  12/16/2022  09:40:19  PAGE 10


  -------         MODULE        TIMER0
  C:0000H         SYMBOL        _ICE_DUMMY_
  D:0080H         PUBLIC        P0
  D:0090H         PUBLIC        P1
  D:00A0H         PUBLIC        P2
  D:00B0H         PUBLIC        P3
  D:00C0H         PUBLIC        P4
  D:00C8H         PUBLIC        P5
  D:00E8H         PUBLIC        P6
  D:00F8H         PUBLIC        P7
  D:00A8H         PUBLIC        IE
  D:00B8H         PUBLIC        IP
  D:00D8H         PUBLIC        CCON
  C:16D6H         SYMBOL        Timer0_Init
  D:0008H         PUBLIC        Timer0
  D:0098H         PUBLIC        SCON
  D:0089H         PUBLIC        TMOD
  D:0088H         PUBLIC        TCON
  D:008EH         PUBLIC        AUXR
  B:0088H.5       PUBLIC        TF0
  D:008CH         PUBLIC        TH0
  D:008AH         PUBLIC        TL0
  B:0088H.4       PUBLIC        TR0
  C:11A3H         PUBLIC        Timer0_isr
  D:00D0H         PUBLIC        PSW
  -------         PROC          TIMER0_INIT
  C:16D6H         LINE#         33
  C:16D6H         LINE#         34
  C:16D6H         LINE#         36
  C:16D9H         LINE#         37
  C:16DCH         LINE#         38
  C:16DFH         LINE#         39
  C:16E2H         LINE#         40
  C:16E4H         LINE#         41
  C:16E6H         LINE#         43
  -------         ENDPROC       TIMER0_INIT
  -------         PROC          TIMER0_ISR
  C:11A3H         LINE#         52
  C:11A7H         LINE#         55
  C:11B8H         LINE#         56
  C:11B8H         LINE#         57
  C:11BEH         LINE#         58
  C:11BEH         LINE#         59
  C:11C6H         LINE#         61
  C:11CCH         LINE#         62
  C:11CCH         LINE#         63
  C:11D4H         LINE#         64
  C:11D4H         LINE#         65
  C:11DCH         LINE#         66
  C:11E4H         LINE#         67
  C:11ECH         LINE#         68
  C:11F0H         LINE#         69
  C:11F0H         LINE#         70
  C:11F8H         LINE#         71
  C:11F8H         LINE#         73
  C:11FEH         LINE#         74
  C:11FEH         LINE#         75
BL51 BANKED LINKER/LOCATER V6.22.2.0                                                  12/16/2022  09:40:19  PAGE 11


  C:1206H         LINE#         76
  C:1206H         LINE#         79
  -------         ENDPROC       TIMER0_ISR
  -------         ENDMOD        TIMER0

  -------         MODULE        UART1
  C:0000H         SYMBOL        _ICE_DUMMY_
  D:0080H         PUBLIC        P0
  D:0090H         PUBLIC        P1
  D:00A0H         PUBLIC        P2
  D:00B0H         PUBLIC        P3
  D:00C0H         PUBLIC        P4
  D:00C8H         PUBLIC        P5
  D:00E8H         PUBLIC        P6
  D:00F8H         PUBLIC        P7
  C:12C7H         SYMBOL        _SendString
  C:16F1H         SYMBOL        _SendData
  D:00A8H         PUBLIC        IE
  C:10C7H         SYMBOL        _SendArray
  C:148CH         SYMBOL        Init
  D:00B8H         PUBLIC        IP
  B:0098H.0       PUBLIC        RI
  B:0098H.1       PUBLIC        TI
  C:1405H         PUBLIC        UART1_isr
  X:006EH         SYMBOL        ucSend_Buffer
  D:00D8H         PUBLIC        CCON
  D:0099H         PUBLIC        SBUF
  X:0082H         SYMBOL        ucRec_Buffer
  D:0098H         PUBLIC        SCON
  D:0089H         PUBLIC        TMOD
  D:0088H         PUBLIC        TCON
  D:008EH         PUBLIC        AUXR
  C:0021H         SYMBOL        RS485_Set_SendMode
  B:00A8H.3       PUBLIC        ET1
  D:008DH         PUBLIC        TH1
  D:008BH         PUBLIC        TL1
  C:120BH         SYMBOL        Protocol
  B:0088H.6       PUBLIC        TR1
  C:0022H         SYMBOL        RS485_Set_RecMode
  B:0098H.4       PUBLIC        REN
  I:0061H         PUBLIC        UART1
  D:00D0H         PUBLIC        PSW
  C:000EH         PUBLIC        _putchar
  -------         PROC          INIT
  C:148CH         LINE#         59
  C:148CH         LINE#         60
  C:148CH         LINE#         66
  C:148FH         LINE#         67
  C:1492H         LINE#         68
  C:1495H         LINE#         69
  C:1498H         LINE#         71
  C:14A8H         LINE#         72
  C:14A8H         LINE#         73
  C:14B0H         LINE#         74
  C:14B0H         LINE#         75
  C:14B8H         LINE#         76
  C:14C0H         LINE#         77
BL51 BANKED LINKER/LOCATER V6.22.2.0                                                  12/16/2022  09:40:19  PAGE 12


  C:14C6H         LINE#         78
  C:14C6H         LINE#         79
  C:14C8H         LINE#         80
  C:14CAH         LINE#         82
  C:14CCH         LINE#         83
  -------         ENDPROC       INIT
  -------         PROC          _SENDDATA
  D:0007H         SYMBOL        dat
  C:16F1H         LINE#         91
  C:16F1H         LINE#         92
  C:16F1H         LINE#         93
  C:16F6H         LINE#         94
  C:16F8H         LINE#         95
  C:16FAH         LINE#         96
  -------         ENDPROC       _SENDDATA
  -------         PROC          _SENDARRAY
  D:0053H         SYMBOL        p_Arr
  D:0056H         SYMBOL        LEN
  -------         DO            
  D:0058H         SYMBOL        i
  -------         ENDDO         
  C:10C7H         LINE#         104
  C:10D1H         LINE#         105
  C:10D1H         LINE#         106
  C:10D6H         LINE#         108
  C:10E1H         LINE#         110
  C:10F1H         LINE#         111
  C:10F1H         LINE#         112
  C:110FH         LINE#         113
  C:1119H         LINE#         114
  C:111EH         LINE#         115
  C:112AH         LINE#         117
  -------         ENDPROC       _SENDARRAY
  -------         PROC          _SENDSTRING
  D:0053H         SYMBOL        p_Str
  C:12C7H         LINE#         127
  C:12CDH         LINE#         128
  C:12CDH         LINE#         129
  C:12D8H         LINE#         131
  C:12E3H         LINE#         132
  C:12E3H         LINE#         133
  C:12FFH         LINE#         134
  C:1301H         LINE#         135
  C:1306H         LINE#         136
  C:1312H         LINE#         138
  -------         ENDPROC       _SENDSTRING
  -------         PROC          RS485_SET_SENDMODE
  C:0021H         LINE#         147
  C:0021H         LINE#         148
  C:0021H         LINE#         151
  -------         ENDPROC       RS485_SET_SENDMODE
  -------         PROC          RS485_SET_RECMODE
  C:0022H         LINE#         159
  C:0022H         LINE#         160
  C:0022H         LINE#         163
  -------         ENDPROC       RS485_SET_RECMODE
  -------         PROC          _PUTCHAR
BL51 BANKED LINKER/LOCATER V6.22.2.0                                                  12/16/2022  09:40:19  PAGE 13


  D:0060H         SYMBOL        c
  C:000EH         LINE#         168
  C:0010H         LINE#         169
  C:0010H         LINE#         170
  C:001EH         LINE#         171
  C:0020H         LINE#         172
  -------         ENDPROC       _PUTCHAR
  -------         PROC          UART1_ISR
  C:1405H         LINE#         182
  C:1412H         LINE#         184
  C:1415H         LINE#         185
  C:1415H         LINE#         186
  C:1417H         LINE#         188
  C:1423H         LINE#         189
  C:1423H         LINE#         190
  C:1431H         LINE#         191
  C:1431H         LINE#         193
  C:1435H         LINE#         194
  C:1435H         LINE#         196
  C:1438H         LINE#         197
  C:1438H         LINE#         198
  C:143AH         LINE#         199
  C:143EH         LINE#         200
  C:143EH         LINE#         201
  -------         ENDPROC       UART1_ISR
  -------         PROC          PROTOCOL
  C:120BH         LINE#         211
  C:120BH         LINE#         212
  C:120BH         LINE#         213
  C:1212H         LINE#         214
  C:1212H         LINE#         218
  C:1218H         LINE#         219
  C:1218H         LINE#         220
  C:121DH         LINE#         221
  C:1229H         LINE#         222
  C:1229H         LINE#         224
  C:1234H         LINE#         225
  C:1234H         LINE#         226
  C:1234H         LINE#         229
  C:124DH         LINE#         230
  C:124DH         LINE#         233
  C:1262H         LINE#         236
  C:1266H         LINE#         237
  C:1268H         LINE#         238
  C:1268H         LINE#         239
  -------         ENDPROC       PROTOCOL
  -------         ENDMOD        UART1

  -------         MODULE        REMOTECONTROL
  C:0000H         SYMBOL        _ICE_DUMMY_
  D:0080H         PUBLIC        P0
  D:0090H         PUBLIC        P1
  D:00A0H         PUBLIC        P2
  D:00B0H         PUBLIC        P3
  D:00C0H         PUBLIC        P4
  D:00C8H         PUBLIC        P5
  D:00E8H         PUBLIC        P6
BL51 BANKED LINKER/LOCATER V6.22.2.0                                                  12/16/2022  09:40:19  PAGE 14


  D:00F8H         PUBLIC        P7
  D:00A8H         PUBLIC        IE
  D:00B8H         PUBLIC        IP
  D:00D8H         PUBLIC        CCON
  B:00A0H.0       PUBLIC        P20
  B:00A0H.1       PUBLIC        P21
  D:0098H         PUBLIC        SCON
  B:00A0H.2       PUBLIC        P22
  D:0088H         PUBLIC        TCON
  B:00A0H.3       PUBLIC        P23
  B:00C0H.2       PUBLIC        P42
  B:00A0H.4       PUBLIC        P24
  B:0080H.6       PUBLIC        P06
  B:00C0H.3       PUBLIC        P43
  B:0080H.7       PUBLIC        P07
  B:00C0H.4       PUBLIC        P44
  D:004CH         PUBLIC        RemoteControl_1
  C:1574H         SYMBOL        QKEY_StandBy_Flag_Detect
  C:0C48H         SYMBOL        QKEY_Detect
  D:00D0H         PUBLIC        PSW
  -------         PROC          QKEY_DETECT
  C:0C48H         LINE#         25
  C:0C48H         LINE#         26
  C:0C48H         LINE#         28
  C:0C63H         LINE#         29
  C:0C63H         LINE#         31
  C:0C70H         LINE#         33
  C:0C73H         LINE#         34
  C:0C73H         LINE#         35
  C:0C76H         LINE#         39
  C:0C7AH         LINE#         40
  C:0C7CH         LINE#         41
  C:0C7EH         LINE#         43
  C:0C81H         LINE#         44
  C:0C81H         LINE#         45
  C:0C8EH         LINE#         46
  C:0C90H         LINE#         48
  C:0C92H         LINE#         49
  C:0C94H         LINE#         50
  C:0C98H         LINE#         56
  C:0C9BH         LINE#         57
  C:0C9BH         LINE#         59
  C:0C9EH         LINE#         60
  C:0C9EH         LINE#         61
  C:0CA1H         LINE#         65
  C:0CA5H         LINE#         66
  C:0CA7H         LINE#         67
  C:0CA9H         LINE#         69
  C:0CACH         LINE#         70
  C:0CACH         LINE#         71
  C:0CB9H         LINE#         72
  C:0CBBH         LINE#         74
  C:0CBDH         LINE#         75
  C:0CBFH         LINE#         76
  C:0CC3H         LINE#         83
  C:0CC6H         LINE#         84
  C:0CC6H         LINE#         86
BL51 BANKED LINKER/LOCATER V6.22.2.0                                                  12/16/2022  09:40:19  PAGE 15


  C:0CC9H         LINE#         87
  C:0CC9H         LINE#         89
  C:0CCCH         LINE#         92
  C:0CDBH         LINE#         93
  C:0CDEH         LINE#         96
  C:0CDEH         LINE#         98
  C:0CE1H         LINE#         99
  C:0CE1H         LINE#         100
  C:0CE4H         LINE#         103
  C:0CF3H         LINE#         105
  C:0CF6H         LINE#         106
  C:0CF6H         LINE#         108
  C:0CF9H         LINE#         109
  C:0CF9H         LINE#         110
  C:0CFCH         LINE#         112
  C:0D0BH         LINE#         114
  C:0D0EH         LINE#         115
  C:0D0EH         LINE#         117
  C:0D11H         LINE#         118
  C:0D11H         LINE#         119
  C:0D14H         LINE#         122
  C:0D23H         LINE#         125
  C:0D26H         LINE#         126
  C:0D26H         LINE#         128
  C:0D29H         LINE#         129
  C:0D29H         LINE#         130
  C:0D2CH         LINE#         131
  C:0D3BH         LINE#         132
  C:0D3EH         LINE#         133
  C:0D3EH         LINE#         135
  C:0D41H         LINE#         136
  C:0D41H         LINE#         137
  C:0D44H         LINE#         139
  C:0D50H         LINE#         142
  C:0D50H         LINE#         143
  C:0D50H         LINE#         144
  -------         ENDPROC       QKEY_DETECT
  -------         PROC          QKEY_STANDBY_FLAG_DETECT
  C:1574H         LINE#         148
  C:1574H         LINE#         149
  C:1574H         LINE#         151
  C:158CH         LINE#         152
  C:158CH         LINE#         154
  C:1599H         LINE#         155
  C:159CH         LINE#         156
  C:159CH         LINE#         157
  C:159FH         LINE#         159
  C:15A2H         LINE#         160
  C:15A2H         LINE#         161
  C:15A2H         LINE#         162
  -------         ENDPROC       QKEY_STANDBY_FLAG_DETECT
  -------         ENDMOD        REMOTECONTROL

  -------         MODULE        TRIGGER
  C:0000H         SYMBOL        _ICE_DUMMY_
  D:0080H         PUBLIC        P0
  D:0090H         PUBLIC        P1
BL51 BANKED LINKER/LOCATER V6.22.2.0                                                  12/16/2022  09:40:19  PAGE 16


  D:00A0H         PUBLIC        P2
  D:00B0H         PUBLIC        P3
  D:00C0H         PUBLIC        P4
  D:00C8H         PUBLIC        P5
  D:00E8H         PUBLIC        P6
  D:00F8H         PUBLIC        P7
  D:00A8H         PUBLIC        IE
  D:00B8H         PUBLIC        IP
  C:08A9H         SYMBOL        Trigger_Control
  D:00D8H         PUBLIC        CCON
  B:0080H.2       PUBLIC        P02
  B:0090H.2       PUBLIC        P12
  B:0080H.3       PUBLIC        P03
  D:0098H         PUBLIC        SCON
  B:0090H.3       PUBLIC        P13
  B:0080H.4       PUBLIC        P04
  D:0088H         PUBLIC        TCON
  B:0090H.4       PUBLIC        P14
  B:0080H.5       PUBLIC        P05
  B:0090H.5       PUBLIC        P15
  B:0080H.6       PUBLIC        P06
  B:0090H.6       PUBLIC        P16
  B:0080H.7       PUBLIC        P07
  B:00C0H.7       PUBLIC        P47
  D:005AH         PUBLIC        Trigger_1
  C:1705H         PUBLIC        close_device
  D:00D0H         PUBLIC        PSW
  -------         PROC          TRIGGER_CONTROL
  C:08A9H         LINE#         33
  C:08A9H         LINE#         34
  C:08A9H         LINE#         37
  C:08B0H         LINE#         38
  C:08B0H         LINE#         40
  C:08F1H         LINE#         41
  C:08F1H         LINE#         42
  C:08F1H         LINE#         43
  C:08F5H         LINE#         45
  C:08F9H         LINE#         46
  C:08F9H         LINE#         47
  C:08FBH         LINE#         48
  C:08FDH         LINE#         49
  C:0900H         LINE#         51
  C:0900H         LINE#         52
  C:0902H         LINE#         53
  C:0904H         LINE#         54
  C:0908H         LINE#         55
  C:0908H         LINE#         57
  C:0908H         LINE#         58
  C:090BH         LINE#         60
  C:090BH         LINE#         61
  C:090FH         LINE#         63
  C:0913H         LINE#         64
  C:0913H         LINE#         65
  C:0915H         LINE#         66
  C:0917H         LINE#         67
  C:0919H         LINE#         69
  C:0919H         LINE#         70
BL51 BANKED LINKER/LOCATER V6.22.2.0                                                  12/16/2022  09:40:19  PAGE 17


  C:091BH         LINE#         71
  C:091DH         LINE#         72
  C:0921H         LINE#         73
  C:0921H         LINE#         75
  C:0921H         LINE#         76
  C:0924H         LINE#         78
  C:0924H         LINE#         84
  C:0924H         LINE#         87
  C:0924H         LINE#         88
  C:0927H         LINE#         90
  C:0927H         LINE#         97
  C:0927H         LINE#         98
  C:092BH         LINE#         100
  C:092DH         LINE#         101
  C:0930H         LINE#         103
  C:0930H         LINE#         104
  C:0930H         LINE#         106
  C:0930H         LINE#         107
  C:0935H         LINE#         108
  C:0935H         LINE#         109
  C:0937H         LINE#         110
  C:0939H         LINE#         111
  C:093BH         LINE#         113
  C:093BH         LINE#         114
  C:093DH         LINE#         115
  C:093FH         LINE#         116
  C:093FH         LINE#         118
  C:093FH         LINE#         119
  C:0942H         LINE#         121
  C:0942H         LINE#         122
  C:0947H         LINE#         123
  C:0947H         LINE#         124
  C:0949H         LINE#         125
  C:094BH         LINE#         126
  C:094DH         LINE#         128
  C:094DH         LINE#         129
  C:094FH         LINE#         130
  C:0951H         LINE#         131
  C:0951H         LINE#         133
  C:0951H         LINE#         134
  C:0954H         LINE#         136
  C:0954H         LINE#         137
  C:0959H         LINE#         138
  C:0959H         LINE#         139
  C:095BH         LINE#         140
  C:095DH         LINE#         141
  C:095FH         LINE#         143
  C:095FH         LINE#         144
  C:0961H         LINE#         145
  C:0963H         LINE#         146
  C:0963H         LINE#         148
  C:0963H         LINE#         149
  C:0966H         LINE#         151
  C:0966H         LINE#         152
  C:096BH         LINE#         153
  C:096BH         LINE#         155
  C:0970H         LINE#         156
BL51 BANKED LINKER/LOCATER V6.22.2.0                                                  12/16/2022  09:40:19  PAGE 18


  C:0972H         LINE#         157
  C:0974H         LINE#         158
  C:0976H         LINE#         159
  C:0978H         LINE#         161
  C:097BH         LINE#         164
  C:097EH         LINE#         165
  C:0980H         LINE#         167
  C:0980H         LINE#         168
  C:0982H         LINE#         169
  C:0984H         LINE#         170
  C:0986H         LINE#         171
  C:0988H         LINE#         173
  C:098BH         LINE#         174
  C:098BH         LINE#         176
  C:098BH         LINE#         177
  C:098DH         LINE#         179
  C:098DH         LINE#         180
  C:0991H         LINE#         181
  C:0993H         LINE#         182
  C:0995H         LINE#         183
  C:0997H         LINE#         184
  C:0999H         LINE#         185
  C:099BH         LINE#         186
  C:099DH         LINE#         188
  C:099DH         LINE#         191
  C:09A2H         LINE#         192
  C:09A2H         LINE#         193
  C:09A4H         LINE#         194
  C:09A6H         LINE#         195
  C:09A8H         LINE#         197
  C:09AAH         LINE#         198
  C:09ACH         LINE#         199
  C:09AEH         LINE#         200
  C:09B1H         LINE#         201
  C:09B4H         LINE#         202
  C:09B7H         LINE#         203
  C:09BAH         LINE#         204
  C:09BCH         LINE#         206
  C:09BCH         LINE#         207
  C:09BEH         LINE#         208
  C:09C0H         LINE#         209
  C:09C3H         LINE#         210
  C:09C5H         LINE#         211
  C:09C9H         LINE#         212
  C:09E5H         LINE#         213
  C:09EAH         LINE#         214
  C:09EDH         LINE#         215
  C:09EFH         LINE#         216
  C:09EFH         LINE#         217
  C:09F2H         LINE#         218
  C:09F2H         LINE#         220
  C:09F2H         LINE#         221
  C:09F2H         LINE#         222
  C:09F2H         LINE#         223
  C:09F2H         LINE#         224
  C:09F2H         LINE#         226
  C:09F8H         LINE#         227
BL51 BANKED LINKER/LOCATER V6.22.2.0                                                  12/16/2022  09:40:19  PAGE 19


  C:09F8H         LINE#         228
  C:09FDH         LINE#         229
  C:09FDH         LINE#         230
  C:09FDH         LINE#         231
  -------         ENDPROC       TRIGGER_CONTROL
  -------         ENDMOD        TRIGGER

  -------         MODULE        MAX6675
  C:0000H         SYMBOL        _ICE_DUMMY_
  D:0080H         PUBLIC        P0
  D:0090H         PUBLIC        P1
  D:00A0H         PUBLIC        P2
  D:00B0H         PUBLIC        P3
  D:00C0H         PUBLIC        P4
  D:00C8H         PUBLIC        P5
  D:00E8H         PUBLIC        P6
  D:00F8H         PUBLIC        P7
  D:001CH         PUBLIC        temperature_t
  D:00A8H         PUBLIC        IE
  D:00B8H         PUBLIC        IP
  D:00D8H         PUBLIC        CCON
  D:0098H         PUBLIC        SCON
  D:0088H         PUBLIC        TCON
  C:169DH         SYMBOL        max6675_readTemperature
  B:00A0H.5       PUBLIC        P25
  B:00A0H.6       PUBLIC        P26
  B:00A0H.7       PUBLIC        P27
  C:153DH         SYMBOL        _max6675_readWriteByte
  C:13BDH         SYMBOL        max6675_readRawValue
  D:00D0H         PUBLIC        PSW
  -------         PROC          _MAX6675_READWRITEBYTE
  D:0055H         SYMBOL        txData
  -------         DO            
  D:0056H         SYMBOL        temp
  D:0057H         SYMBOL        dat
  -------         ENDDO         
  C:153DH         LINE#         41
  C:153FH         LINE#         42
  C:153FH         LINE#         43
  C:1542H         LINE#         44
  C:1544H         LINE#         45
  C:154BH         LINE#         46
  C:154BH         LINE#         47
  C:154DH         LINE#         48
  C:1554H         LINE#         49
  C:1556H         LINE#         50
  C:155DH         LINE#         51
  C:1562H         LINE#         52
  C:1562H         LINE#         53
  C:1564H         LINE#         54
  C:1566H         LINE#         56
  C:1566H         LINE#         57
  C:1569H         LINE#         58
  C:1569H         LINE#         59
  C:1571H         LINE#         60
  C:1573H         LINE#         62
  -------         ENDPROC       _MAX6675_READWRITEBYTE
BL51 BANKED LINKER/LOCATER V6.22.2.0                                                  12/16/2022  09:40:19  PAGE 20


  -------         PROC          MAX6675_READRAWVALUE
  -------         DO            
  D:0053H         SYMBOL        tmp
  -------         ENDDO         
  C:13BDH         LINE#         64
  C:13BDH         LINE#         65
  C:13BDH         LINE#         66
  C:13C2H         LINE#         68
  C:13C4H         LINE#         69
  C:13CEH         LINE#         70
  C:13D5H         LINE#         71
  C:13DDH         LINE#         74
  C:13DFH         LINE#         75
  C:13E4H         LINE#         76
  C:13E4H         LINE#         79
  C:13EAH         LINE#         81
  C:13ECH         LINE#         83
  C:13ECH         LINE#         84
  C:13FDH         LINE#         85
  C:13FDH         LINE#         86
  C:1400H         LINE#         87
  C:1404H         LINE#         88
  -------         ENDPROC       MAX6675_READRAWVALUE
  -------         PROC          MAX6675_READTEMPERATURE
  C:169DH         LINE#         90
  C:169DH         LINE#         91
  C:169DH         LINE#         92
  -------         ENDPROC       MAX6675_READTEMPERATURE
  -------         ENDMOD        MAX6675

  -------         MODULE        MODBUS
  C:0000H         SYMBOL        _ICE_DUMMY_
  D:0080H         PUBLIC        P0
  D:0090H         PUBLIC        P1
  C:0D51H         SYMBOL        _Protocol_Analysis
  D:00A0H         PUBLIC        P2
  D:00B0H         PUBLIC        P3
  D:00C0H         PUBLIC        P4
  D:00C8H         PUBLIC        P5
  D:00E8H         PUBLIC        P6
  D:00F8H         PUBLIC        P7
  C:09FEH         SYMBOL        _Modbus_Wrtie_Register
  D:00A8H         PUBLIC        IE
  D:00B8H         PUBLIC        IP
  C:15FEH         SYMBOL        _Modbus_Boot_The_Device
  D:00D8H         PUBLIC        CCON
  C:0F0EH         SYMBOL        _Modbus_Use_The_Device
  D:0098H         PUBLIC        SCON
  D:0088H         PUBLIC        TCON
  C:0B41H         SYMBOL        _Modbus_Write_Imei
  X:00AAH         PUBLIC        Modbus
  C:0390H         SYMBOL        _Modbus_Read_Register
  C:1628H         SYMBOL        _Modbus_Heat_Ignition
  D:00D0H         PUBLIC        PSW
  -------         PROC          _PROTOCOL_ANALYSIS
  D:0001H         SYMBOL        UART
  -------         DO            
BL51 BANKED LINKER/LOCATER V6.22.2.0                                                  12/16/2022  09:40:19  PAGE 21


  X:00B1H         SYMBOL        COM
  D:0053H         SYMBOL        i
  -------         ENDDO         
  C:0D51H         LINE#         43
  C:0D51H         LINE#         44
  C:0D51H         LINE#         45
  C:0D5CH         LINE#         46
  C:0D5FH         LINE#         49
  C:0DA5H         LINE#         50
  C:0DA5H         LINE#         52
  C:0DC0H         LINE#         53
  C:0DC0H         LINE#         54
  C:0DC0H         LINE#         55
  C:0DCEH         LINE#         56
  C:0DD0H         LINE#         58
  C:0DD0H         LINE#         59
  C:0DDEH         LINE#         60
  C:0DE0H         LINE#         62
  C:0DE0H         LINE#         63
  C:0DE3H         LINE#         64
  C:0DE5H         LINE#         66
  C:0DE5H         LINE#         67
  C:0DF3H         LINE#         68
  C:0DF5H         LINE#         70
  C:0DF5H         LINE#         71
  C:0E03H         LINE#         72
  C:0E05H         LINE#         74
  C:0E05H         LINE#         75
  C:0E13H         LINE#         77
  C:0E13H         LINE#         78
  C:0E13H         LINE#         79
  C:0E13H         LINE#         80
  C:0E13H         LINE#         81
  C:0E44H         LINE#         82
  C:0E44H         LINE#         83
  C:0E47H         LINE#         85
  C:0E47H         LINE#         86
  -------         ENDPROC       _PROTOCOL_ANALYSIS
  -------         PROC          _MODBUS_READ_REGISTER
  D:0001H         SYMBOL        UART
  -------         DO            
  X:00B4H         SYMBOL        COM
  -------         ENDDO         
  C:0390H         LINE#         95
  C:0390H         LINE#         96
  C:0390H         LINE#         97
  C:039BH         LINE#         101
  C:03ABH         LINE#         102
  C:03C9H         LINE#         105
  C:03E2H         LINE#         108
  C:03FBH         LINE#         111
  C:0413H         LINE#         112
  C:042DH         LINE#         115
  C:0445H         LINE#         116
  C:0461H         LINE#         117
  C:047DH         LINE#         118
  C:0499H         LINE#         119
BL51 BANKED LINKER/LOCATER V6.22.2.0                                                  12/16/2022  09:40:19  PAGE 22


  C:04B5H         LINE#         120
  C:04D1H         LINE#         121
  C:04EDH         LINE#         122
  C:0509H         LINE#         123
  C:0525H         LINE#         124
  C:0541H         LINE#         125
  C:055DH         LINE#         126
  C:0575H         LINE#         127
  -------         ENDPROC       _MODBUS_READ_REGISTER
  -------         PROC          _MODBUS_WRTIE_REGISTER
  D:0001H         SYMBOL        UART
  -------         DO            
  X:00B4H         SYMBOL        COM
  D:0054H         SYMBOL        i
  -------         ENDDO         
  C:09FEH         LINE#         142
  C:09FEH         LINE#         143
  C:09FEH         LINE#         144
  C:0A09H         LINE#         145
  C:0A0CH         LINE#         156
  C:0A6AH         LINE#         157
  C:0A6AH         LINE#         158
  C:0A6AH         LINE#         159
  C:0A75H         LINE#         160
  C:0A78H         LINE#         161
  C:0A79H         LINE#         163
  C:0A79H         LINE#         164
  C:0A84H         LINE#         165
  C:0A87H         LINE#         166
  C:0A88H         LINE#         168
  C:0A88H         LINE#         169
  C:0A93H         LINE#         170
  C:0A96H         LINE#         171
  C:0A97H         LINE#         173
  C:0A97H         LINE#         174
  C:0AA2H         LINE#         175
  C:0AA5H         LINE#         176
  C:0AA6H         LINE#         178
  C:0AA6H         LINE#         179
  C:0AB1H         LINE#         180
  C:0AB4H         LINE#         181
  C:0AB5H         LINE#         183
  C:0AB5H         LINE#         184
  C:0AC0H         LINE#         185
  C:0AC3H         LINE#         186
  C:0AC4H         LINE#         188
  C:0AC4H         LINE#         189
  C:0AC4H         LINE#         191
  C:0AC4H         LINE#         192
  C:0ACFH         LINE#         193
  C:0AD2H         LINE#         194
  C:0AD3H         LINE#         196
  C:0AD3H         LINE#         197
  C:0ADEH         LINE#         198
  C:0AE1H         LINE#         199
  C:0AE2H         LINE#         201
  C:0AE2H         LINE#         202
BL51 BANKED LINKER/LOCATER V6.22.2.0                                                  12/16/2022  09:40:19  PAGE 23


  C:0AEDH         LINE#         203
  C:0AF0H         LINE#         204
  C:0AF1H         LINE#         206
  C:0AF1H         LINE#         207
  C:0AFCH         LINE#         208
  C:0AFFH         LINE#         209
  C:0B00H         LINE#         211
  C:0B00H         LINE#         212
  C:0B0BH         LINE#         213
  C:0B0EH         LINE#         214
  C:0B0FH         LINE#         216
  C:0B0FH         LINE#         217
  C:0B1AH         LINE#         218
  C:0B1DH         LINE#         219
  C:0B1EH         LINE#         222
  C:0B1EH         LINE#         224
  C:0B29H         LINE#         226
  C:0B2AH         LINE#         229
  C:0B2AH         LINE#         230
  C:0B35H         LINE#         232
  C:0B35H         LINE#         235
  C:0B35H         LINE#         237
  C:0B35H         LINE#         239
  C:0B35H         LINE#         240
  C:0B35H         LINE#         241
  C:0B35H         LINE#         244
  -------         ENDPROC       _MODBUS_WRTIE_REGISTER
  -------         PROC          L?0051
  -------         ENDPROC       L?0051
  -------         PROC          _MODBUS_WRITE_IMEI
  D:0001H         SYMBOL        UART
  -------         DO            
  X:00B4H         SYMBOL        COM
  D:0054H         SYMBOL        i
  -------         ENDDO         
  C:0B41H         LINE#         253
  C:0B41H         LINE#         254
  C:0B41H         LINE#         255
  C:0B4CH         LINE#         256
  C:0B4FH         LINE#         261
  C:0B6AH         LINE#         262
  C:0B88H         LINE#         265
  C:0BA1H         LINE#         268
  C:0BBAH         LINE#         270
  C:0BC8H         LINE#         271
  C:0BC8H         LINE#         272
  C:0C08H         LINE#         273
  C:0C0CH         LINE#         275
  C:0C33H         LINE#         277
  C:0C36H         LINE#         279
  C:0C3BH         LINE#         281
  -------         ENDPROC       _MODBUS_WRITE_IMEI
  -------         PROC          _MODBUS_BOOT_THE_DEVICE
  D:0001H         SYMBOL        UART
  -------         DO            
  X:00B4H         SYMBOL        COM
  -------         ENDDO         
BL51 BANKED LINKER/LOCATER V6.22.2.0                                                  12/16/2022  09:40:19  PAGE 24


  C:15FEH         LINE#         294
  C:15FEH         LINE#         295
  C:15FEH         LINE#         296
  C:1609H         LINE#         298
  C:1619H         LINE#         299
  C:1619H         LINE#         300
  C:1624H         LINE#         301
  C:1627H         LINE#         302
  C:1627H         LINE#         303
  -------         ENDPROC       _MODBUS_BOOT_THE_DEVICE
  -------         PROC          _MODBUS_HEAT_IGNITION
  D:0001H         SYMBOL        UART
  -------         DO            
  X:00B4H         SYMBOL        COM
  -------         ENDDO         
  C:1628H         LINE#         314
  C:1628H         LINE#         315
  C:1628H         LINE#         316
  C:1633H         LINE#         318
  C:1643H         LINE#         319
  C:1643H         LINE#         320
  C:164EH         LINE#         321
  C:1651H         LINE#         322
  C:1651H         LINE#         323
  -------         ENDPROC       _MODBUS_HEAT_IGNITION
  -------         PROC          _MODBUS_USE_THE_DEVICE
  D:0001H         SYMBOL        UART
  -------         DO            
  X:00B4H         SYMBOL        COM
  D:0007H         SYMBOL        i
  -------         ENDDO         
  C:0F0EH         LINE#         334
  C:0F0EH         LINE#         335
  C:0F0EH         LINE#         336
  C:0F19H         LINE#         337
  C:0F1BH         LINE#         339
  C:0F2BH         LINE#         340
  C:0F2BH         LINE#         341
  C:0F35H         LINE#         342
  C:0F35H         LINE#         343
  C:0F38H         LINE#         344
  C:0F3AH         LINE#         346
  C:0F3AH         LINE#         347
  C:0F3DH         LINE#         348
  C:0F3DH         LINE#         349
  C:0F3DH         LINE#         352
  C:0F49H         LINE#         353
  C:0F49H         LINE#         354
  C:0F7DH         LINE#         355
  C:0F80H         LINE#         358
  C:0FA7H         LINE#         360
  -------         ENDPROC       _MODBUS_USE_THE_DEVICE
  -------         ENDMOD        MODBUS

  -------         MODULE        UART2
  C:0000H         SYMBOL        _ICE_DUMMY_
  D:0080H         PUBLIC        P0
BL51 BANKED LINKER/LOCATER V6.22.2.0                                                  12/16/2022  09:40:19  PAGE 25


  D:0090H         PUBLIC        P1
  D:00A0H         PUBLIC        P2
  D:00B0H         PUBLIC        P3
  D:00C0H         PUBLIC        P4
  D:00C8H         PUBLIC        P5
  D:00E8H         PUBLIC        P6
  D:00F8H         PUBLIC        P7
  C:131DH         SYMBOL        _SendString
  C:16FBH         SYMBOL        _SendData
  D:00A8H         PUBLIC        IE
  C:1135H         SYMBOL        _SendArray
  C:1505H         SYMBOL        Init
  D:00B8H         PUBLIC        IP
  C:1373H         PUBLIC        UART2_isr
  X:0000H         SYMBOL        ucSend_Buffer
  D:00D8H         PUBLIC        CCON
  X:000AH         SYMBOL        ucRec_Buffer
  D:0098H         PUBLIC        SCON
  D:0088H         PUBLIC        TCON
  D:008EH         PUBLIC        AUXR
  C:003FH         SYMBOL        RS485_Set_SendMode
  D:00D6H         PUBLIC        T2H
  D:00D7H         PUBLIC        T2L
  C:1269H         SYMBOL        Protocol
  C:0040H         SYMBOL        RS485_Set_RecMode
  D:009BH         PUBLIC        S2BUF
  D:009AH         PUBLIC        S2CON
  I:0081H         PUBLIC        UART2
  D:00D0H         PUBLIC        PSW
  -------         PROC          INIT
  C:1505H         LINE#         56
  C:1505H         LINE#         57
  C:1505H         LINE#         58
  C:1508H         LINE#         59
  C:150BH         LINE#         61
  C:151BH         LINE#         62
  C:151BH         LINE#         63
  C:1520H         LINE#         64
  C:1520H         LINE#         65
  C:1528H         LINE#         66
  C:1530H         LINE#         67
  C:1536H         LINE#         68
  C:1536H         LINE#         69
  C:1539H         LINE#         71
  C:153CH         LINE#         72
  -------         ENDPROC       INIT
  -------         PROC          _SENDDATA
  D:0007H         SYMBOL        dat
  C:16FBH         LINE#         80
  C:16FBH         LINE#         81
  C:16FBH         LINE#         82
  C:1700H         LINE#         83
  C:1702H         LINE#         84
  C:1704H         LINE#         85
  -------         ENDPROC       _SENDDATA
  -------         PROC          _SENDARRAY
  D:0053H         SYMBOL        p_Arr
BL51 BANKED LINKER/LOCATER V6.22.2.0                                                  12/16/2022  09:40:19  PAGE 26


  D:0056H         SYMBOL        LEN
  -------         DO            
  D:0058H         SYMBOL        i
  -------         ENDDO         
  C:1135H         LINE#         93
  C:113FH         LINE#         94
  C:113FH         LINE#         95
  C:1144H         LINE#         97
  C:114FH         LINE#         99
  C:115FH         LINE#         100
  C:115FH         LINE#         101
  C:117DH         LINE#         102
  C:1187H         LINE#         103
  C:118CH         LINE#         104
  C:1198H         LINE#         106
  -------         ENDPROC       _SENDARRAY
  -------         PROC          _SENDSTRING
  D:0053H         SYMBOL        p_Str
  C:131DH         LINE#         116
  C:1323H         LINE#         117
  C:1323H         LINE#         118
  C:132EH         LINE#         120
  C:1339H         LINE#         121
  C:1339H         LINE#         122
  C:1355H         LINE#         123
  C:1357H         LINE#         124
  C:135CH         LINE#         125
  C:1368H         LINE#         127
  -------         ENDPROC       _SENDSTRING
  -------         PROC          RS485_SET_SENDMODE
  C:003FH         LINE#         137
  C:003FH         LINE#         138
  C:003FH         LINE#         140
  -------         ENDPROC       RS485_SET_SENDMODE
  -------         PROC          RS485_SET_RECMODE
  C:0040H         LINE#         148
  C:0040H         LINE#         149
  C:0040H         LINE#         151
  -------         ENDPROC       RS485_SET_RECMODE
  -------         PROC          UART2_ISR
  C:1373H         LINE#         159
  C:1380H         LINE#         162
  C:1385H         LINE#         163
  C:1385H         LINE#         164
  C:1388H         LINE#         166
  C:1394H         LINE#         167
  C:1394H         LINE#         168
  C:13A2H         LINE#         169
  C:13A2H         LINE#         171
  C:13A6H         LINE#         172
  C:13A6H         LINE#         175
  C:13ABH         LINE#         176
  C:13ABH         LINE#         177
  C:13AEH         LINE#         178
  C:13B2H         LINE#         179
  C:13B2H         LINE#         180
  -------         ENDPROC       UART2_ISR
BL51 BANKED LINKER/LOCATER V6.22.2.0                                                  12/16/2022  09:40:19  PAGE 27


  -------         PROC          PROTOCOL
  C:1269H         LINE#         189
  C:1269H         LINE#         190
  C:1269H         LINE#         191
  C:1270H         LINE#         192
  C:1270H         LINE#         196
  C:1276H         LINE#         197
  C:1276H         LINE#         198
  C:127BH         LINE#         199
  C:1287H         LINE#         200
  C:1287H         LINE#         202
  C:1292H         LINE#         203
  C:1292H         LINE#         204
  C:1292H         LINE#         205
  C:12ABH         LINE#         207
  C:12ABH         LINE#         209
  C:12C0H         LINE#         211
  C:12C4H         LINE#         212
  C:12C6H         LINE#         213
  C:12C6H         LINE#         216
  -------         ENDPROC       PROTOCOL
  -------         ENDMOD        UART2

  -------         MODULE        SYSTEM
  C:0000H         SYMBOL        _ICE_DUMMY_
  C:15A3H         PUBLIC        sys_run_update
  D:0080H         PUBLIC        P0
  D:0090H         PUBLIC        P1
  D:002DH         PUBLIC        Sys_Timer_Flag
  D:00A0H         PUBLIC        P2
  D:00B0H         PUBLIC        P3
  D:00C0H         PUBLIC        P4
  D:00C8H         PUBLIC        P5
  D:00E8H         PUBLIC        P6
  D:00F8H         PUBLIC        P7
  D:002EH         PUBLIC        System
  D:00A8H         PUBLIC        IE
  D:00B8H         PUBLIC        IP
  C:0026H         PUBLIC        ReadIMEI
  D:00D8H         PUBLIC        CCON
  D:0035H         SYMBOL        count
  B:0080H.1       PUBLIC        P01
  B:0090H.2       PUBLIC        P12
  B:0080H.3       PUBLIC        P03
  D:0098H         PUBLIC        SCON
  B:0090H.3       PUBLIC        P13
  B:0080H.4       PUBLIC        P04
  D:0088H         PUBLIC        TCON
  C:15D1H         SYMBOL        Run
  D:0037H         PUBLIC        OneKey_Fire
  B:0090H.7       PUBLIC        P17
  C:0FACH         SYMBOL        StandBy
  D:0038H         PUBLIC        OneKey
  C:002CH         PUBLIC        ReduceUsage
  D:0039H         PUBLIC        Fire_Timer_Count
  C:058DH         PUBLIC        sys_run_check
  D:00D0H         PUBLIC        PSW
BL51 BANKED LINKER/LOCATER V6.22.2.0                                                  12/16/2022  09:40:19  PAGE 28


  -------         PROC          RUN
  C:15D1H         LINE#         39
  C:15D1H         LINE#         40
  C:15D1H         LINE#         41
  C:15D7H         LINE#         42
  C:15D7H         LINE#         43
  C:15D9H         LINE#         44
  C:15DBH         LINE#         45
  C:15DBH         LINE#         47
  C:15DEH         LINE#         48
  C:15E9H         LINE#         49
  C:15F4H         LINE#         50
  C:15FBH         LINE#         51
  -------         ENDPROC       RUN
  -------         PROC          SYS_RUN_UPDATE
  C:15A3H         LINE#         62
  C:15A3H         LINE#         63
  C:15A3H         LINE#         65
  C:15B6H         LINE#         66
  C:15B6H         LINE#         68
  C:15B6H         LINE#         69
  C:15B6H         LINE#         71
  C:15B6H         LINE#         72
  C:15B9H         LINE#         73
  C:15BAH         LINE#         76
  C:15BAH         LINE#         77
  C:15BAH         LINE#         78
  C:15BAH         LINE#         79
  C:15BAH         LINE#         82
  C:15BDH         LINE#         84
  C:15BFH         LINE#         85
  C:15C1H         LINE#         88
  C:15C1H         LINE#         89
  C:15C4H         LINE#         90
  C:15C6H         LINE#         91
  C:15C8H         LINE#         94
  C:15C8H         LINE#         95
  C:15CBH         LINE#         96
  C:15D0H         LINE#         97
  C:15D0H         LINE#         98
  C:15D0H         LINE#         99
  C:15D0H         LINE#         100
  C:15D0H         LINE#         104
  -------         ENDPROC       SYS_RUN_UPDATE
  -------         PROC          STANDBY
  -------         DO            
  D:0053H         SYMBOL        i
  -------         ENDDO         
  C:0FACH         LINE#         113
  C:0FACH         LINE#         114
  C:0FACH         LINE#         115
  C:0FB2H         LINE#         118
  C:0FBFH         LINE#         119
  C:0FBFH         LINE#         122
  C:0FC6H         LINE#         124
  C:0FD3H         LINE#         127
  C:0FD9H         LINE#         128
BL51 BANKED LINKER/LOCATER V6.22.2.0                                                  12/16/2022  09:40:19  PAGE 29


  C:0FD9H         LINE#         129
  C:0FDBH         LINE#         130
  C:0FDDH         LINE#         131
  C:0FDDH         LINE#         133
  C:0FE4H         LINE#         134
  C:0FE4H         LINE#         135
  C:0FE4H         LINE#         136
  C:0FE4H         LINE#         138
  C:0FEBH         LINE#         139
  C:0FEBH         LINE#         140
  C:0FEBH         LINE#         141
  C:0FEBH         LINE#         142
  C:0FF6H         LINE#         143
  C:0FF6H         LINE#         144
  C:0FFBH         LINE#         145
  C:1000H         LINE#         146
  C:1000H         LINE#         148
  C:1002H         LINE#         151
  C:100DH         LINE#         152
  C:1018H         LINE#         153
  C:101EH         LINE#         154
  C:101EH         LINE#         170
  C:101EH         LINE#         174
  C:101EH         LINE#         175
  C:101EH         LINE#         177
  C:1029H         LINE#         178
  C:1029H         LINE#         179
  C:102BH         LINE#         180
  C:102DH         LINE#         181
  C:102FH         LINE#         182
  C:1031H         LINE#         183
  C:1035H         LINE#         184
  C:1037H         LINE#         186
  C:103AH         LINE#         188
  C:103AH         LINE#         190
  C:103AH         LINE#         191
  C:103AH         LINE#         192
  C:103AH         LINE#         194
  C:103AH         LINE#         195
  -------         ENDPROC       STANDBY
  -------         PROC          SYS_RUN_CHECK
  -------         DO            
  D:002BH         SYMBOL        i
  -------         ENDDO         
  C:058DH         LINE#         199
  C:058DH         LINE#         200
  C:058DH         LINE#         203
  C:0593H         LINE#         204
  C:05A3H         LINE#         205
  C:05A3H         LINE#         206
  C:05AAH         LINE#         207
  C:05B7H         LINE#         208
  C:05BFH         LINE#         209
  C:05C7H         LINE#         210
  C:05C7H         LINE#         211
  C:05CCH         LINE#         212
  C:05D7H         LINE#         216
BL51 BANKED LINKER/LOCATER V6.22.2.0                                                  12/16/2022  09:40:19  PAGE 30


  C:05E2H         LINE#         218
  C:05E2H         LINE#         220
  C:05E8H         LINE#         221
  C:05E8H         LINE#         222
  C:05EAH         LINE#         223
  C:05EAH         LINE#         224
  C:05EDH         LINE#         225
  C:05EDH         LINE#         226
  C:05F4H         LINE#         227
  C:05F4H         LINE#         228
  C:05F7H         LINE#         229
  C:05F8H         LINE#         230
  C:05F8H         LINE#         232
  C:05FFH         LINE#         233
  C:05FFH         LINE#         234
  C:0602H         LINE#         235
  C:0603H         LINE#         236
  C:0603H         LINE#         238
  C:060EH         LINE#         239
  C:060EH         LINE#         240
  C:0613H         LINE#         241
  C:0615H         LINE#         242
  C:0615H         LINE#         244
  C:061BH         LINE#         245
  C:061BH         LINE#         247
  C:0628H         LINE#         248
  C:062BH         LINE#         249
  C:062BH         LINE#         257
  C:0636H         LINE#         258
  C:0636H         LINE#         259
  C:063BH         LINE#         260
  C:063DH         LINE#         261
  C:063DH         LINE#         263
  C:0643H         LINE#         264
  C:0643H         LINE#         266
  C:0646H         LINE#         268
  C:0662H         LINE#         269
  C:066FH         LINE#         271
  C:0672H         LINE#         272
  C:0673H         LINE#         273
  C:0673H         LINE#         276
  C:067EH         LINE#         277
  C:067EH         LINE#         279
  C:0683H         LINE#         280
  C:0685H         LINE#         281
  C:0688H         LINE#         282
  C:0689H         LINE#         283
  C:0689H         LINE#         284
  C:0694H         LINE#         285
  C:0694H         LINE#         286
  C:0697H         LINE#         287
  C:069CH         LINE#         288
  C:069DH         LINE#         289
  C:069DH         LINE#         292
  C:06A1H         LINE#         293
  C:06A1H         LINE#         294
  C:06B6H         LINE#         295
BL51 BANKED LINKER/LOCATER V6.22.2.0                                                  12/16/2022  09:40:19  PAGE 31


  C:06B6H         LINE#         297
  C:06C5H         LINE#         298
  C:06C5H         LINE#         299
  C:06C9H         LINE#         300
  C:06CCH         LINE#         301
  C:06CFH         LINE#         302
  C:06D2H         LINE#         303
  C:06D3H         LINE#         304
  C:06D3H         LINE#         307
  C:06E6H         LINE#         308
  C:06E6H         LINE#         309
  C:06E8H         LINE#         310
  C:06EBH         LINE#         311
  C:06EBH         LINE#         312
  C:06EDH         LINE#         313
  C:06EDH         LINE#         315
  C:06FEH         LINE#         316
  C:06FEH         LINE#         317
  C:0702H         LINE#         318
  C:0705H         LINE#         319
  C:0708H         LINE#         320
  C:0709H         LINE#         321
  C:0709H         LINE#         322
  C:0709H         LINE#         323
  C:0709H         LINE#         325
  C:0717H         LINE#         326
  C:0717H         LINE#         327
  C:071AH         LINE#         328
  C:071FH         LINE#         329
  C:071FH         LINE#         330
  C:071FH         LINE#         331
  C:071FH         LINE#         332
  -------         ENDPROC       SYS_RUN_CHECK
  -------         ENDMOD        SYSTEM

  -------         MODULE        ?C?FPMUL
  C:0046H         PUBLIC        ?C?FPMUL
  -------         ENDMOD        ?C?FPMUL

  -------         MODULE        ?C?FPDIV
  C:014FH         PUBLIC        ?C?FPDIV
  -------         ENDMOD        ?C?FPDIV

  -------         MODULE        ?C?FCAST
  C:01F6H         PUBLIC        ?C?FCASTC
  C:01F1H         PUBLIC        ?C?FCASTI
  C:01ECH         PUBLIC        ?C?FCASTL
  -------         ENDMOD        ?C?FCAST

  -------         MODULE        ?C?CASTF
  C:022AH         PUBLIC        ?C?CASTF
  -------         ENDMOD        ?C?CASTF

  -------         MODULE        ?C?CLDPTR
  C:02ABH         PUBLIC        ?C?CLDPTR
  -------         ENDMOD        ?C?CLDPTR

BL51 BANKED LINKER/LOCATER V6.22.2.0                                                  12/16/2022  09:40:19  PAGE 32


  -------         MODULE        ?C?CLDOPTR
  C:02C4H         PUBLIC        ?C?CLDOPTR
  -------         ENDMOD        ?C?CLDOPTR

  -------         MODULE        ?C?CSTPTR
  C:02F1H         PUBLIC        ?C?CSTPTR
  -------         ENDMOD        ?C?CSTPTR

  -------         MODULE        ?C?CSTOPTR
  C:0303H         PUBLIC        ?C?CSTOPTR
  -------         ENDMOD        ?C?CSTOPTR

  -------         MODULE        ?C?LNEG
  C:0325H         PUBLIC        ?C?LNEG
  -------         ENDMOD        ?C?LNEG

  -------         MODULE        ?C?PLDOPTR
  C:0333H         PUBLIC        ?C?PLDOPTR
  -------         ENDMOD        ?C?PLDOPTR

  -------         MODULE        ?C?ICALL
  C:0363H         PUBLIC        ?C?ICALL
  C:0367H         PUBLIC        ?C?ICALL2
  -------         ENDMOD        ?C?ICALL

  -------         MODULE        ?C?PLDIDATA
  C:0369H         PUBLIC        ?C?PLDIDATA
  -------         ENDMOD        ?C?PLDIDATA

  -------         MODULE        ?C?PLDXDATA
  C:0372H         PUBLIC        ?C?PLDXDATA
  -------         ENDMOD        ?C?PLDXDATA

  -------         MODULE        ?C?PLDPDATA
  C:037BH         PUBLIC        ?C?PLDPDATA
  -------         ENDMOD        ?C?PLDPDATA

  -------         MODULE        ?C?PLDCODE
  C:0384H         PUBLIC        ?C?PLDCODE
  -------         ENDMOD        ?C?PLDCODE

*** WARNING L16: UNCALLED SEGMENT, IGNORED FOR OVERLAY PROCESS
    SEGMENT: ?PR?_PUTCHAR?UART1

Program Size: data=175.0 xdata=183 code=5897
LINK/LOCATE RUN COMPLETE.  1 WARNING(S),  0 ERROR(S)
