C51 COMPILER V9.60.0.0   UART1                                                             09/28/2022 17:47:37 PAGE 1   


C51 COMPILER V9.60.0.0, COMPILATION OF MODULE UART1
OBJECT MODULE PLACED IN .\obj\UART1.obj
COMPILER INVOKED BY: D:\Keil_v5\C51\BIN\C51.EXE app\UART1.c OPTIMIZE(8,SPEED) BROWSE INCDIR(.\user;.\app) DEBUG OBJECTEX
                    -TEND PRINT(.\obj\UART1.lst) TABS(2) OBJECT(.\obj\UART1.obj)

line level    source

   1          /* Includes ------------------------------------------------------------------*/
   2          #include <main.h>
   3          
   4          /* Private define-------------------------------------------------------------*/
   5          #define S1_S1  BIT7
   6          #define S1_S0  BIT6
   7          
   8          #define UART1_MAX485_DE_nRE    P46
   9          #define UART1_MAX485_SendMode  (bit)1
  10          #define UART1_MAX485_RecMode   (bit)0
  11          
  12          #define UART1_Send_LENGTH  20
  13          #define UART1_Rec_LENGTH   20
  14          
  15          /* Private variables----------------------------------------------------------*/
  16          
  17          static uint8_t xdata ucSend_Buffer[UART1_Send_LENGTH] = {0,1,2,3,4,5,6,7,8,9};
  18          static uint8_t xdata ucRec_Buffer [UART1_Rec_LENGTH]  = {0x00};
  19          
  20          /* Private function prototypes------------------------------------------------*/      
  21          static void Init(void);                    //串口初始化
  22          static void SendData(uint8_t);             //串口发送字符
  23          static void SendArray(uint8_t*,uint16_t);     //串口发送数组
  24          static void SendString(uint8_t*);          //串口发送字符串
  25          static void Protocol(void);                //串口协议
  26          
  27          static void RS485_Set_SendMode(void); //RS-485接口设置为发送模式
  28          static void RS485_Set_RecMode(void);  //RS-485接口设置为接收模式
  29          
  30          /* Public variables-----------------------------------------------------------*/
  31          UART_t idata UART1 = 
  32          {
  33            Band_9600,
  34            
  35            FALSE,
  36            FALSE,
  37            0,
  38            
  39            ucSend_Buffer,
  40            ucRec_Buffer,
  41            
  42            Init,
  43            SendData,
  44            SendArray,
  45            SendString,
  46            Protocol,
  47            
  48            RS_485,
  49            RS485_Set_SendMode,
  50            RS485_Set_RecMode
  51          };
  52          
  53          /*
  54            * @name   Init
C51 COMPILER V9.60.0.0   UART1                                                             09/28/2022 17:47:37 PAGE 2   

  55            * @brief  串口1初始化
  56            * @param  None
  57            * @retval None      
  58          */
  59          static void Init()
  60          {
  61   1        //串口1映射至P30,P31 不需要配置
  62   1      //  AUXR1 &= (~S1_S1);//置0
  63   1      //  AUXR1 |=   S1_S0;//置1
  64   1      //  AUXR1 &= (~S1_S1);
  65   1      //  AUXR1 &= (~S1_S0);
  66   1        SCON  = 0x50;   //8位数据,可变波特率
  67   1        AUXR |= 0x40;   //定时器1时钟为Fosc,即1T
  68   1        AUXR &= 0xFE;   //串口1选择定时器1为波特率发生器
  69   1        TMOD &= 0x0F;   //设定定时器1为16位自动重装方式
  70   1        //设定波特率
  71   1        switch(UART1.ucBandRate)
  72   1        {
  73   2          case Band_4800:    TL1 = 0x80; TH1 = 0xFB; break;
  74   2          case Band_9600:    TL1 = 0xC0; TH1 = 0xFD; break;
  75   2          case Band_19200:   TL1 = 0xE0; TH1 = 0xFE; break;
  76   2          case Band_115200:  TL1 = 0xD0; TH1 = 0xFF; break;
  77   2          default:           TL1 = 0xC0; TH1 = 0xFD; break;
  78   2        }
  79   1        ET1 = 0;        //禁止定时器1中断
  80   1        TR1 = 1;        //启动定时器1
  81   1        
  82   1        REN   = 1;      //允许串口1接收
  83   1      }
  84          
  85          /*
  86            * @name   SendData
  87            * @brief  发送字符
  88            * @param  dat:待发送字符
  89            * @retval None      
  90          */
  91          static void SendData(uint8_t dat)
  92          {
  93   1        while(UART1.ucTX_Busy_Flag);       //等待前面的数据发送完
  94   1        UART1.ucTX_Busy_Flag = TRUE;       //置位忙碌标志
  95   1        SBUF = dat;                        //写数据至UART寄存器
  96   1      }
  97          
  98          /*
  99            * @name   SendArray
 100            * @brief  串口发送数组
 101            * @param  p_Arr:数组首地址，LEN:发送长度
 102            * @retval None      
 103          */
 104          static void SendArray(uint8_t* p_Arr,uint16_t LEN) 
 105          {
 106   1        uint16_t i = 0;
 107   1      
 108   1        UART1.RS485_Set_SendMode();
 109   1        
 110   1        for(i=0;i<LEN;i++)
 111   1        {
 112   2          UART1.UART_SendData(*(p_Arr+i));
 113   2        }
 114   1        while(UART1.ucTX_Busy_Flag); //等待数据发送完
 115   1        Public.Delay_ms(1);          //等待数据传输完
 116   1      
C51 COMPILER V9.60.0.0   UART1                                                             09/28/2022 17:47:37 PAGE 3   

 117   1        UART1.RS485_Set_RecMode();
 118   1      }
 119          
 120          
 121          /*
 122            * @name   SendString
 123            * @brief  发送字符串
 124            * @param  p_Str:待发送字符串
 125            * @retval None      
 126          */
 127          static void SendString(uint8_t* p_Str) 
 128          { 
 129   1        UART1.RS485_Set_SendMode();
 130   1        
 131   1        while(*p_Str)
 132   1        {
 133   2          UART1.UART_SendData(*(p_Str++)); //发送当前字符
 134   2        }
 135   1        while(UART1.ucTX_Busy_Flag); //等待数据发送完
 136   1        Public.Delay_ms(1);          //等待数据传输完
 137   1      
 138   1        UART1.RS485_Set_RecMode();
 139   1      }
 140          
 141          /*
 142            * @name   RS485_Set_SendMode
 143            * @brief  RS-485接口设置为发送模式
 144            * @param  None
 145            * @retval None      
 146          */
 147          static void RS485_Set_SendMode()
 148          {
 149   1        UART1_MAX485_DE_nRE = UART1_MAX485_SendMode;
 150   1        Public.Delay_ms(1);
 151   1      }
 152          
 153          /*
 154            * @name   RS485_Set_RecMode
 155            * @brief  RS-485接口设置为接收模式
 156            * @param  None
 157            * @retval None      
 158          */
 159          static void RS485_Set_RecMode()
 160          {
 161   1        Public.Delay_ms(1);
 162   1        UART1_MAX485_DE_nRE = UART1_MAX485_RecMode;
 163   1      }
 164          
 165          
 166          #ifdef Monitor_Run_Code
 167            //putchar字符发送函数重定向
 168            extern char putchar(char c)
 169            {
 170   1          UART1.UART_SendData((uint8_t)c);
 171   1          return c;
 172   1        }
 173          #endif
 174          
 175          
 176          /*
 177            * @name   UART1_isr
 178            * @brief  串口1中断服务函数
C51 COMPILER V9.60.0.0   UART1                                                             09/28/2022 17:47:37 PAGE 4   

 179            * @param  None
 180            * @retval None      
 181          */
 182          void UART1_isr() interrupt 4
 183          {
 184   1        if(RI)
 185   1        {         
 186   2          RI = (bit)0; //清除接收中断标志
 187   2          
 188   2          if(UART1.ucRec_Cnt < UART1_Rec_LENGTH)
 189   2          {
 190   3            ucRec_Buffer[UART1.ucRec_Cnt++] = SBUF; 
 191   3          }
 192   2          
 193   2          UART1.ucRec_Flag = TRUE;
 194   2        }
 195   1        
 196   1        if(TI)
 197   1        {
 198   2          TI = (bit)0;                  //清除发送中断标志
 199   2          UART1.ucTX_Busy_Flag = FALSE; //清忙碌标志
 200   2        }
 201   1      }
 202          
 203          
 204          
 205          /*
 206            * @name   Protocol
 207            * @brief  串口协议
 208            * @param  None
 209            * @retval None      
 210          */
 211          static void Protocol()
 212          {
 213   1        if(UART1.ucRec_Flag == TRUE)
 214   1        {
 215   2          //LED_Run.LED_Flip();
 216   2          
 217   2          //过滤干扰数据低于6位的数据过滤掉
 218   2          if(ucRec_Buffer[0] != 0)
 219   2          {
 220   3            Timer0.usDelay_Timer = 0;
 221   3            while(UART1.ucRec_Cnt < 6)
 222   3            {
 223   4              //WatchDog.Feed();
 224   4              if(Timer0.usDelay_Timer >= TIMER0_100mS) //100ms没接收完6个字节，跳出循环
 225   4                break;
 226   4            }
 227   3            
 228   3            //协议分析
 229   3            Modbus.Protocol_Analysis(&UART1);
 230   3          }
 231   2          
 232   2          //清除缓存
 233   2          Public.Memory_Clr(ucRec_Buffer,(uint16_t)UART1.ucRec_Cnt);
 234   2          
 235   2          //重新接收
 236   2          UART1.ucRec_Cnt  = 0;
 237   2          UART1.ucRec_Flag = FALSE;
 238   2        }
 239   1      }
 240          /********************************************************
C51 COMPILER V9.60.0.0   UART1                                                             09/28/2022 17:47:37 PAGE 5   

 241            End Of File
 242          ********************************************************/


MODULE INFORMATION:   STATIC OVERLAYABLE
   CODE SIZE        =    483    ----
   CONSTANT SIZE    =   ----    ----
   XDATA SIZE       =     40    ----
   PDATA SIZE       =   ----    ----
   DATA SIZE        =   ----      11
   IDATA SIZE       =     32    ----
   BIT SIZE         =   ----    ----
END OF MODULE INFORMATION.


C51 COMPILATION COMPLETE.  0 WARNING(S),  0 ERROR(S)
