C51 COMPILER V9.60.0.0   MAIN                                                              12/13/2022 10:07:51 PAGE 1   


C51 COMPILER V9.60.0.0, COMPILATION OF MODULE MAIN
OBJECT MODULE PLACED IN .\obj\main.obj
COMPILER INVOKED BY: D:\Keil_v5\C51\BIN\C51.EXE user\main.c OPTIMIZE(8,SPEED) BROWSE INCDIR(.\user;.\app) DEBUG OBJECTEX
                    -TEND PRINT(.\obj\main.lst) TABS(2) OBJECT(.\obj\main.obj)

line level    source

   1          
   2          
   3          /******************************************************************************
   4            * @file  main.c 
   5            * @author  公烁
   6            * @version V1.1
   7            * @date  2022-7-23
   8            * @Conpany 
   9            * @project 艾灸
  10          *******************************************************************************/
  11          
  12          /* Includes ------------------------------------------------------------------*/
  13          #include <main.h>
  14          
  15          /* Private define-------------------------------------------------------------*/
  16          
  17          /* Private variables----------------------------------------------------------*/
  18          uint8_t xdata dataUpdate_Buffer[20] =
  19          {
  20            0, 
  21          };
  22          
  23          uint8_t     StateFlag = 0;
  24          uint8_t     StandBy_Flag = 0;
  25          
  26          
  27          
  28          /* Public variables-----------------------------------------------------------*/
  29          
  30          /* Private function prototypes------------------------------------------------*/
  31          
  32          /*
  33            * @name   main
  34            * @brief  主函数
  35            * @param  None  
  36            * @retval None    
  37          */
  38          void main()
  39          {
  40   1      
  41   1      
  42   1        Hardware_Init.Sys_Init();           //系统初始化
  43   1      
  44   1      
  45   1        while (1)
  46   1        {
  47   2          if (System.ucSystem_Status == System_RUN)
  48   2          {
  49   3            System.Run();
  50   3          }
  51   2          else
  52   2          {
  53   3            System.StandBy();
  54   3          }
C51 COMPILER V9.60.0.0   MAIN                                                              12/13/2022 10:07:51 PAGE 2   

  55   2        }
  56   1      }
  57          
  58          
  59          // 1: 串口1 单独发
  60          // 2：串口2 单独发
  61          // 3：串口1与2 都发
  62          void DataUpdate(uint8_t flag)
  63          {
  64   1        uint8_t     Flag = flag;
  65   1      
  66   1        //地址码
  67   1        dataUpdate_Buffer[0] = Modbus.Head1;
  68   1        dataUpdate_Buffer[1] = Modbus.Head2;
  69   1      
  70   1        //功能码
  71   1        dataUpdate_Buffer[2] = 0x03;
  72   1      
  73   1        //数据长度
  74   1        dataUpdate_Buffer[3] = 15;
  75   1      
  76   1        //温度
  77   1        dataUpdate_Buffer[4] = 0;
  78   1        dataUpdate_Buffer[5] = temperature_t.temperature;
  79   1      
  80   1        //继电器
  81   1        dataUpdate_Buffer[6] = 0;
  82   1        dataUpdate_Buffer[7] = JDQ_Run.JDQ_1_FLAG;
  83   1        dataUpdate_Buffer[8] = JDQ_Run.JDQ_2_FLAG;
  84   1        dataUpdate_Buffer[9] = JDQ_Run.JDQ_3_FLAG;
  85   1        dataUpdate_Buffer[10] = JDQ_Run.JDQ_4_FLAG;
  86   1        dataUpdate_Buffer[11] = JDQ_Run.JDQ_5_FLAG;
  87   1        dataUpdate_Buffer[12] = JDQ_Run.JDQ_6_FLAG;
  88   1      
  89   1        dataUpdate_Buffer[13] = JDQ_Run.JDQ_8_FLAG;
  90   1        dataUpdate_Buffer[14] = JDQ_Run.JDQ_9_FLAG;
  91   1        dataUpdate_Buffer[15] = JDQ_Run.JDQ_10_FLAG;
  92   1        dataUpdate_Buffer[16] = JDQ_Run.JDQ_11_FLAG;
  93   1        dataUpdate_Buffer[17] = JDQ_Run.JDQ_11_FLAG;
  94   1        dataUpdate_Buffer[18] = JDQ_Run.JDQ_11_FLAG;
  95   1      
  96   1        //将更新的数据发送给
  97   1        switch (flag)
  98   1          {
  99   2          case 1:
 100   2            UART1.UART_SendArray(dataUpdate_Buffer, 19);
 101   2            break;
 102   2      
 103   2          case 2:
 104   2            UART2.UART_SendArray(dataUpdate_Buffer, 19);
 105   2            break;
 106   2      
 107   2          case 3:
 108   2            UART2.UART_SendArray(dataUpdate_Buffer, 19);
 109   2            Public.Delay_ms(50);
 110   2            UART1.UART_SendArray(dataUpdate_Buffer, 19);
 111   2            break;
 112   2      
 113   2          default:
 114   2            break;
 115   2      
 116   2        }
C51 COMPILER V9.60.0.0   MAIN                                                              12/13/2022 10:07:51 PAGE 3   

 117   1          Public.Memory_Clr(dataUpdate_Buffer,20);//清除数据
 118   1      
 119   1      
 120   1      }
 121          
 122          
 123          
 124          
 125          
 126          
 127          /********************************************************
 128            End Of File
 129          ********************************************************/


MODULE INFORMATION:   STATIC OVERLAYABLE
   CODE SIZE        =    227    ----
   CONSTANT SIZE    =   ----    ----
   XDATA SIZE       =     20    ----
   PDATA SIZE       =   ----    ----
   DATA SIZE        =      2       1
   IDATA SIZE       =   ----    ----
   BIT SIZE         =   ----    ----
END OF MODULE INFORMATION.


C51 COMPILATION COMPLETE.  0 WARNING(S),  0 ERROR(S)
