:10058D005400960000000000000000000000000074
:0D059D0000000000000000015C00015D0195
:10176500AA48A949800DE52CB4010DD281C297AADA
:101775002EA92F12036380EEC281D297AA31A93216
:0517850012036380E186
:100E51008F539000AAA3E0900096F09000ACA3E01D
:100E6100900097F0A37403F0A3740FF0E4A3F0A330
:100E7100E51BF0E4A3F0789FE6A3F008E6A3F008F1
:100E8100E6A3F008E6A3F008E6A3F008E6A3F078ED
:100E9100A6E6A3F008E6A3F008E6A3F008E6A3F0AF
:100EA100A3F0A3F0EF24FE60091460122402705332
:100EB10080357B017A007996C002788F80337B017F
:100EC1007A007996C002788F08E6FA08E6F5828AF8
:100ED10083D0027D137C00120367853A82853983B2
:100EE1007F327E001203677B017A007996C0027817
:100EF1006F08E6FA08E6F5828A83D0027D137C004A
:100F01001203677B017A007996854082853F837D54
:060F1100147C00020367DE
:0B05AA000938FF17DFFF0003FF173FB9
:1017DF007DA57C06ED1D70011C144C70F7EF1F707A
:0617EF00011E144E70EA19
:0117F50022D1
:070003000000007F34DFFE66
:01000A0022D3
:06173F008B518A52895310
:10174500E4FFFEC3EF9DEE9C5015AB51AA52A95381
:0F1755008F828E83E41203030FBF00010E80E426
:011764002262
:0F05B5000D9F000000000000000000000000008B
:0B05C4000941FF152DFF181EFF15B1A7
:10152D007594C0E4F59375927E7591017596C075AD
:10153D00953FF5B475B30C75C930F5CA75B2027522
:10154D00B101D2A6D2A7D287D286D2C7D292D293D8
:10155D00D294D295D296C285C284C283C282C281F0
:03156D00C2972200
:0A181E00D2A9D2AC43AF01D2AF2231
:1015B100853A828539837FB87E0B120367AA42A9D7
:1015C10043120363AA18A919120363AA45A9461273
:1015D1000363786908E6FA08E6F912036378890873
:0F15E100E6FA08E6F91203637D017F480217ACB2
:1005CF001208000000000000000000000000000002
:0405DF0000FF180DF4
:10180D00538E7F5389F0E4F58A758CDCC28DD28CB2
:01181D0022A8
:03000B0002134F8E
:10134F00C0E0C0D00509E50970020508C394C8E5DF
:10135F000894004006750800750900050BE50B7031
:10136F0002050AE50C64017008050EE50E70020512
:10137F000D0510E5107002050F0512E5127002053C
:10138F00110514E51470020513E52C6401700805AE
:0C139F0016E51670020515D0D0D0E03223
:1005E30054006E0001020304050607080900000019
:1005F3000000000000000054008200000000000022
:1006030000000000000000000000000000002020A7
:100613005F0300000001006E010082FF1570FF18E8
:1006230028FF11B7FF13ABFF129300FF0021FF0058
:0106330022A4
:10157000759850438E40538EFE53890F785FE61462
:10158000602214600F14601424037018758B80752A
:101590008DFB8016758BE0758DFE800E758BD0757A
:1015A0008DFF8006758BC0758DFDC2ABD28ED29C2F
:0115B0002218
:0A1828007860E670FB76018F9922CC
:0A11B7008B518A5289538C548D55D8
:1011C100E4F556F557787908E6FA08E6F91203636B
:1011D100E4F556F557C3E5579555E556955450280E
:1011E100AB51AA52A9538557828556831202C4FF77
:1011F100786C08E6FA08E6F5828A831203670557D8
:10120100E55770D1055680CD7860E670FB853A824E
:101211008539837F01FE120367787C08E6FA08E6C8
:04122100F902036368
:1013AB008B518A528953787908E6FA08E6F91203C9
:1013BB0063AB51AA52A9531202AB601E0553E553FE
:1013CB007002055214F91202ABFF786C08E6FA08AA
:1013DB00E6F5828A8312036780D77860E670FB8517
:1013EB003A828539837F01FE120367787C08E6FA1F
:0613FB0008E6F90203639D
:0100210022BC
:0100220022BB
:10000E008F5E786C08E6FA08E6F5828A831203673B
:03001E00AF5E22B0
:030023000214E9DB
:1014E900C0E0C083C082C0D075D000C00030982051
:1014F900C2987862E6C3941474809480500EE6060C
:101509002482F582E43400F583E599F07861760167
:10151900309906C29978607600D000D0D0D082D0B8
:0415290083D0E03259
:101293007861E664017056900082E06035E4F50AF7
:1012A300F50B7862E6C3940674809480500BC3E513
:1012B3000B9414E50A940040E97B007A00795FC03F
:1012C300029000AEA3E0FAA3E0F5828A83D0021273
:1012D30003677B017A0079827862E6FD7C008540B2
:0E12E30082853F83120367E47862F618F622D4
:09063400074A00FF0FB5FF114752
:100FB50020A40C20A30920A20620A103021041852C
:100FC5003A828539837FC87E0012036730A428756D
:100FD5004A01789F7601C287D28630A40F853A826E
:100FE5008539837F0A7E0012036780EED287D28619
:100FF500E4789FF675580130A328754A0178A076E4
:1010050001D287C28630A30F853A828539837F0A4C
:101015007E0012036780EED287D286E478A0F6754B
:10102500580230A20A754A0178A6760175580E3025
:0D103500A10A754A01E478A6F675580E224E
:1011470020A40620A30330A166853A828539837FD0
:10115700C87E0012036730A425754A01789F76017F
:10116700C287D28630A40F853A828539837F0A7E6B
:101177000012036780EED287D286E4789FF630A309
:1011870025754A0178A07601D287C28630A30F85DC
:101197003A828539837F0A7E0012036780EED28701
:1011A700D286E478A0F630A106754A01752C012293
:06185000FF550C0220050B
:06063D00045800FF0879DB
:10087900E55870030209CD14B40E0040030209C201
:1008890090089775F003A4C58325F0C58373020802
:10089900C10208DB0208F40208F40208F40208F7AE
:1008A9000209C202090002091202092402093602D8
:1008B900095D0209C202096DE478A0F618E660072D
:1008C900C287D2860209BFD287D286E4789FF60210
:1008D90009BFE4789FF608E66006D287C2868008D9
:1008E900D287D286E478A0F60209BF0209BFE4786C
:1008F900A3F6F5580209C278A6E66006C2C7D285F2
:100909008004D2C7C2850209BF78A7E66006C292F1
:10091900D2848004D292C2840209BF78A8E6600614
:10092900C293D2838004D293C2830209BF78A9E615
:100939006015E4F50DF50EC294C295C296D2827582
:100949000C01753701800BC282D294D295D296E4FC
:10095900F5378062E478A9F6D294D295D296C2820C
:10096900F558805578A6E6601AC2C7C292C293D2DA
:1009790085D284D283087601087601753601E4F5BB
:10098900358033D2C7C285E4F52CF52BF515F5165C
:100999007BFF7A187950C002786F08E6FA08E6F505
:1009A900828A83D0027D067C00120367E4F511F583
:1009B90012755D02F536E4F558E55C640170057F52
:0509C90002120E512294
:100643000F1A001A00C900C8FF1628FF14A1FF17CC
:010653008A1C
:021628008F53DE
:10162A00E4F554F555755480E5546026C2A7AA3CE2
:10163A00A93D120363D2A7AA3CA93D120363E5544C
:10164A0030A50442558003F45255E554C313F554AA
:04165A0080D6AF5532
:01165E002269
:1014A100E4F551F552C2A67FFF1216287551008F3F
:1014B10052E552755200F5517FFF121628EF425244
:1014C100D2A6E55230E20875510F7552FF8011AE78
:1014D10051E5527803CEC313CE13D8F9F5528E518C
:0714E10053510FAE51AF5251
:0114E80022E1
:10178A001214A1AC06AD07E41201F1E4FBFA798068
:10179A007844120046E4FBFA7980784512014F0238
:0217AA00022A11
:0A0654004700AA00FF0055FF0D5AF1
:100D5A009000B1EBF0A3EAF0A3E9F0E4F5519000BA
:100D6A00B1E0FBA3E0FAA3E0F99000071203331203
:100D7A0002ABFF9000AAE07003A3E06F6003020ECB
:100D8A001C9000B1E0FBA3E0FAA3E0F9900007127F
:100D9A0003339000011202C4FF9000ACE07003A379
:100DAA00E06F706E9000021202C424FB603114607E
:100DBA001E24FC602F14603C14604924097053906F
:100DCA0000B1E0FBA3E0FAA3E0F91203908043909C
:100DDA0000B1E0FBA3E0FAA3E0F9120B1080331292
:100DEA000C48802E9000B1E0FBA3E0FAA3E0F912D0
:100DFA0016EB801E9000B1E0FBA3E0FAA3E0F91223
:100E0A001715800E9000B1E0FBA3E0FAA3E0F912F7
:100E1A000F179000B1E0FBA3E0FAA3E0F9900007F6
:100E2A001203331202ABB4381D9000B1E0FBA3E009
:100E3A00FAA3E0F99000071203339000011202C4EA
:060E4A00B43603120C484F
:010E5000227F
:100390009000B4EBF0A3EAF0A3E9F09000AAA3E088
:1003A000FF900004120333EF1202F19000ACA3E0BF
:1003B000FF9000B4E0FBA3E0FAA3E0F99000041280
:1003C0000333900001EF1203039000B4E0FBA3E0BD
:1003D000FAA3E0F9900004120333900002740312B0
:1003E00003039000B4E0FBA3E0FAA3E0F99000045B
:1003F000120333900003740F1203039000B4E0FB68
:10040000A3E0FAA3E0F9900004120333900004E49F
:10041000120303AF1B9000B4E0FBA3E0FAA3E0F9E2
:10042000900004120333900005EF1203039000B410
:10043000E0FBA3E0FAA3E0F990000412033390007C
:1004400006E4120303789FE6FF9000B4E0FBA3E00C
:10045000FAA3E0F9900004120333900007EF1203AF
:100460000378A0E6FF9000B4E0FBA3E0FAA3E0F974
:10047000900004120333900008EF12030378A1E602
:10048000FF9000B4E0FBA3E0FAA3E0F990000412AF
:100490000333900009EF12030378A2E6FF9000B443
:1004A000E0FBA3E0FAA3E0F990000412033390000C
:1004B0000AEF12030378A3E6FF9000B4E0FBA3E089
:1004C000FAA3E0F990000412033390000BEF12033B
:1004D0000378A4E6FF9000B4E0FBA3E0FAA3E0F900
:1004E00090000412033390000CEF12030378A6E689
:1004F000FF9000B4E0FBA3E0FAA3E0F9900004123F
:10050000033390000DEF12030378A7E6FF9000B4C9
:10051000E0FBA3E0FAA3E0F990000412033390009B
:100520000EEF12030378A8E6FF9000B4E0FBA3E00F
:10053000FAA3E0F990000412033390000FEF1203C6
:100540000378A9E6FF9000B4E0FBA3E0FAA3E0F98A
:10055000900004120333900010EF1203039000B4D4
:10056000E0FBA3E0FAA3E0F990000412033390004B
:1005700011EF1203039000B4E0FBA3E0FAA3E0F94B
:0D058000900004120333900012EF020303F9
:100B10009000B4EBF0A3EAF0A3E9F0E4F552900002
:100B2000B4E0FBA3E0FAA3E0F990000712033390CE
:100B300000041202C414B410004003020C47900BCE
:100B40004C75F003A4C58325F0C58373020B7C02AA
:100B50000B8B020B9A020BA9020BB8020BC7020CFB
:100B600047020BD6020BE5020BF4020C03020C1237
:100B7000020C21020C47020C30020C3C90000512C2
:100B800002C424FB789FF6755801229000051202DA
:100B9000C424FB78A0F6755802229000051202C406
:100BA00024FB78A1F6755803229000051202C42494
:100BB000FB78A2F6755804229000051202C424FBAB
:100BC00078A3F6755805229000051202C424FB781C
:100BD000A4F6755806229000051202C424FB78A6DC
:100BE000F6755808229000051202C424FB78A7F677
:100BF000755809229000051202C424FB78A8F675E6
:100C0000580A229000051202C424FB78A9F67558F0
:100C10000B229000051202C424FB78AAF675580C2A
:100C2000229000051202C424FB78ABF675580D2201
:100C30009000051202C4751C00F51D2290000512DB
:070C400002C4751E00F51F40
:010C4700228A
:0B0C48009000B1E0FBA3E0FAA3E0F98C
:100C53009000B4EBF0A3EAF0A3E9F0E4F5529000BE
:100C6300AAA3E0FF9000B4E0FBA3E0FAA3E0F990AD
:100C73000004120333EF1202F19000ACA3E0FF90E3
:100C830000B4E0FBA3E0FAA3E0F9900004120333FD
:100C9300900001EF1203039000B4E0FBA3E0FAA37A
:100CA300E0F9900004120333900002740512030369
:100CB3009000B4E0FBA3E0FAA3E0F9900004120370
:100CC30033900003740F120303E4F552C3E5529407
:100CD3000F7480948050449000B4E0FBA3E0FAA327
:100CE300E0F99000071203338552827583001202E4
:100CF300C4FF9000B4E0FBA3E0FAA3E0F990000482
:100D0300120333E92404F9E43AFAE5527C0029F9A1
:100D1300EC3AFAEF1202F1055280B19000B4E0FB15
:100D2300A3E0FAA3E0F9900004120333C002786F42
:100D330008E6FA08E6F5828A83D0027D137C001266
:100D43000367755D017F02120E51853A82853983EF
:070D53007FE87E0302036745
:1016EB009000B4EBF0A3EAF0A3E9F090000712032B
:1016FB00339000041202C4640E700E9000051202A7
:09170B00C424FB78A6F675580E03
:0117140022B2
:101715009000B4EBF0A3EAF0A3E9F0900007120300
:10172500339000041202C4640F700E90000512027B
:09173500C424FB78A9F675580BD9
:01173E002288
:100F17009000B4EBF0A3EAF0A3E9F0E4FF90000738
:100F27001203339000041202C4642070129000056B
:100F37001202C464067005752C018003E4F52CE4E5
:100F4700FFEFC394067480948050379000B4E0FBA1
:100F5700A3E0FAA3E0F99000071203338F827583A9
:100F6700001202C4FE9000B4E0FBA3E0FAA3E0F98C
:100F77009000041203338F82758300EE1203030F70
:100F870080BF9000B4E0FBA3E0FAA3E0F99000046F
:100F9700120333C002786F08E6FA08E6F5828A83FF
:0E0FA700D0027D067C001203677F02020E510D
:10065E004A0000000000000000000000006064007E
:10066E000A00000000000000000000000000000072
:10067E00000000000000000000000000000000006C
:10068E00000000000000000000000000000000005C
:10069E00000000000000000000000000000000004C
:1006AE00000000000000000000000000000000003C
:1006BE00000000000000000000000000000000002C
:1006CE00000000000020207F030000000100000158
:1006DE00000AFF15F0FF1832FF1225FF1401FF125A
:0806EE00F100FF1856FF185738
:1015F000759A50438E04787FE614601F14600C14B3
:1016000060112403701575D7A0800B75D7E075D6CF
:10161000FE800E75D7D075D6FF800675D7C075D6FB
:08162000FD438E10439A1022D5
:0A1832007880E670FB76018F9B22A0
:0A1225008B518A5289538C548D5569
:10122F00E4F556F557789908E6FA08E6F9120363DC
:10123F00E4F556F557C3E5579555E556955450289F
:10124F00AB51AA52A9538557828556831202C4FF08
:10125F00788C08E6FA08E6F5828A83120367055749
:10126F00E55770D1055680CD7880E670FB853A82C0
:10127F008539837F01FE120367789C08E6FA08E63A
:04128F00F9020363FA
:101401008B518A528953789908E6FA08E6F9120352
:1014110063AB51AA52A9531202AB601E0553E553A7
:101421007002055214F91202ABFF788C08E6FA0833
:10143100E6F5828A8312036780D77880E670FB85A0
:101441003A828539837F01FE120367789C08E6FAA8
:0614510008E6F902036346
:01185600226F
:01185700226E
:030043000214574D
:10145700C0E0C083C082C0D075D000C000E59A301C
:10146700E021539AFE7882E6C39464748094805096
:101477000EE606240AF582E43400F583E59BF0784E
:10148700817601E59A30E107539AFD78807600D09E
:0A14970000D0D0D082D083D0E03224
:1012F1007881E66401705690000AE06035E4F50AF1
:10130100F50B7882E6C3941474809480500BC3E586
:101311000B9414E50A940040E97B007A00797FC0C0
:10132100029000AEA3E0FAA3E0F5828A83D0021214
:1013310003677B017A00790A7882E6FD7C008540AB
:0E13410082853F83120367E47882F618F62255
:10165F00FF5505022306FF5509000000000000009A
:10166F000000000000000000003F065B4F666D7D2C
:10167F00077F6F00BF86DBCFE6EDFD87FFDF0068DA
:03168F006A6C6E14
:1006F600013700012B00013600013500072C00FFF1
:0D07060017F6FF10CE02330000022900009C
:1017F600E52C64017004D281C297120714AA5AA973
:071806005B1203630216925E
:10169200E55C24FE601114600E14601214601624BE
:1016A20004701AE4F55C22E4F55C7F03800CE4F537
:0E16B2005C7F018005E4F55C7F02120E512280
:1010CE007551017552F4E5521552AE51700215511B
:1010DE004E6043AA4FA950120363853A8285398325
:1010EE007F017E00120367E54A64017004F54A80B1
:1010FE00257861E66401601E7881E664016017C39D
:10110E00E51094E8E50F940340BC7F03120E51E402
:10111E00F50FF51080B0E55D24FE701CC3E512944A
:10112E00C0E511945D4011D292D293C284C283E481
:08113E0078A8F618F6755D01B2
:011146002286
:10071400752901752AF4E52A152AAE2970021529CE
:100724004E7003020878AA4CA94D120363853A82DD
:100734008539837F017E001203670534E534700236
:100744000533B4F418E533B40113E4F533F534AAEE
:1007540027A9281203638E1A8F1B1209CEE54A6457
:10076400017005F54A02085E7861E664017004755B
:100774005C01227881E664017004755C0222C3E5A1
:10078400169460E51594EA4007E4F515F516052B73
:10079400E52B640C7032F52B78A6F67BFF7A16797C
:1007A40065C002788F08E6FA08E6F5828A83D002EB
:1007B4007D137C00120367853A828539837FF47E3A
:1007C4000112036775580E22C3E50E9450E50D948B
:1007D40046400BE4F50DF50EF50C75580C22C3E5F7
:1007E400109470E50F94174009755C05E4F50FF556
:1007F4001022E5366068D3E51B9400E51A940040A6
:100804005DE51B94FFE51A94005053C3E51B94BEA9
:10081400E51A94004012E535700E78A976017558F2
:100824000B755C037535012278A6E6FF7E00701215
:10083400D3E51B951FE51A951E50077601755808D8
:100844008018EF64014E7016C3E51B951DE51A95DB
:100854001C400BE478A6F6755808755C0322C3E5C2
:10086400149490E5139401500302071A755C04E490
:04087400F513F5146F
:01087800225D
:0209CE008F5147
:1009D000E4F552FED3EF94E774809483506BEF9468
:1009E0006374809480406290168EE493FF90168228
:1009F000E493FD1217ACE55175F0648475F00A8438
:100A000085F05290168FE493FFE55290167893FD8F
:100A10001217ACE55175F00A8475F00A8485F0521E
:100A2000901690E493FFE55290167893FD1217AC60
:100A3000E55175F00A8485F052901691E493FFE534
:100A40005290167893FD1217ACAF517E00D3EF94FD
:100A50006374809480505DEF940974809480405456
:100A600090168EE493FF901682E493FD1217AC90DB
:100A7000168FE493FF901682E493FD1217ACE551B4
:100A800075F00A8475F00A8485F052901690E4930C
:100A9000FFE55290167893FD1217ACE55175F00AF8
:100AA0008485F052901691E493FFE5529016789366
:100AB000FD1217ACAF517E00D3EF9409748094807F
:100AC000504DC374809480404690168EE493FF90FE
:100AD0001682E493FD1217AC90168FE493FF9016E4
:100AE00082E493FD1217AC901690E493FF90168267
:100AF000E493FD1217ACE55175F00A8485F052902D
:0F0B00001691E493FFE55290167893FD1217AC0F
:010B0F0022C3
:0617C600D2B37F057E0096
:0417CC008E538F5455
:0E17D000E4FFAE070FEE60067E03DEFE80F43F
:0117DE0022E8
:0A183C00D2B3D2B21217C8C2B22212
:100026007D011217C6C2B330B20DEDD3946474804D
:0C003600948050030D80F01217C8C2B374
:01004200229B
:0A184600D2B3C2B21217C8D2B22208
:0216C000AD0774
:1016C200C2B37F017E001217CCE4FCECC394087411
:1016D2008094805013ED25E0FD92B2C2B31217C878
:0816E2001217C6C2B30C80E32D
:0116EA0022DD
:1017AC00AB05AD0712183CAF051216C0120026AFE0
:0A17BC00031216C0120026021846A0
:10004600EC4D6011E8497017ED33EC3304600DE4B4
:10005600FCFFFEFD22E933E8330470F80202961233
:10006600026158046009E4CC248150062850090234
:1000760002A028400302029DC0E0EB4A7044B9800A
:1000860006D0E0FB02028CEF4E701CBD8008EBFF31
:10009600EAFEE9FD80EBE98DF0A4FEE5F002012F12
:1000A600E9CDF9EAFEEBFFEF89F0A4FCE5F0CE8995
:1000B600F0A42EFFE435F0CD89F0A42DFEE435F052
:1000C6008067EF4E7005BD80D780C3EF8BF0A4AC80
:1000D600F0EE8BF0A42CFCE435F0F8EF8AF0A42CBB
:1000E600E5F038FCE433CB8DF0A42CFCE5F03BF8CE
:1000F600EE8AF0A42CFCE5F038F8E433CF89F0A4BE
:100106002CFCE5F038CF3400CE89F0A42FFFE5F0C3
:100116003EFEE433C98DF0A42EFEE5F039CD8AF01B
:10012600A42FFFE5F03EFEE43DFD33D0E0FB500793
:100136000BBB000F0202A0EC2CFCEF33FFEE33FEEC
:06014600ED33FD0202781A
:10014C000202A0EC5D046005E859047003020296FB
:10015C00120261580460F6EC4860F2EC7004FDFE8B
:10016C00FF22C860DB2481C85009C3986002500686
:10017C0002029D9850CAF582E9294B4A7005AB8260
:10018C0002028C75F0007C1A7880C3EF9BEE9AED1E
:10019C0099400DC3EF9BFFEE9AFEED99FDE842F0FE
:1001AC00DC23ACF0D0E0FFD0E0FED0E0FDAB822051
:1001BC00E7101BEB60BAEC2CFCEF33FFEE33FEEDDB
:1001CC0033FD020278E803F830E705C0F075F00063
:1001DC00EF2FFFEE33FEED33FD40B830E7C280AABF
:1001EC0075F020800E75F010800575F0087D007E8E
:1001FC00007F003392D530D503120325EC33401029
:10020C00EF33FFEE33FEED33FDEC33FCD5F0ED2296
:0E021C00E5F0247EA2D513CC92E7CDCEFF22D2
:10022A00EDD2E7CD33EC3392D524814006E4FFFECC
:10023A00FDFC22FCE4CFCECDCC24E0501174FF802B
:10024A00EDC3CC13CCCD13CDCE13CECF13CF0470C8
:07025A00F030D5DE020325A0
:10026100E9D2E7C933E833F892D5EDD2E7CD33ECE3
:0702710033FC5002B2D5225C
:10027800EC30E7100FBF000C0EBE00080DBD0004E7
:100288000BEB6014A2D5EB13FCED92E7FD2274FF93
:10029800FCFDFEFF22E480F8A2D574FF13FC7D80EC
:0302A800E480EF00
:03000000021042A9
:0C104200787FE4F6D8FD7581AB021089C0
:1002AB00BB010689828A83E0225002E722BBFE0251
:0902BB00E32289828A83E4932284
:1002C400BB010CE58229F582E5833AF583E02250EF
:1002D40006E92582F8E622BBFE06E92582F8E22239
:0D02E400E58229F582E5833AF583E4932253
:1002F100BB010689828A83F0225002F722BBFE01EC
:02030100F322E5
:10030300F8BB010DE58229F582E5833AF583E8F030
:10031300225006E92582C8F622BBFE05E92582C8DC
:02032300F222C4
:0E032500C3E49FFFE49EFEE49DFDE49CFC22E9
:10033300BB010DE58229F582E5833AF58302037259
:100343005007E92582F8020369BBFE07E92582F815
:1003530002037BE58229F582E5833AF58302038470
:060363008A838982E47325
:10104E00021765E493A3F8E493A34003F68001F23C
:10105E0008DFF48029E493A3F85407240CC8C333A3
:10106E00C4540F4420C8834004F456800146F6DF72
:10107E00E4800B010204081020408090058DE47E70
:10108E00019360BCA3FF543F30E509541FFEE49367
:10109E00A360010ECF54C025E060A840B8E493A32E
:1010AE00FAE493A3F8E493A3C8C582C8CAC583CA59
:1010BE00F0A3C8C582C8CAC583CADFE9DEE780BE11
:0107130000E5
:09036900E6FB08E6FA08E6F922B9
:09037200E0FBA3E0FAA3E0F9228C
:09037B00E2FB08E2FA08E2F922B3
:0C038400E493FB740193FA740293F922D5
:00000001FF
