BL51 BANKED LINKER/LOCATER V6.22.2.0                                                    01/05/2023  09:57:43  PAGE 1


BL51 BANKED LINKER/LOCATER V6.22.2.0, INVOKED BY:
D:\KEIL_V5\C51\BIN\BL51.EXE .\obj\main.obj, .\obj\public.obj, .\obj\Relays.obj, .\obj\Sys_init.obj, .\obj\Timer0.obj, .\
>> obj\UART1.obj, .\obj\RemoteControl.obj, .\obj\Trigger.obj, .\obj\MAX6675.obj, .\obj\Modbus.obj, .\obj\UART2.obj, .\ob
>> j\System.obj, .\obj\tm1650.obj TO .\obj\Project-STC15 PRINT (.\obj\Project-STC15.m51) RAMSIZE (256)


MEMORY MODEL: SMALL WITH FLOATING POINT ARITHMETIC


INPUT MODULES INCLUDED:
  .\obj\main.obj (MAIN)
  .\obj\public.obj (PUBLIC)
  .\obj\Relays.obj (RELAYS)
  .\obj\Sys_init.obj (SYS_INIT)
  .\obj\Timer0.obj (TIMER0)
  .\obj\UART1.obj (UART1)
  .\obj\RemoteControl.obj (REMOTECONTROL)
  .\obj\Trigger.obj (TRIGGER)
  .\obj\MAX6675.obj (MAX6675)
  .\obj\Modbus.obj (MODBUS)
  .\obj\UART2.obj (UART2)
  .\obj\System.obj (SYSTEM)
  .\obj\tm1650.obj (TM1650)
  D:\KEIL_V5\C51\LIB\C51FPS.LIB (?C?FPMUL)
  D:\KEIL_V5\C51\LIB\C51FPS.LIB (?C?FPDIV)
  D:\KEIL_V5\C51\LIB\C51FPS.LIB (?C?FCAST)
  D:\KEIL_V5\C51\LIB\C51FPS.LIB (?C?CASTF)
  D:\KEIL_V5\C51\LIB\C51FPS.LIB (?C?FPGETOPN)
  D:\KEIL_V5\C51\LIB\C51S.LIB (?C_STARTUP)
  D:\KEIL_V5\C51\LIB\C51S.LIB (?C?CLDPTR)
  D:\KEIL_V5\C51\LIB\C51S.LIB (?C?CLDOPTR)
  D:\KEIL_V5\C51\LIB\C51S.LIB (?C?CSTPTR)
  D:\KEIL_V5\C51\LIB\C51S.LIB (?C?CSTOPTR)
  D:\KEIL_V5\C51\LIB\C51S.LIB (?C?LNEG)
  D:\KEIL_V5\C51\LIB\C51S.LIB (?C?PLDOPTR)
  D:\KEIL_V5\C51\LIB\C51S.LIB (?C?ICALL)
  D:\KEIL_V5\C51\LIB\C51S.LIB (?C_INIT)
  D:\KEIL_V5\C51\LIB\C51S.LIB (?C?PLDIDATA)
  D:\KEIL_V5\C51\LIB\C51S.LIB (?C?PLDXDATA)
  D:\KEIL_V5\C51\LIB\C51S.LIB (?C?PLDPDATA)
  D:\KEIL_V5\C51\LIB\C51S.LIB (?C?PLDCODE)


LINK MAP OF MODULE:  .\obj\Project-STC15 (MAIN)


            TYPE    BASE      LENGTH    RELOCATION   SEGMENT NAME
            -----------------------------------------------------

            * * * * * * *   D A T A   M E M O R Y   * * * * * * *
            REG     0000H     0008H     ABSOLUTE     "REG BANK 0"
            DATA    0008H     0012H     UNIT         ?DT?TIMER0
            DATA    001AH     000FH     UNIT         ?DT?MAX6675
            DATA    0029H     000FH     UNIT         ?DT?SYSTEM
            DATA    0038H     0009H     UNIT         ?DT?PUBLIC
            DATA    0041H     0009H     UNIT         ?DT?SYS_INIT
            DATA    004AH     0007H     UNIT         ?DT?REMOTECONTROL
            DATA    0051H     0007H     UNIT         _DATA_GROUP_
BL51 BANKED LINKER/LOCATER V6.22.2.0                                                  01/05/2023  09:57:43  PAGE 2


            DATA    0058H     0004H     UNIT         ?DT?TRIGGER
            DATA    005CH     0002H     UNIT         ?DT?MAIN
            DATA    005EH     0001H     UNIT         ?DT?_PUTCHAR?UART1
            IDATA   005FH     0020H     UNIT         ?ID?UART1
            IDATA   007FH     0020H     UNIT         ?ID?UART2
            IDATA   009FH     000DH     UNIT         ?ID?RELAYS
            IDATA   00ACH     0001H     UNIT         ?STACK

            * * * * * * *  X D A T A   M E M O R Y  * * * * * * *
            XDATA   0000H     006EH     UNIT         ?XD?UART2
            XDATA   006EH     0028H     UNIT         ?XD?UART1
            XDATA   0096H     0014H     UNIT         ?XD?MAIN
            XDATA   00AAH     0007H     UNIT         ?XD?MODBUS
            XDATA   00B1H     0006H     UNIT         _XDATA_GROUP_

            * * * * * * *   C O D E   M E M O R Y   * * * * * * *
            CODE    0000H     0003H     ABSOLUTE     
            CODE    0003H     0008H     UNIT         ?PR?SPI_DELAY?PUBLIC
            CODE    000BH     0003H     ABSOLUTE     
            CODE    000EH     0013H     UNIT         ?PR?_PUTCHAR?UART1
            CODE    0021H     0001H     UNIT         ?PR?RS485_SET_SENDMODE?UART1
            CODE    0022H     0001H     UNIT         ?PR?RS485_SET_RECMODE?UART1
            CODE    0023H     0003H     ABSOLUTE     
            CODE    0026H     001DH     UNIT         ?PR?I2CASK?TM1650
            CODE    0043H     0003H     ABSOLUTE     
            CODE    0046H     034AH     UNIT         ?C?LIB_CODE
            CODE    0390H     01FDH     UNIT         ?PR?_MODBUS_READ_REGISTER?MODBUS
            CODE    058DH     0187H     UNIT         ?C_INITSEG
            CODE    0714H     0165H     UNIT         ?PR?SYS_RUN_CHECK?SYSTEM
            CODE    0879H     0155H     UNIT         ?PR?TRIGGER_CONTROL?TRIGGER
            CODE    09CEH     0142H     UNIT         ?PR?_LEDNUM_UPDATA?SYSTEM
            CODE    0B10H     0138H     UNIT         ?PR?_MODBUS_WRTIE_REGISTER?MODBUS
            CODE    0C48H     0112H     UNIT         ?PR?_MODBUS_WRITE_IMEI?MODBUS
            CODE    0D5AH     00F7H     UNIT         ?PR?_PROTOCOL_ANALYSIS?MODBUS
            CODE    0E51H     00C6H     UNIT         ?PR?_DATAUPDATE?MAIN
            CODE    0F17H     009EH     UNIT         ?PR?_MODBUS_USE_THE_DEVICE?MODBUS
            CODE    0FB5H     008DH     UNIT         ?PR?QKEY_DETECT?REMOTECONTROL
            CODE    1042H     008CH     UNIT         ?C_C51STARTUP
            CODE    10CEH     0079H     UNIT         ?PR?STANDBY?SYSTEM
            CODE    1147H     0070H     UNIT         ?PR?QKEY_STANDBY_FLAG_DETECT?REMOTECONTROL
            CODE    11B7H     006EH     UNIT         ?PR?_SENDARRAY?UART1
            CODE    1225H     006EH     UNIT         ?PR?_SENDARRAY?UART2
            CODE    1293H     005EH     UNIT         ?PR?PROTOCOL?UART1
            CODE    12F1H     005EH     UNIT         ?PR?PROTOCOL?UART2
            CODE    134FH     005CH     UNIT         ?PR?TIMER0_ISR?TIMER0
            CODE    13ABH     0056H     UNIT         ?PR?_SENDSTRING?UART1
            CODE    1401H     0056H     UNIT         ?PR?_SENDSTRING?UART2
            CODE    1457H     004AH     UNIT         ?PR?UART2_ISR?UART2
            CODE    14A1H     0048H     UNIT         ?PR?MAX6675_READRAWVALUE?MAX6675
            CODE    14E9H     0044H     UNIT         ?PR?UART1_ISR?UART1
            CODE    152DH     0043H     UNIT         ?PR?GPIO_INIT?SYS_INIT
            CODE    1570H     0041H     UNIT         ?PR?INIT?UART1
            CODE    15B1H     003FH     UNIT         ?PR?SYS_INIT?SYS_INIT
            CODE    15F0H     0038H     UNIT         ?PR?INIT?UART2
            CODE    1628H     0037H     UNIT         ?PR?_MAX6675_READWRITEBYTE?MAX6675
            CODE    165FH     0033H     UNIT         ?CO?SYSTEM
            CODE    1692H     002EH     UNIT         ?PR?SYS_RUN_UPDATE?SYSTEM
BL51 BANKED LINKER/LOCATER V6.22.2.0                                                  01/05/2023  09:57:43  PAGE 3


            CODE    16C0H     002BH     UNIT         ?PR?_I2CWRBYTE?TM1650
            CODE    16EBH     002AH     UNIT         ?PR?_MODBUS_BOOT_THE_DEVICE?MODBUS
            CODE    1715H     002AH     UNIT         ?PR?_MODBUS_HEAT_IGNITION?MODBUS
            CODE    173FH     0026H     UNIT         ?PR?_MEMORY_CLR?PUBLIC
            CODE    1765H     0025H     UNIT         ?PR?MAIN?MAIN
            CODE    178AH     0022H     UNIT         ?PR?MAX6675_READTEMPERATURE?MAX6675
            CODE    17ACH     001AH     UNIT         ?PR?_TM1650_SET?TM1650
            CODE    17C6H     0019H     UNIT         ?PR?_DELAY_US?TM1650
            CODE    17DFH     0017H     UNIT         ?PR?_DELAY_MS?PUBLIC
            CODE    17F6H     0017H     UNIT         ?PR?RUN?SYSTEM
            CODE    180DH     0011H     UNIT         ?PR?TIMER0_INIT?TIMER0
            CODE    181EH     000AH     UNIT         ?PR?IE_INIT?SYS_INIT
            CODE    1828H     000AH     UNIT         ?PR?_SENDDATA?UART1
            CODE    1832H     000AH     UNIT         ?PR?_SENDDATA?UART2
            CODE    183CH     000AH     UNIT         ?PR?I2CSTART?TM1650
            CODE    1846H     000AH     UNIT         ?PR?I2CSTOP?TM1650
            CODE    1850H     0006H     UNIT         ?CO?TRIGGER
            CODE    1856H     0001H     UNIT         ?PR?RS485_SET_SENDMODE?UART2
            CODE    1857H     0001H     UNIT         ?PR?RS485_SET_RECMODE?UART2



OVERLAY MAP OF MODULE:   .\obj\Project-STC15 (MAIN)


SEGMENT                                            DATA_GROUP          XDATA_GROUP
  +--> CALLED SEGMENT                            START    LENGTH     START    LENGTH
------------------------------------------------------------------------------------
?C_C51STARTUP                                    -----    -----      -----    -----
  +--> ?PR?MAIN?MAIN
  +--> ?C_INITSEG

?C_INITSEG                                       -----    -----      -----    -----
  +--> ?PR?_DELAY_MS?PUBLIC
  +--> ?PR?SPI_DELAY?PUBLIC
  +--> ?PR?_MEMORY_CLR?PUBLIC
  +--> ?PR?GPIO_INIT?SYS_INIT
  +--> ?PR?IE_INIT?SYS_INIT
  +--> ?PR?SYS_INIT?SYS_INIT
  +--> ?PR?TIMER0_INIT?TIMER0
  +--> ?PR?INIT?UART1
  +--> ?PR?_SENDDATA?UART1
  +--> ?PR?_SENDARRAY?UART1
  +--> ?PR?_SENDSTRING?UART1
  +--> ?PR?PROTOCOL?UART1
  +--> ?PR?RS485_SET_SENDMODE?UART1
  +--> ?PR?RS485_SET_RECMODE?UART1
  +--> ?PR?QKEY_DETECT?REMOTECONTROL
  +--> ?PR?QKEY_STANDBY_FLAG_DETECT?REMOTECO...
  +--> ?PR?TRIGGER_CONTROL?TRIGGER
  +--> ?PR?_MAX6675_READWRITEBYTE?MAX6675
  +--> ?PR?MAX6675_READRAWVALUE?MAX6675
  +--> ?PR?MAX6675_READTEMPERATURE?MAX6675
  +--> ?PR?_PROTOCOL_ANALYSIS?MODBUS
  +--> ?PR?INIT?UART2
  +--> ?PR?_SENDDATA?UART2
  +--> ?PR?_SENDARRAY?UART2
BL51 BANKED LINKER/LOCATER V6.22.2.0                                                  01/05/2023  09:57:43  PAGE 4


  +--> ?PR?_SENDSTRING?UART2
  +--> ?PR?PROTOCOL?UART2
  +--> ?PR?RS485_SET_SENDMODE?UART2
  +--> ?PR?RS485_SET_RECMODE?UART2
  +--> ?PR?RUN?SYSTEM
  +--> ?PR?STANDBY?SYSTEM

?PR?_MEMORY_CLR?PUBLIC                           0051H    0003H      -----    -----

?PR?SYS_INIT?SYS_INIT                            -----    -----      -----    -----
  +--> ?PR?_TM1650_SET?TM1650

?PR?_TM1650_SET?TM1650                           -----    -----      -----    -----
  +--> ?PR?I2CSTART?TM1650
  +--> ?PR?_I2CWRBYTE?TM1650
  +--> ?PR?I2CASK?TM1650
  +--> ?PR?I2CSTOP?TM1650

?PR?I2CSTART?TM1650                              -----    -----      -----    -----
  +--> ?PR?_DELAY_US?TM1650

?PR?_DELAY_US?TM1650                             0053H    0002H      -----    -----

?PR?_I2CWRBYTE?TM1650                            -----    -----      -----    -----
  +--> ?PR?_DELAY_US?TM1650

?PR?I2CASK?TM1650                                -----    -----      -----    -----
  +--> ?PR?_DELAY_US?TM1650

?PR?I2CSTOP?TM1650                               -----    -----      -----    -----
  +--> ?PR?_DELAY_US?TM1650

?PR?_SENDARRAY?UART1                             0051H    0007H      -----    -----

?PR?_SENDSTRING?UART1                            0051H    0003H      -----    -----

?PR?TRIGGER_CONTROL?TRIGGER                      -----    -----      -----    -----
  +--> ?CO?TRIGGER
  +--> ?PR?_DATAUPDATE?MAIN

?PR?_DATAUPDATE?MAIN                             0053H    0001H      -----    -----

?PR?_MAX6675_READWRITEBYTE?MAX6675               0053H    0003H      -----    -----

?PR?MAX6675_READRAWVALUE?MAX6675                 0051H    0002H      -----    -----
  +--> ?PR?_MAX6675_READWRITEBYTE?MAX6675

?PR?MAX6675_READTEMPERATURE?MAX6675              -----    -----      -----    -----
  +--> ?PR?MAX6675_READRAWVALUE?MAX6675

?PR?_PROTOCOL_ANALYSIS?MODBUS                    0051H    0001H      00B1H    0003H
  +--> ?PR?_MODBUS_READ_REGISTER?MODBUS
  +--> ?PR?_MODBUS_WRTIE_REGISTER?MODBUS
  +--> ?PR?_MODBUS_WRITE_IMEI?MODBUS
  +--> ?PR?_MODBUS_BOOT_THE_DEVICE?MODBUS
  +--> ?PR?_MODBUS_HEAT_IGNITION?MODBUS
  +--> ?PR?_MODBUS_USE_THE_DEVICE?MODBUS
BL51 BANKED LINKER/LOCATER V6.22.2.0                                                  01/05/2023  09:57:43  PAGE 5



?PR?_MODBUS_READ_REGISTER?MODBUS                 -----    -----      00B4H    0003H

?PR?_MODBUS_WRTIE_REGISTER?MODBUS                0052H    0001H      00B4H    0003H

?PR?_MODBUS_WRITE_IMEI?MODBUS                    0052H    0001H      00B4H    0003H
  +--> ?PR?_DATAUPDATE?MAIN

?PR?_MODBUS_BOOT_THE_DEVICE?MODBUS               -----    -----      00B4H    0003H

?PR?_MODBUS_HEAT_IGNITION?MODBUS                 -----    -----      00B4H    0003H

?PR?_MODBUS_USE_THE_DEVICE?MODBUS                -----    -----      00B4H    0003H
  +--> ?PR?_DATAUPDATE?MAIN

?PR?_SENDARRAY?UART2                             0051H    0007H      -----    -----

?PR?_SENDSTRING?UART2                            0051H    0003H      -----    -----

?PR?RUN?SYSTEM                                   -----    -----      -----    -----
  +--> ?PR?SYS_RUN_CHECK?SYSTEM
  +--> ?PR?SYS_RUN_UPDATE?SYSTEM

?PR?SYS_RUN_CHECK?SYSTEM                         -----    -----      -----    -----
  +--> ?PR?_LEDNUM_UPDATA?SYSTEM
  +--> ?CO?SYSTEM

?PR?_LEDNUM_UPDATA?SYSTEM                        0051H    0002H      -----    -----
  +--> ?CO?SYSTEM
  +--> ?PR?_TM1650_SET?TM1650

?PR?SYS_RUN_UPDATE?SYSTEM                        -----    -----      -----    -----
  +--> ?PR?_DATAUPDATE?MAIN

?PR?STANDBY?SYSTEM                               0051H    0002H      -----    -----
  +--> ?PR?_DATAUPDATE?MAIN



SYMBOL TABLE OF MODULE:  .\obj\Project-STC15 (MAIN)

  VALUE           TYPE          NAME
  ----------------------------------

  -------         MODULE        MAIN
  C:0000H         SYMBOL        _ICE_DUMMY_
  D:0080H         PUBLIC        P0
  D:005CH         PUBLIC        StateFlag
  D:0090H         PUBLIC        P1
  D:00A0H         PUBLIC        P2
  D:00B0H         PUBLIC        P3
  D:00C0H         PUBLIC        P4
  D:00C8H         PUBLIC        P5
  D:00E8H         PUBLIC        P6
  D:00F8H         PUBLIC        P7
  D:00A8H         PUBLIC        IE
  D:005DH         PUBLIC        StandBy_Flag
BL51 BANKED LINKER/LOCATER V6.22.2.0                                                  01/05/2023  09:57:43  PAGE 6


  D:00B8H         PUBLIC        IP
  D:00D8H         PUBLIC        CCON
  C:1765H         PUBLIC        main
  B:0080H.1       PUBLIC        P01
  D:0098H         PUBLIC        SCON
  D:0088H         PUBLIC        TCON
  B:0090H.7       PUBLIC        P17
  X:0096H         PUBLIC        dataUpdate_Buffer
  C:0E51H         PUBLIC        _DataUpdate
  D:00D0H         PUBLIC        PSW
  -------         PROC          MAIN
  C:1765H         LINE#         38
  C:1765H         LINE#         39
  C:1765H         LINE#         42
  C:176BH         LINE#         45
  C:176BH         LINE#         46
  C:176BH         LINE#         47
  C:1770H         LINE#         48
  C:1770H         LINE#         49
  C:1772H         LINE#         50
  C:1774H         LINE#         51
  C:177BH         LINE#         52
  C:177DH         LINE#         54
  C:177DH         LINE#         55
  C:177FH         LINE#         56
  C:1781H         LINE#         57
  C:1788H         LINE#         58
  C:1788H         LINE#         59
  -------         ENDPROC       MAIN
  -------         PROC          _DATAUPDATE
  D:0007H         SYMBOL        flag
  -------         DO            
  D:0053H         SYMBOL        Flag
  -------         ENDDO         
  C:0E51H         LINE#         66
  C:0E51H         LINE#         67
  C:0E51H         LINE#         68
  C:0E53H         LINE#         71
  C:0E5CH         LINE#         72
  C:0E65H         LINE#         75
  C:0E69H         LINE#         78
  C:0E6DH         LINE#         81
  C:0E70H         LINE#         82
  C:0E74H         LINE#         85
  C:0E77H         LINE#         86
  C:0E7CH         LINE#         87
  C:0E80H         LINE#         88
  C:0E84H         LINE#         89
  C:0E88H         LINE#         90
  C:0E8CH         LINE#         91
  C:0E90H         LINE#         93
  C:0E95H         LINE#         94
  C:0E99H         LINE#         95
  C:0E9DH         LINE#         96
  C:0EA1H         LINE#         97
  C:0EA3H         LINE#         98
  C:0EA5H         LINE#         101
BL51 BANKED LINKER/LOCATER V6.22.2.0                                                  01/05/2023  09:57:43  PAGE 7


  C:0EB1H         LINE#         102
  C:0EB1H         LINE#         103
  C:0EB1H         LINE#         104
  C:0EB1H         LINE#         105
  C:0EB3H         LINE#         107
  C:0EB3H         LINE#         108
  C:0EBDH         LINE#         109
  C:0EBFH         LINE#         111
  C:0EBFH         LINE#         112
  C:0EDBH         LINE#         113
  C:0EE8H         LINE#         114
  C:0F04H         LINE#         115
  C:0F04H         LINE#         117
  C:0F04H         LINE#         118
  C:0F04H         LINE#         120
  C:0F04H         LINE#         121
  -------         ENDPROC       _DATAUPDATE
  -------         ENDMOD        MAIN

  -------         MODULE        PUBLIC
  C:0000H         SYMBOL        _ICE_DUMMY_
  C:173FH         PUBLIC        _Memory_Clr
  D:0080H         PUBLIC        P0
  D:0090H         PUBLIC        P1
  D:00A0H         PUBLIC        P2
  D:00B0H         PUBLIC        P3
  D:00C0H         PUBLIC        P4
  D:00C8H         PUBLIC        P5
  D:00E8H         PUBLIC        P6
  D:00F8H         PUBLIC        P7
  D:00A8H         PUBLIC        IE
  D:00B8H         PUBLIC        IP
  D:00D8H         PUBLIC        CCON
  C:17DFH         SYMBOL        _Delay_ms
  D:0098H         PUBLIC        SCON
  D:0088H         PUBLIC        TCON
  C:0003H         SYMBOL        SPI_delay
  D:0038H         PUBLIC        Public
  D:00D0H         PUBLIC        PSW
  -------         PROC          _DELAY_MS
  D:0006H         SYMBOL        ms
  -------         DO            
  D:0004H         SYMBOL        i
  -------         ENDDO         
  C:17DFH         LINE#         26
  C:17DFH         LINE#         27
  C:17DFH         LINE#         29
  C:17DFH         LINE#         30
  C:17E3H         LINE#         31
  C:17ECH         LINE#         32
  C:17F5H         LINE#         34
  -------         ENDPROC       _DELAY_MS
  -------         PROC          SPI_DELAY
  -------         DO            
  D:0007H         SYMBOL        i
  -------         ENDDO         
  C:0003H         LINE#         36
BL51 BANKED LINKER/LOCATER V6.22.2.0                                                  01/05/2023  09:57:43  PAGE 8


  C:0003H         LINE#         37
  C:0003H         LINE#         41
  C:0004H         LINE#         42
  C:0005H         LINE#         43
  C:0006H         LINE#         44
  C:0008H         LINE#         45
  C:000AH         LINE#         48
  -------         ENDPROC       SPI_DELAY
  -------         PROC          _MEMORY_CLR
  D:0051H         SYMBOL        pucBuffer
  D:0004H         SYMBOL        LEN
  -------         DO            
  D:0006H         SYMBOL        i
  -------         ENDDO         
  C:173FH         LINE#         57
  C:1745H         LINE#         58
  C:1745H         LINE#         61
  C:174FH         LINE#         62
  C:174FH         LINE#         63
  C:175DH         LINE#         64
  C:1764H         LINE#         65
  -------         ENDPROC       _MEMORY_CLR
  -------         ENDMOD        PUBLIC

  -------         MODULE        RELAYS
  C:0000H         SYMBOL        _ICE_DUMMY_
  D:0080H         PUBLIC        P0
  D:0090H         PUBLIC        P1
  D:00A0H         PUBLIC        P2
  D:00B0H         PUBLIC        P3
  D:00C0H         PUBLIC        P4
  D:00C8H         PUBLIC        P5
  D:00E8H         PUBLIC        P6
  D:00F8H         PUBLIC        P7
  D:00A8H         PUBLIC        IE
  D:00B8H         PUBLIC        IP
  D:00D8H         PUBLIC        CCON
  D:0098H         PUBLIC        SCON
  D:0088H         PUBLIC        TCON
  I:009FH         PUBLIC        JDQ_Run
  D:00D0H         PUBLIC        PSW
  -------         ENDMOD        RELAYS

  -------         MODULE        SYS_INIT
  C:0000H         SYMBOL        _ICE_DUMMY_
  D:0092H         PUBLIC        P1M0
  D:0093H         PUBLIC        P0M1
  D:0096H         PUBLIC        P2M0
  D:0091H         PUBLIC        P1M1
  D:0080H         PUBLIC        P0
  D:00B2H         PUBLIC        P3M0
  D:0095H         PUBLIC        P2M1
  D:0090H         PUBLIC        P1
  D:00B4H         PUBLIC        P4M0
  D:00B1H         PUBLIC        P3M1
  D:00A0H         PUBLIC        P2
  D:00CAH         PUBLIC        P5M0
BL51 BANKED LINKER/LOCATER V6.22.2.0                                                  01/05/2023  09:57:43  PAGE 9


  D:00B3H         PUBLIC        P4M1
  D:00B0H         PUBLIC        P3
  D:00C9H         PUBLIC        P5M1
  D:00C0H         PUBLIC        P4
  D:00C8H         PUBLIC        P5
  B:00A8H.7       PUBLIC        EA
  D:00E8H         PUBLIC        P6
  D:00F8H         PUBLIC        P7
  D:00A8H         PUBLIC        IE
  B:00A8H.4       PUBLIC        ES
  D:00B8H         PUBLIC        IP
  D:00D8H         PUBLIC        CCON
  C:181EH         SYMBOL        IE_init
  C:152DH         SYMBOL        GPIO_Init
  D:0041H         PUBLIC        Hardware_Init
  B:0080H.1       PUBLIC        P01
  B:0080H.2       PUBLIC        P02
  B:0090H.2       PUBLIC        P12
  B:0080H.3       PUBLIC        P03
  D:0098H         PUBLIC        SCON
  B:0090H.3       PUBLIC        P13
  B:0080H.4       PUBLIC        P04
  D:0088H         PUBLIC        TCON
  B:0090H.4       PUBLIC        P14
  B:0080H.5       PUBLIC        P05
  B:0090H.5       PUBLIC        P15
  B:0080H.6       PUBLIC        P06
  C:15B1H         SYMBOL        Sys_Init
  B:0090H.6       PUBLIC        P16
  B:0080H.7       PUBLIC        P07
  B:00A0H.6       PUBLIC        P26
  B:0090H.7       PUBLIC        P17
  B:00A0H.7       PUBLIC        P27
  B:00C0H.7       PUBLIC        P47
  D:00AFH         PUBLIC        IE2
  B:00A8H.1       PUBLIC        ET0
  D:00D0H         PUBLIC        PSW
  D:0094H         PUBLIC        P0M0
  -------         PROC          GPIO_INIT
  C:152DH         LINE#         28
  C:152DH         LINE#         29
  C:152DH         LINE#         51
  C:1530H         LINE#         52
  C:1533H         LINE#         64
  C:1536H         LINE#         65
  C:1539H         LINE#         75
  C:153CH         LINE#         76
  C:153FH         LINE#         83
  C:1541H         LINE#         84
  C:1544H         LINE#         98
  C:1547H         LINE#         99
  C:1549H         LINE#         107
  C:154CH         LINE#         108
  C:154FH         LINE#         110
  C:1551H         LINE#         111
  C:1553H         LINE#         113
  C:1555H         LINE#         114
BL51 BANKED LINKER/LOCATER V6.22.2.0                                                  01/05/2023  09:57:43  PAGE 10


  C:1557H         LINE#         115
  C:1559H         LINE#         116
  C:155BH         LINE#         117
  C:155DH         LINE#         118
  C:155FH         LINE#         119
  C:1561H         LINE#         120
  C:1563H         LINE#         123
  C:1565H         LINE#         124
  C:1567H         LINE#         125
  C:1569H         LINE#         126
  C:156BH         LINE#         127
  C:156DH         LINE#         128
  C:156FH         LINE#         133
  -------         ENDPROC       GPIO_INIT
  -------         PROC          IE_INIT
  C:181EH         LINE#         141
  C:181EH         LINE#         142
  C:181EH         LINE#         145
  C:1820H         LINE#         147
  C:1822H         LINE#         148
  C:1825H         LINE#         150
  C:1827H         LINE#         154
  -------         ENDPROC       IE_INIT
  -------         PROC          SYS_INIT
  C:15B1H         LINE#         164
  C:15B1H         LINE#         165
  C:15B1H         LINE#         167
  C:15BEH         LINE#         168
  C:15C5H         LINE#         169
  C:15CCH         LINE#         170
  C:15D3H         LINE#         171
  C:15DEH         LINE#         172
  C:15E9H         LINE#         173
  -------         ENDPROC       SYS_INIT
  -------         ENDMOD        SYS_INIT

  -------         MODULE        TIMER0
  C:0000H         SYMBOL        _ICE_DUMMY_
  D:0080H         PUBLIC        P0
  D:0090H         PUBLIC        P1
  D:00A0H         PUBLIC        P2
  D:00B0H         PUBLIC        P3
  D:00C0H         PUBLIC        P4
  D:00C8H         PUBLIC        P5
  D:00E8H         PUBLIC        P6
  D:00F8H         PUBLIC        P7
  D:00A8H         PUBLIC        IE
  D:00B8H         PUBLIC        IP
  D:00D8H         PUBLIC        CCON
  C:180DH         SYMBOL        Timer0_Init
  D:0008H         PUBLIC        Timer0
  D:0098H         PUBLIC        SCON
  D:0089H         PUBLIC        TMOD
  D:0088H         PUBLIC        TCON
  D:008EH         PUBLIC        AUXR
  B:0088H.5       PUBLIC        TF0
  D:008CH         PUBLIC        TH0
BL51 BANKED LINKER/LOCATER V6.22.2.0                                                  01/05/2023  09:57:43  PAGE 11


  D:008AH         PUBLIC        TL0
  B:0088H.4       PUBLIC        TR0
  C:134FH         PUBLIC        Timer0_isr
  D:00D0H         PUBLIC        PSW
  -------         PROC          TIMER0_INIT
  C:180DH         LINE#         32
  C:180DH         LINE#         33
  C:180DH         LINE#         35
  C:1810H         LINE#         36
  C:1813H         LINE#         37
  C:1816H         LINE#         38
  C:1819H         LINE#         39
  C:181BH         LINE#         40
  C:181DH         LINE#         42
  -------         ENDPROC       TIMER0_INIT
  -------         PROC          TIMER0_ISR
  C:134FH         LINE#         51
  C:1353H         LINE#         54
  C:1364H         LINE#         55
  C:1364H         LINE#         56
  C:136AH         LINE#         57
  C:136AH         LINE#         58
  C:1372H         LINE#         60
  C:1378H         LINE#         61
  C:1378H         LINE#         62
  C:1380H         LINE#         63
  C:1380H         LINE#         64
  C:1388H         LINE#         65
  C:1390H         LINE#         66
  C:1398H         LINE#         69
  C:139EH         LINE#         70
  C:139EH         LINE#         71
  C:13A6H         LINE#         72
  C:13A6H         LINE#         75
  -------         ENDPROC       TIMER0_ISR
  -------         ENDMOD        TIMER0

  -------         MODULE        UART1
  C:0000H         SYMBOL        _ICE_DUMMY_
  D:0080H         PUBLIC        P0
  D:0090H         PUBLIC        P1
  D:00A0H         PUBLIC        P2
  D:00B0H         PUBLIC        P3
  D:00C0H         PUBLIC        P4
  D:00C8H         PUBLIC        P5
  D:00E8H         PUBLIC        P6
  D:00F8H         PUBLIC        P7
  C:13ABH         SYMBOL        _SendString
  C:1828H         SYMBOL        _SendData
  D:00A8H         PUBLIC        IE
  C:11B7H         SYMBOL        _SendArray
  C:1570H         SYMBOL        Init
  D:00B8H         PUBLIC        IP
  B:0098H.0       PUBLIC        RI
  B:0098H.1       PUBLIC        TI
  C:14E9H         PUBLIC        UART1_isr
  X:006EH         SYMBOL        ucSend_Buffer
BL51 BANKED LINKER/LOCATER V6.22.2.0                                                  01/05/2023  09:57:43  PAGE 12


  D:00D8H         PUBLIC        CCON
  D:0099H         PUBLIC        SBUF
  X:0082H         SYMBOL        ucRec_Buffer
  D:0098H         PUBLIC        SCON
  D:0089H         PUBLIC        TMOD
  D:0088H         PUBLIC        TCON
  D:008EH         PUBLIC        AUXR
  C:0021H         SYMBOL        RS485_Set_SendMode
  B:00A8H.3       PUBLIC        ET1
  D:008DH         PUBLIC        TH1
  D:008BH         PUBLIC        TL1
  C:1293H         SYMBOL        Protocol
  B:0088H.6       PUBLIC        TR1
  C:0022H         SYMBOL        RS485_Set_RecMode
  B:0098H.4       PUBLIC        REN
  I:005FH         PUBLIC        UART1
  D:00D0H         PUBLIC        PSW
  C:000EH         PUBLIC        _putchar
  -------         PROC          INIT
  C:1570H         LINE#         59
  C:1570H         LINE#         60
  C:1570H         LINE#         66
  C:1573H         LINE#         67
  C:1576H         LINE#         68
  C:1579H         LINE#         69
  C:157CH         LINE#         71
  C:158CH         LINE#         72
  C:158CH         LINE#         73
  C:1594H         LINE#         74
  C:1594H         LINE#         75
  C:159CH         LINE#         76
  C:15A4H         LINE#         77
  C:15AAH         LINE#         78
  C:15AAH         LINE#         79
  C:15ACH         LINE#         80
  C:15AEH         LINE#         82
  C:15B0H         LINE#         83
  -------         ENDPROC       INIT
  -------         PROC          _SENDDATA
  D:0007H         SYMBOL        dat
  C:1828H         LINE#         91
  C:1828H         LINE#         92
  C:1828H         LINE#         93
  C:182DH         LINE#         94
  C:182FH         LINE#         95
  C:1831H         LINE#         96
  -------         ENDPROC       _SENDDATA
  -------         PROC          _SENDARRAY
  D:0051H         SYMBOL        p_Arr
  D:0054H         SYMBOL        LEN
  -------         DO            
  D:0056H         SYMBOL        i
  -------         ENDDO         
  C:11B7H         LINE#         104
  C:11C1H         LINE#         105
  C:11C1H         LINE#         106
  C:11C6H         LINE#         108
BL51 BANKED LINKER/LOCATER V6.22.2.0                                                  01/05/2023  09:57:43  PAGE 13


  C:11D1H         LINE#         110
  C:11E1H         LINE#         111
  C:11E1H         LINE#         112
  C:11FFH         LINE#         113
  C:1209H         LINE#         114
  C:120EH         LINE#         115
  C:121AH         LINE#         117
  -------         ENDPROC       _SENDARRAY
  -------         PROC          _SENDSTRING
  D:0051H         SYMBOL        p_Str
  C:13ABH         LINE#         127
  C:13B1H         LINE#         128
  C:13B1H         LINE#         129
  C:13BCH         LINE#         131
  C:13C7H         LINE#         132
  C:13C7H         LINE#         133
  C:13E3H         LINE#         134
  C:13E5H         LINE#         135
  C:13EAH         LINE#         136
  C:13F6H         LINE#         138
  -------         ENDPROC       _SENDSTRING
  -------         PROC          RS485_SET_SENDMODE
  C:0021H         LINE#         147
  C:0021H         LINE#         148
  C:0021H         LINE#         151
  -------         ENDPROC       RS485_SET_SENDMODE
  -------         PROC          RS485_SET_RECMODE
  C:0022H         LINE#         159
  C:0022H         LINE#         160
  C:0022H         LINE#         163
  -------         ENDPROC       RS485_SET_RECMODE
  -------         PROC          _PUTCHAR
  D:005EH         SYMBOL        c
  C:000EH         LINE#         168
  C:0010H         LINE#         169
  C:0010H         LINE#         170
  C:001EH         LINE#         171
  C:0020H         LINE#         172
  -------         ENDPROC       _PUTCHAR
  -------         PROC          UART1_ISR
  C:14E9H         LINE#         182
  C:14F6H         LINE#         184
  C:14F9H         LINE#         185
  C:14F9H         LINE#         186
  C:14FBH         LINE#         188
  C:1507H         LINE#         189
  C:1507H         LINE#         190
  C:1515H         LINE#         191
  C:1515H         LINE#         193
  C:1519H         LINE#         194
  C:1519H         LINE#         196
  C:151CH         LINE#         197
  C:151CH         LINE#         198
  C:151EH         LINE#         199
  C:1522H         LINE#         200
  C:1522H         LINE#         201
  -------         ENDPROC       UART1_ISR
BL51 BANKED LINKER/LOCATER V6.22.2.0                                                  01/05/2023  09:57:43  PAGE 14


  -------         PROC          PROTOCOL
  C:1293H         LINE#         211
  C:1293H         LINE#         212
  C:1293H         LINE#         213
  C:129AH         LINE#         214
  C:129AH         LINE#         218
  C:12A0H         LINE#         219
  C:12A0H         LINE#         220
  C:12A5H         LINE#         221
  C:12B1H         LINE#         222
  C:12B1H         LINE#         224
  C:12BCH         LINE#         225
  C:12BCH         LINE#         226
  C:12BCH         LINE#         229
  C:12D5H         LINE#         230
  C:12D5H         LINE#         233
  C:12EAH         LINE#         236
  C:12EEH         LINE#         237
  C:12F0H         LINE#         238
  C:12F0H         LINE#         239
  -------         ENDPROC       PROTOCOL
  -------         ENDMOD        UART1

  -------         MODULE        REMOTECONTROL
  C:0000H         SYMBOL        _ICE_DUMMY_
  D:0080H         PUBLIC        P0
  D:0090H         PUBLIC        P1
  D:00A0H         PUBLIC        P2
  D:00B0H         PUBLIC        P3
  D:00C0H         PUBLIC        P4
  D:00C8H         PUBLIC        P5
  D:00E8H         PUBLIC        P6
  D:00F8H         PUBLIC        P7
  D:00A8H         PUBLIC        IE
  D:00B8H         PUBLIC        IP
  D:00D8H         PUBLIC        CCON
  B:00A0H.1       PUBLIC        P21
  D:0098H         PUBLIC        SCON
  B:00A0H.2       PUBLIC        P22
  D:0088H         PUBLIC        TCON
  B:00A0H.3       PUBLIC        P23
  B:00A0H.4       PUBLIC        P24
  B:0080H.6       PUBLIC        P06
  B:0080H.7       PUBLIC        P07
  D:004AH         PUBLIC        RemoteControl_1
  C:1147H         SYMBOL        QKEY_StandBy_Flag_Detect
  C:0FB5H         SYMBOL        QKEY_Detect
  D:00D0H         PUBLIC        PSW
  -------         PROC          QKEY_DETECT
  C:0FB5H         LINE#         25
  C:0FB5H         LINE#         26
  C:0FB5H         LINE#         28
  C:0FC4H         LINE#         30
  C:0FC4H         LINE#         32
  C:0FD1H         LINE#         34
  C:0FD4H         LINE#         35
  C:0FD4H         LINE#         36
BL51 BANKED LINKER/LOCATER V6.22.2.0                                                  01/05/2023  09:57:43  PAGE 15


  C:0FD7H         LINE#         40
  C:0FDBH         LINE#         41
  C:0FDDH         LINE#         42
  C:0FDFH         LINE#         44
  C:0FE2H         LINE#         45
  C:0FE2H         LINE#         46
  C:0FEFH         LINE#         47
  C:0FF1H         LINE#         49
  C:0FF3H         LINE#         50
  C:0FF5H         LINE#         51
  C:0FF9H         LINE#         57
  C:0FFCH         LINE#         58
  C:0FFCH         LINE#         60
  C:0FFFH         LINE#         61
  C:0FFFH         LINE#         62
  C:1002H         LINE#         66
  C:1006H         LINE#         67
  C:1008H         LINE#         68
  C:100AH         LINE#         70
  C:100DH         LINE#         71
  C:100DH         LINE#         72
  C:101AH         LINE#         73
  C:101CH         LINE#         75
  C:101EH         LINE#         76
  C:1020H         LINE#         77
  C:1024H         LINE#         84
  C:1027H         LINE#         85
  C:1027H         LINE#         87
  C:102AH         LINE#         88
  C:102AH         LINE#         91
  C:102DH         LINE#         92
  C:1031H         LINE#         93
  C:1034H         LINE#         96
  C:1034H         LINE#         98
  C:1037H         LINE#         99
  C:1037H         LINE#         102
  C:103AH         LINE#         103
  C:103EH         LINE#         104
  C:1041H         LINE#         105
  C:1041H         LINE#         107
  C:1041H         LINE#         108
  -------         ENDPROC       QKEY_DETECT
  -------         PROC          QKEY_STANDBY_FLAG_DETECT
  C:1147H         LINE#         112
  C:1147H         LINE#         113
  C:1147H         LINE#         115
  C:1150H         LINE#         116
  C:1150H         LINE#         118
  C:115DH         LINE#         119
  C:1160H         LINE#         120
  C:1160H         LINE#         121
  C:1163H         LINE#         125
  C:1167H         LINE#         126
  C:1169H         LINE#         127
  C:116BH         LINE#         129
  C:116EH         LINE#         130
  C:116EH         LINE#         131
BL51 BANKED LINKER/LOCATER V6.22.2.0                                                  01/05/2023  09:57:43  PAGE 16


  C:117BH         LINE#         132
  C:117DH         LINE#         134
  C:117FH         LINE#         135
  C:1181H         LINE#         136
  C:1185H         LINE#         143
  C:1185H         LINE#         145
  C:1188H         LINE#         146
  C:1188H         LINE#         147
  C:118BH         LINE#         151
  C:118FH         LINE#         152
  C:1191H         LINE#         153
  C:1193H         LINE#         155
  C:1196H         LINE#         156
  C:1196H         LINE#         157
  C:11A3H         LINE#         158
  C:11A5H         LINE#         160
  C:11A7H         LINE#         161
  C:11A9H         LINE#         162
  C:11ADH         LINE#         170
  C:11ADH         LINE#         172
  C:11B0H         LINE#         173
  C:11B0H         LINE#         174
  C:11B3H         LINE#         176
  C:11B6H         LINE#         177
  C:11B6H         LINE#         178
  C:11B6H         LINE#         179
  -------         ENDPROC       QKEY_STANDBY_FLAG_DETECT
  -------         ENDMOD        REMOTECONTROL

  -------         MODULE        TRIGGER
  C:0000H         SYMBOL        _ICE_DUMMY_
  D:0080H         PUBLIC        P0
  D:0090H         PUBLIC        P1
  D:00A0H         PUBLIC        P2
  D:00B0H         PUBLIC        P3
  D:00C0H         PUBLIC        P4
  D:00C8H         PUBLIC        P5
  D:00E8H         PUBLIC        P6
  D:00F8H         PUBLIC        P7
  D:00A8H         PUBLIC        IE
  D:00B8H         PUBLIC        IP
  C:0879H         SYMBOL        Trigger_Control
  D:00D8H         PUBLIC        CCON
  B:0080H.2       PUBLIC        P02
  B:0090H.2       PUBLIC        P12
  B:0080H.3       PUBLIC        P03
  D:0098H         PUBLIC        SCON
  B:0090H.3       PUBLIC        P13
  B:0080H.4       PUBLIC        P04
  D:0088H         PUBLIC        TCON
  B:0090H.4       PUBLIC        P14
  B:0080H.5       PUBLIC        P05
  B:0090H.5       PUBLIC        P15
  B:0080H.6       PUBLIC        P06
  B:0090H.6       PUBLIC        P16
  B:0080H.7       PUBLIC        P07
  B:00C0H.7       PUBLIC        P47
BL51 BANKED LINKER/LOCATER V6.22.2.0                                                  01/05/2023  09:57:43  PAGE 17


  D:0058H         PUBLIC        Trigger_1
  C:1850H         PUBLIC        close_device
  D:00D0H         PUBLIC        PSW
  -------         PROC          TRIGGER_CONTROL
  C:0879H         LINE#         33
  C:0879H         LINE#         34
  C:0879H         LINE#         37
  C:0880H         LINE#         38
  C:0880H         LINE#         40
  C:08C1H         LINE#         41
  C:08C1H         LINE#         42
  C:08C1H         LINE#         43
  C:08C5H         LINE#         45
  C:08C9H         LINE#         46
  C:08C9H         LINE#         47
  C:08CBH         LINE#         48
  C:08CDH         LINE#         49
  C:08D0H         LINE#         51
  C:08D0H         LINE#         52
  C:08D2H         LINE#         53
  C:08D4H         LINE#         54
  C:08D8H         LINE#         55
  C:08D8H         LINE#         57
  C:08D8H         LINE#         58
  C:08DBH         LINE#         60
  C:08DBH         LINE#         61
  C:08DFH         LINE#         63
  C:08E3H         LINE#         64
  C:08E3H         LINE#         65
  C:08E5H         LINE#         66
  C:08E7H         LINE#         67
  C:08E9H         LINE#         69
  C:08E9H         LINE#         70
  C:08EBH         LINE#         71
  C:08EDH         LINE#         72
  C:08F1H         LINE#         73
  C:08F1H         LINE#         75
  C:08F1H         LINE#         76
  C:08F4H         LINE#         78
  C:08F4H         LINE#         84
  C:08F4H         LINE#         87
  C:08F4H         LINE#         88
  C:08F7H         LINE#         90
  C:08F7H         LINE#         97
  C:08F7H         LINE#         98
  C:08FBH         LINE#         100
  C:08FDH         LINE#         101
  C:0900H         LINE#         103
  C:0900H         LINE#         104
  C:0900H         LINE#         106
  C:0900H         LINE#         107
  C:0905H         LINE#         108
  C:0905H         LINE#         109
  C:0907H         LINE#         110
  C:0909H         LINE#         111
  C:090BH         LINE#         113
  C:090BH         LINE#         114
BL51 BANKED LINKER/LOCATER V6.22.2.0                                                  01/05/2023  09:57:43  PAGE 18


  C:090DH         LINE#         115
  C:090FH         LINE#         116
  C:090FH         LINE#         118
  C:090FH         LINE#         119
  C:0912H         LINE#         121
  C:0912H         LINE#         122
  C:0917H         LINE#         123
  C:0917H         LINE#         124
  C:0919H         LINE#         125
  C:091BH         LINE#         126
  C:091DH         LINE#         128
  C:091DH         LINE#         129
  C:091FH         LINE#         130
  C:0921H         LINE#         131
  C:0921H         LINE#         133
  C:0921H         LINE#         134
  C:0924H         LINE#         136
  C:0924H         LINE#         137
  C:0929H         LINE#         138
  C:0929H         LINE#         139
  C:092BH         LINE#         140
  C:092DH         LINE#         141
  C:092FH         LINE#         143
  C:092FH         LINE#         144
  C:0931H         LINE#         145
  C:0933H         LINE#         146
  C:0933H         LINE#         148
  C:0933H         LINE#         149
  C:0936H         LINE#         151
  C:0936H         LINE#         152
  C:093BH         LINE#         153
  C:093BH         LINE#         155
  C:0940H         LINE#         156
  C:0942H         LINE#         157
  C:0944H         LINE#         158
  C:0946H         LINE#         159
  C:0948H         LINE#         161
  C:094BH         LINE#         164
  C:094EH         LINE#         165
  C:0950H         LINE#         167
  C:0950H         LINE#         168
  C:0952H         LINE#         169
  C:0954H         LINE#         170
  C:0956H         LINE#         171
  C:0958H         LINE#         173
  C:095BH         LINE#         174
  C:095BH         LINE#         176
  C:095BH         LINE#         177
  C:095DH         LINE#         179
  C:095DH         LINE#         180
  C:0961H         LINE#         181
  C:0963H         LINE#         182
  C:0965H         LINE#         183
  C:0967H         LINE#         184
  C:0969H         LINE#         185
  C:096BH         LINE#         186
  C:096DH         LINE#         188
BL51 BANKED LINKER/LOCATER V6.22.2.0                                                  01/05/2023  09:57:43  PAGE 19


  C:096DH         LINE#         191
  C:0972H         LINE#         192
  C:0972H         LINE#         193
  C:0974H         LINE#         194
  C:0976H         LINE#         195
  C:0978H         LINE#         197
  C:097AH         LINE#         198
  C:097CH         LINE#         199
  C:097EH         LINE#         200
  C:0981H         LINE#         201
  C:0984H         LINE#         202
  C:0987H         LINE#         203
  C:098AH         LINE#         204
  C:098CH         LINE#         206
  C:098CH         LINE#         207
  C:098EH         LINE#         208
  C:0990H         LINE#         209
  C:0993H         LINE#         210
  C:0995H         LINE#         211
  C:0999H         LINE#         212
  C:09B5H         LINE#         213
  C:09BAH         LINE#         214
  C:09BDH         LINE#         215
  C:09BFH         LINE#         216
  C:09BFH         LINE#         217
  C:09C2H         LINE#         218
  C:09C2H         LINE#         220
  C:09C2H         LINE#         221
  C:09C2H         LINE#         222
  C:09C2H         LINE#         223
  C:09C2H         LINE#         224
  C:09C2H         LINE#         226
  C:09C8H         LINE#         227
  C:09C8H         LINE#         228
  C:09CDH         LINE#         229
  C:09CDH         LINE#         230
  C:09CDH         LINE#         231
  -------         ENDPROC       TRIGGER_CONTROL
  -------         ENDMOD        TRIGGER

  -------         MODULE        MAX6675
  C:0000H         SYMBOL        _ICE_DUMMY_
  D:0080H         PUBLIC        P0
  D:0090H         PUBLIC        P1
  D:00A0H         PUBLIC        P2
  D:00B0H         PUBLIC        P3
  D:00C0H         PUBLIC        P4
  D:00C8H         PUBLIC        P5
  D:00E8H         PUBLIC        P6
  D:00F8H         PUBLIC        P7
  D:001AH         PUBLIC        temperature_t
  D:00A8H         PUBLIC        IE
  D:00B8H         PUBLIC        IP
  D:00D8H         PUBLIC        CCON
  D:0098H         PUBLIC        SCON
  D:0088H         PUBLIC        TCON
  C:178AH         SYMBOL        max6675_readTemperature
BL51 BANKED LINKER/LOCATER V6.22.2.0                                                  01/05/2023  09:57:43  PAGE 20


  B:00A0H.5       PUBLIC        P25
  B:00A0H.6       PUBLIC        P26
  B:00A0H.7       PUBLIC        P27
  C:1628H         SYMBOL        _max6675_readWriteByte
  C:14A1H         SYMBOL        max6675_readRawValue
  D:00D0H         PUBLIC        PSW
  -------         PROC          _MAX6675_READWRITEBYTE
  D:0053H         SYMBOL        txData
  -------         DO            
  D:0054H         SYMBOL        temp
  D:0055H         SYMBOL        dat
  -------         ENDDO         
  C:1628H         LINE#         41
  C:162AH         LINE#         42
  C:162AH         LINE#         43
  C:162DH         LINE#         44
  C:162FH         LINE#         45
  C:1636H         LINE#         46
  C:1636H         LINE#         47
  C:1638H         LINE#         48
  C:163FH         LINE#         49
  C:1641H         LINE#         50
  C:1648H         LINE#         51
  C:164DH         LINE#         52
  C:164DH         LINE#         53
  C:164FH         LINE#         54
  C:1651H         LINE#         56
  C:1651H         LINE#         57
  C:1654H         LINE#         58
  C:1654H         LINE#         59
  C:165CH         LINE#         60
  C:165EH         LINE#         62
  -------         ENDPROC       _MAX6675_READWRITEBYTE
  -------         PROC          MAX6675_READRAWVALUE
  -------         DO            
  D:0051H         SYMBOL        tmp
  -------         ENDDO         
  C:14A1H         LINE#         64
  C:14A1H         LINE#         65
  C:14A1H         LINE#         66
  C:14A6H         LINE#         68
  C:14A8H         LINE#         69
  C:14B2H         LINE#         70
  C:14B9H         LINE#         71
  C:14C1H         LINE#         74
  C:14C3H         LINE#         75
  C:14C8H         LINE#         76
  C:14C8H         LINE#         79
  C:14CEH         LINE#         81
  C:14D0H         LINE#         83
  C:14D0H         LINE#         84
  C:14E1H         LINE#         85
  C:14E1H         LINE#         86
  C:14E4H         LINE#         87
  C:14E8H         LINE#         88
  -------         ENDPROC       MAX6675_READRAWVALUE
  -------         PROC          MAX6675_READTEMPERATURE
BL51 BANKED LINKER/LOCATER V6.22.2.0                                                  01/05/2023  09:57:43  PAGE 21


  C:178AH         LINE#         90
  C:178AH         LINE#         91
  C:178AH         LINE#         92
  -------         ENDPROC       MAX6675_READTEMPERATURE
  -------         ENDMOD        MAX6675

  -------         MODULE        MODBUS
  C:0000H         SYMBOL        _ICE_DUMMY_
  D:0080H         PUBLIC        P0
  D:0090H         PUBLIC        P1
  C:0D5AH         SYMBOL        _Protocol_Analysis
  D:00A0H         PUBLIC        P2
  D:00B0H         PUBLIC        P3
  D:00C0H         PUBLIC        P4
  D:00C8H         PUBLIC        P5
  D:00E8H         PUBLIC        P6
  D:00F8H         PUBLIC        P7
  C:0B10H         SYMBOL        _Modbus_Wrtie_Register
  D:00A8H         PUBLIC        IE
  D:00B8H         PUBLIC        IP
  C:16EBH         SYMBOL        _Modbus_Boot_The_Device
  D:00D8H         PUBLIC        CCON
  C:0F17H         SYMBOL        _Modbus_Use_The_Device
  D:0098H         PUBLIC        SCON
  D:0088H         PUBLIC        TCON
  C:0C53H         SYMBOL        _Modbus_Write_Imei
  X:00AAH         PUBLIC        Modbus
  C:0390H         SYMBOL        _Modbus_Read_Register
  C:1715H         SYMBOL        _Modbus_Heat_Ignition
  D:00D0H         PUBLIC        PSW
  -------         PROC          _PROTOCOL_ANALYSIS
  D:0001H         SYMBOL        UART
  -------         DO            
  X:00B1H         SYMBOL        COM
  D:0051H         SYMBOL        i
  -------         ENDDO         
  C:0D5AH         LINE#         43
  C:0D5AH         LINE#         44
  C:0D5AH         LINE#         45
  C:0D65H         LINE#         46
  C:0D68H         LINE#         49
  C:0DAEH         LINE#         50
  C:0DAEH         LINE#         52
  C:0DC9H         LINE#         53
  C:0DC9H         LINE#         54
  C:0DC9H         LINE#         55
  C:0DD7H         LINE#         56
  C:0DD9H         LINE#         58
  C:0DD9H         LINE#         59
  C:0DE7H         LINE#         60
  C:0DE9H         LINE#         62
  C:0DE9H         LINE#         63
  C:0DECH         LINE#         64
  C:0DEEH         LINE#         66
  C:0DEEH         LINE#         67
  C:0DFCH         LINE#         68
  C:0DFEH         LINE#         70
BL51 BANKED LINKER/LOCATER V6.22.2.0                                                  01/05/2023  09:57:43  PAGE 22


  C:0DFEH         LINE#         71
  C:0E0CH         LINE#         72
  C:0E0EH         LINE#         74
  C:0E0EH         LINE#         75
  C:0E1CH         LINE#         77
  C:0E1CH         LINE#         78
  C:0E1CH         LINE#         79
  C:0E1CH         LINE#         80
  C:0E1CH         LINE#         81
  C:0E4DH         LINE#         82
  C:0E4DH         LINE#         83
  C:0E50H         LINE#         85
  C:0E50H         LINE#         86
  -------         ENDPROC       _PROTOCOL_ANALYSIS
  -------         PROC          _MODBUS_READ_REGISTER
  D:0001H         SYMBOL        UART
  -------         DO            
  X:00B4H         SYMBOL        COM
  -------         ENDDO         
  C:0390H         LINE#         95
  C:0390H         LINE#         96
  C:0390H         LINE#         97
  C:039BH         LINE#         101
  C:03ABH         LINE#         102
  C:03C9H         LINE#         105
  C:03E2H         LINE#         108
  C:03FBH         LINE#         111
  C:0413H         LINE#         112
  C:042DH         LINE#         115
  C:0445H         LINE#         116
  C:0461H         LINE#         117
  C:047DH         LINE#         118
  C:0499H         LINE#         119
  C:04B5H         LINE#         120
  C:04D1H         LINE#         121
  C:04EDH         LINE#         122
  C:0509H         LINE#         123
  C:0525H         LINE#         124
  C:0541H         LINE#         125
  C:055DH         LINE#         126
  C:0575H         LINE#         127
  -------         ENDPROC       _MODBUS_READ_REGISTER
  -------         PROC          _MODBUS_WRTIE_REGISTER
  D:0001H         SYMBOL        UART
  -------         DO            
  X:00B4H         SYMBOL        COM
  D:0052H         SYMBOL        i
  -------         ENDDO         
  C:0B10H         LINE#         142
  C:0B10H         LINE#         143
  C:0B10H         LINE#         144
  C:0B1BH         LINE#         145
  C:0B1EH         LINE#         156
  C:0B7CH         LINE#         157
  C:0B7CH         LINE#         158
  C:0B7CH         LINE#         159
  C:0B87H         LINE#         160
BL51 BANKED LINKER/LOCATER V6.22.2.0                                                  01/05/2023  09:57:43  PAGE 23


  C:0B8AH         LINE#         161
  C:0B8BH         LINE#         163
  C:0B8BH         LINE#         164
  C:0B96H         LINE#         165
  C:0B99H         LINE#         166
  C:0B9AH         LINE#         168
  C:0B9AH         LINE#         169
  C:0BA5H         LINE#         170
  C:0BA8H         LINE#         171
  C:0BA9H         LINE#         173
  C:0BA9H         LINE#         174
  C:0BB4H         LINE#         175
  C:0BB7H         LINE#         176
  C:0BB8H         LINE#         178
  C:0BB8H         LINE#         179
  C:0BC3H         LINE#         180
  C:0BC6H         LINE#         181
  C:0BC7H         LINE#         183
  C:0BC7H         LINE#         184
  C:0BD2H         LINE#         185
  C:0BD5H         LINE#         186
  C:0BD6H         LINE#         188
  C:0BD6H         LINE#         189
  C:0BD6H         LINE#         191
  C:0BD6H         LINE#         192
  C:0BE1H         LINE#         193
  C:0BE4H         LINE#         194
  C:0BE5H         LINE#         196
  C:0BE5H         LINE#         197
  C:0BF0H         LINE#         198
  C:0BF3H         LINE#         199
  C:0BF4H         LINE#         201
  C:0BF4H         LINE#         202
  C:0BFFH         LINE#         203
  C:0C02H         LINE#         204
  C:0C03H         LINE#         206
  C:0C03H         LINE#         207
  C:0C0EH         LINE#         208
  C:0C11H         LINE#         209
  C:0C12H         LINE#         211
  C:0C12H         LINE#         212
  C:0C1DH         LINE#         213
  C:0C20H         LINE#         214
  C:0C21H         LINE#         216
  C:0C21H         LINE#         217
  C:0C2CH         LINE#         218
  C:0C2FH         LINE#         219
  C:0C30H         LINE#         222
  C:0C30H         LINE#         224
  C:0C3BH         LINE#         226
  C:0C3CH         LINE#         229
  C:0C3CH         LINE#         230
  C:0C47H         LINE#         232
  C:0C47H         LINE#         235
  C:0C47H         LINE#         237
  C:0C47H         LINE#         239
  C:0C47H         LINE#         240
BL51 BANKED LINKER/LOCATER V6.22.2.0                                                  01/05/2023  09:57:43  PAGE 24


  C:0C47H         LINE#         241
  C:0C47H         LINE#         244
  -------         ENDPROC       _MODBUS_WRTIE_REGISTER
  -------         PROC          L?0051
  -------         ENDPROC       L?0051
  -------         PROC          _MODBUS_WRITE_IMEI
  D:0001H         SYMBOL        UART
  -------         DO            
  X:00B4H         SYMBOL        COM
  D:0052H         SYMBOL        i
  -------         ENDDO         
  C:0C53H         LINE#         253
  C:0C53H         LINE#         254
  C:0C53H         LINE#         255
  C:0C5EH         LINE#         256
  C:0C61H         LINE#         261
  C:0C7CH         LINE#         262
  C:0C9AH         LINE#         265
  C:0CB3H         LINE#         268
  C:0CCCH         LINE#         270
  C:0CDAH         LINE#         271
  C:0CDAH         LINE#         272
  C:0D1AH         LINE#         273
  C:0D1EH         LINE#         275
  C:0D45H         LINE#         277
  C:0D48H         LINE#         279
  C:0D4DH         LINE#         281
  -------         ENDPROC       _MODBUS_WRITE_IMEI
  -------         PROC          _MODBUS_BOOT_THE_DEVICE
  D:0001H         SYMBOL        UART
  -------         DO            
  X:00B4H         SYMBOL        COM
  -------         ENDDO         
  C:16EBH         LINE#         294
  C:16EBH         LINE#         295
  C:16EBH         LINE#         296
  C:16F6H         LINE#         298
  C:1706H         LINE#         299
  C:1706H         LINE#         300
  C:1711H         LINE#         301
  C:1714H         LINE#         302
  C:1714H         LINE#         303
  -------         ENDPROC       _MODBUS_BOOT_THE_DEVICE
  -------         PROC          _MODBUS_HEAT_IGNITION
  D:0001H         SYMBOL        UART
  -------         DO            
  X:00B4H         SYMBOL        COM
  -------         ENDDO         
  C:1715H         LINE#         314
  C:1715H         LINE#         315
  C:1715H         LINE#         316
  C:1720H         LINE#         318
  C:1730H         LINE#         319
  C:1730H         LINE#         320
  C:173BH         LINE#         321
  C:173EH         LINE#         322
  C:173EH         LINE#         323
BL51 BANKED LINKER/LOCATER V6.22.2.0                                                  01/05/2023  09:57:43  PAGE 25


  -------         ENDPROC       _MODBUS_HEAT_IGNITION
  -------         PROC          _MODBUS_USE_THE_DEVICE
  D:0001H         SYMBOL        UART
  -------         DO            
  X:00B4H         SYMBOL        COM
  D:0007H         SYMBOL        i
  -------         ENDDO         
  C:0F17H         LINE#         334
  C:0F17H         LINE#         335
  C:0F17H         LINE#         336
  C:0F22H         LINE#         337
  C:0F24H         LINE#         339
  C:0F34H         LINE#         340
  C:0F34H         LINE#         341
  C:0F3EH         LINE#         342
  C:0F3EH         LINE#         343
  C:0F41H         LINE#         344
  C:0F43H         LINE#         346
  C:0F43H         LINE#         347
  C:0F46H         LINE#         348
  C:0F46H         LINE#         349
  C:0F46H         LINE#         352
  C:0F52H         LINE#         353
  C:0F52H         LINE#         354
  C:0F86H         LINE#         355
  C:0F89H         LINE#         358
  C:0FB0H         LINE#         360
  -------         ENDPROC       _MODBUS_USE_THE_DEVICE
  -------         ENDMOD        MODBUS

  -------         MODULE        UART2
  C:0000H         SYMBOL        _ICE_DUMMY_
  D:0080H         PUBLIC        P0
  D:0090H         PUBLIC        P1
  D:00A0H         PUBLIC        P2
  D:00B0H         PUBLIC        P3
  D:00C0H         PUBLIC        P4
  D:00C8H         PUBLIC        P5
  D:00E8H         PUBLIC        P6
  D:00F8H         PUBLIC        P7
  C:1401H         SYMBOL        _SendString
  C:1832H         SYMBOL        _SendData
  D:00A8H         PUBLIC        IE
  C:1225H         SYMBOL        _SendArray
  C:15F0H         SYMBOL        Init
  D:00B8H         PUBLIC        IP
  C:1457H         PUBLIC        UART2_isr
  X:0000H         SYMBOL        ucSend_Buffer
  D:00D8H         PUBLIC        CCON
  X:000AH         SYMBOL        ucRec_Buffer
  D:0098H         PUBLIC        SCON
  D:0088H         PUBLIC        TCON
  D:008EH         PUBLIC        AUXR
  C:1856H         SYMBOL        RS485_Set_SendMode
  D:00D6H         PUBLIC        T2H
  D:00D7H         PUBLIC        T2L
  C:12F1H         SYMBOL        Protocol
BL51 BANKED LINKER/LOCATER V6.22.2.0                                                  01/05/2023  09:57:43  PAGE 26


  C:1857H         SYMBOL        RS485_Set_RecMode
  D:009BH         PUBLIC        S2BUF
  D:009AH         PUBLIC        S2CON
  I:007FH         PUBLIC        UART2
  D:00D0H         PUBLIC        PSW
  -------         PROC          INIT
  C:15F0H         LINE#         56
  C:15F0H         LINE#         57
  C:15F0H         LINE#         58
  C:15F3H         LINE#         59
  C:15F6H         LINE#         61
  C:1606H         LINE#         62
  C:1606H         LINE#         63
  C:160BH         LINE#         64
  C:160BH         LINE#         65
  C:1613H         LINE#         66
  C:161BH         LINE#         67
  C:1621H         LINE#         68
  C:1621H         LINE#         69
  C:1624H         LINE#         71
  C:1627H         LINE#         72
  -------         ENDPROC       INIT
  -------         PROC          _SENDDATA
  D:0007H         SYMBOL        dat
  C:1832H         LINE#         80
  C:1832H         LINE#         81
  C:1832H         LINE#         82
  C:1837H         LINE#         83
  C:1839H         LINE#         84
  C:183BH         LINE#         85
  -------         ENDPROC       _SENDDATA
  -------         PROC          _SENDARRAY
  D:0051H         SYMBOL        p_Arr
  D:0054H         SYMBOL        LEN
  -------         DO            
  D:0056H         SYMBOL        i
  -------         ENDDO         
  C:1225H         LINE#         93
  C:122FH         LINE#         94
  C:122FH         LINE#         95
  C:1234H         LINE#         97
  C:123FH         LINE#         99
  C:124FH         LINE#         100
  C:124FH         LINE#         101
  C:126DH         LINE#         102
  C:1277H         LINE#         103
  C:127CH         LINE#         104
  C:1288H         LINE#         106
  -------         ENDPROC       _SENDARRAY
  -------         PROC          _SENDSTRING
  D:0051H         SYMBOL        p_Str
  C:1401H         LINE#         116
  C:1407H         LINE#         117
  C:1407H         LINE#         118
  C:1412H         LINE#         120
  C:141DH         LINE#         121
  C:141DH         LINE#         122
BL51 BANKED LINKER/LOCATER V6.22.2.0                                                  01/05/2023  09:57:43  PAGE 27


  C:1439H         LINE#         123
  C:143BH         LINE#         124
  C:1440H         LINE#         125
  C:144CH         LINE#         127
  -------         ENDPROC       _SENDSTRING
  -------         PROC          RS485_SET_SENDMODE
  C:1856H         LINE#         137
  C:1856H         LINE#         138
  C:1856H         LINE#         140
  -------         ENDPROC       RS485_SET_SENDMODE
  -------         PROC          RS485_SET_RECMODE
  C:1857H         LINE#         148
  C:1857H         LINE#         149
  C:1857H         LINE#         151
  -------         ENDPROC       RS485_SET_RECMODE
  -------         PROC          UART2_ISR
  C:1457H         LINE#         159
  C:1464H         LINE#         162
  C:1469H         LINE#         163
  C:1469H         LINE#         164
  C:146CH         LINE#         166
  C:1478H         LINE#         167
  C:1478H         LINE#         168
  C:1486H         LINE#         169
  C:1486H         LINE#         171
  C:148AH         LINE#         172
  C:148AH         LINE#         175
  C:148FH         LINE#         176
  C:148FH         LINE#         177
  C:1492H         LINE#         178
  C:1496H         LINE#         179
  C:1496H         LINE#         180
  -------         ENDPROC       UART2_ISR
  -------         PROC          PROTOCOL
  C:12F1H         LINE#         189
  C:12F1H         LINE#         190
  C:12F1H         LINE#         191
  C:12F8H         LINE#         192
  C:12F8H         LINE#         196
  C:12FEH         LINE#         197
  C:12FEH         LINE#         198
  C:1303H         LINE#         199
  C:130FH         LINE#         200
  C:130FH         LINE#         202
  C:131AH         LINE#         203
  C:131AH         LINE#         204
  C:131AH         LINE#         205
  C:1333H         LINE#         207
  C:1333H         LINE#         209
  C:1348H         LINE#         211
  C:134CH         LINE#         212
  C:134EH         LINE#         213
  C:134EH         LINE#         216
  -------         ENDPROC       PROTOCOL
  -------         ENDMOD        UART2

  -------         MODULE        SYSTEM
BL51 BANKED LINKER/LOCATER V6.22.2.0                                                  01/05/2023  09:57:43  PAGE 28


  C:0000H         SYMBOL        _ICE_DUMMY_
  C:1692H         PUBLIC        sys_run_update
  D:0080H         PUBLIC        P0
  D:0090H         PUBLIC        P1
  D:002BH         PUBLIC        Sys_Timer_Flag
  D:00A0H         PUBLIC        P2
  D:00B0H         PUBLIC        P3
  D:00C0H         PUBLIC        P4
  D:00C8H         PUBLIC        P5
  D:00E8H         PUBLIC        P6
  D:00F8H         PUBLIC        P7
  D:002CH         PUBLIC        System
  D:00A8H         PUBLIC        IE
  D:00B8H         PUBLIC        IP
  C:1678H         PUBLIC        CODE
  C:165FH         PUBLIC        ReadIMEI
  D:00D8H         PUBLIC        CCON
  D:0033H         SYMBOL        count
  B:0080H.1       PUBLIC        P01
  B:0090H.2       PUBLIC        P12
  B:0080H.3       PUBLIC        P03
  D:0098H         PUBLIC        SCON
  B:0090H.3       PUBLIC        P13
  B:0080H.4       PUBLIC        P04
  D:0088H         PUBLIC        TCON
  C:17F6H         SYMBOL        Run
  D:0035H         PUBLIC        OneKey_Fire
  B:0090H.7       PUBLIC        P17
  C:10CEH         SYMBOL        StandBy
  D:0036H         PUBLIC        OneKey
  C:1665H         PUBLIC        ReduceUsage
  D:0037H         PUBLIC        Fire_Timer_Count
  C:168EH         PUBLIC        SEG
  C:1683H         PUBLIC        CODED
  C:09CEH         PUBLIC        _LEDNUM_UpData
  C:0714H         PUBLIC        sys_run_check
  D:00D0H         PUBLIC        PSW
  -------         PROC          RUN
  C:17F6H         LINE#         44
  C:17F6H         LINE#         45
  C:17F6H         LINE#         46
  C:17FCH         LINE#         47
  C:17FCH         LINE#         48
  C:17FEH         LINE#         49
  C:1800H         LINE#         50
  C:1800H         LINE#         52
  C:1803H         LINE#         56
  C:180AH         LINE#         57
  -------         ENDPROC       RUN
  -------         PROC          SYS_RUN_UPDATE
  C:1692H         LINE#         68
  C:1692H         LINE#         69
  C:1692H         LINE#         71
  C:16A5H         LINE#         72
  C:16A5H         LINE#         74
  C:16A5H         LINE#         75
  C:16A5H         LINE#         77
BL51 BANKED LINKER/LOCATER V6.22.2.0                                                  01/05/2023  09:57:43  PAGE 29


  C:16A5H         LINE#         78
  C:16A8H         LINE#         79
  C:16A9H         LINE#         82
  C:16A9H         LINE#         83
  C:16A9H         LINE#         84
  C:16A9H         LINE#         85
  C:16A9H         LINE#         88
  C:16ACH         LINE#         90
  C:16AEH         LINE#         91
  C:16B0H         LINE#         94
  C:16B0H         LINE#         95
  C:16B3H         LINE#         97
  C:16B5H         LINE#         98
  C:16B7H         LINE#         101
  C:16B7H         LINE#         102
  C:16BAH         LINE#         103
  C:16BFH         LINE#         104
  C:16BFH         LINE#         105
  C:16BFH         LINE#         106
  C:16BFH         LINE#         107
  C:16BFH         LINE#         111
  -------         ENDPROC       SYS_RUN_UPDATE
  -------         PROC          STANDBY
  -------         DO            
  D:0051H         SYMBOL        i
  -------         ENDDO         
  C:10CEH         LINE#         120
  C:10CEH         LINE#         121
  C:10CEH         LINE#         122
  C:10D4H         LINE#         125
  C:10E1H         LINE#         126
  C:10E1H         LINE#         129
  C:10E8H         LINE#         131
  C:10F5H         LINE#         134
  C:10FBH         LINE#         135
  C:10FBH         LINE#         136
  C:10FDH         LINE#         137
  C:10FFH         LINE#         138
  C:10FFH         LINE#         140
  C:1106H         LINE#         141
  C:1106H         LINE#         142
  C:1106H         LINE#         143
  C:1106H         LINE#         145
  C:110DH         LINE#         146
  C:110DH         LINE#         147
  C:110DH         LINE#         148
  C:110DH         LINE#         150
  C:1118H         LINE#         151
  C:1118H         LINE#         152
  C:111DH         LINE#         153
  C:1122H         LINE#         154
  C:1122H         LINE#         156
  C:1124H         LINE#         160
  C:112AH         LINE#         161
  C:112AH         LINE#         177
  C:112AH         LINE#         181
  C:112AH         LINE#         182
BL51 BANKED LINKER/LOCATER V6.22.2.0                                                  01/05/2023  09:57:43  PAGE 30


  C:112AH         LINE#         184
  C:1135H         LINE#         185
  C:1135H         LINE#         186
  C:1137H         LINE#         187
  C:1139H         LINE#         188
  C:113BH         LINE#         189
  C:113DH         LINE#         190
  C:1141H         LINE#         191
  C:1143H         LINE#         193
  C:1146H         LINE#         195
  C:1146H         LINE#         197
  C:1146H         LINE#         198
  C:1146H         LINE#         199
  C:1146H         LINE#         201
  C:1146H         LINE#         202
  -------         ENDPROC       STANDBY
  -------         PROC          SYS_RUN_CHECK
  -------         DO            
  D:0029H         SYMBOL        i
  -------         ENDDO         
  C:0714H         LINE#         206
  C:0714H         LINE#         207
  C:0714H         LINE#         210
  C:071AH         LINE#         211
  C:072AH         LINE#         212
  C:072AH         LINE#         213
  C:0731H         LINE#         214
  C:073EH         LINE#         215
  C:0746H         LINE#         216
  C:074EH         LINE#         217
  C:074EH         LINE#         218
  C:0753H         LINE#         219
  C:075EH         LINE#         225
  C:0761H         LINE#         226
  C:0761H         LINE#         228
  C:0767H         LINE#         229
  C:0767H         LINE#         230
  C:0769H         LINE#         231
  C:0769H         LINE#         232
  C:076CH         LINE#         233
  C:076CH         LINE#         234
  C:0773H         LINE#         235
  C:0773H         LINE#         236
  C:0776H         LINE#         237
  C:0777H         LINE#         238
  C:0777H         LINE#         240
  C:077EH         LINE#         241
  C:077EH         LINE#         242
  C:0781H         LINE#         243
  C:0782H         LINE#         244
  C:0782H         LINE#         265
  C:078DH         LINE#         266
  C:078DH         LINE#         267
  C:0792H         LINE#         268
  C:0794H         LINE#         269
  C:0794H         LINE#         271
  C:079AH         LINE#         272
BL51 BANKED LINKER/LOCATER V6.22.2.0                                                  01/05/2023  09:57:43  PAGE 31


  C:079AH         LINE#         273
  C:079CH         LINE#         274
  C:079FH         LINE#         276
  C:07BBH         LINE#         277
  C:07C8H         LINE#         279
  C:07CBH         LINE#         280
  C:07CCH         LINE#         281
  C:07CCH         LINE#         284
  C:07D7H         LINE#         285
  C:07D7H         LINE#         287
  C:07DCH         LINE#         288
  C:07DEH         LINE#         289
  C:07E1H         LINE#         290
  C:07E2H         LINE#         291
  C:07E2H         LINE#         292
  C:07EDH         LINE#         293
  C:07EDH         LINE#         294
  C:07F0H         LINE#         295
  C:07F5H         LINE#         296
  C:07F6H         LINE#         297
  C:07F6H         LINE#         300
  C:07FAH         LINE#         301
  C:07FAH         LINE#         302
  C:080FH         LINE#         303
  C:080FH         LINE#         305
  C:081EH         LINE#         306
  C:081EH         LINE#         307
  C:0822H         LINE#         308
  C:0825H         LINE#         309
  C:0828H         LINE#         310
  C:082BH         LINE#         311
  C:082CH         LINE#         312
  C:082CH         LINE#         315
  C:083FH         LINE#         316
  C:083FH         LINE#         317
  C:0841H         LINE#         318
  C:0844H         LINE#         319
  C:0844H         LINE#         320
  C:0846H         LINE#         321
  C:0846H         LINE#         323
  C:0857H         LINE#         324
  C:0857H         LINE#         325
  C:085BH         LINE#         326
  C:085EH         LINE#         327
  C:0861H         LINE#         328
  C:0862H         LINE#         329
  C:0862H         LINE#         330
  C:0862H         LINE#         331
  C:0862H         LINE#         333
  C:0870H         LINE#         334
  C:0870H         LINE#         335
  C:0873H         LINE#         336
  C:0878H         LINE#         338
  C:0878H         LINE#         339
  C:0878H         LINE#         340
  C:0878H         LINE#         341
  -------         ENDPROC       SYS_RUN_CHECK
BL51 BANKED LINKER/LOCATER V6.22.2.0                                                  01/05/2023  09:57:43  PAGE 32


  -------         PROC          _LEDNUM_UPDATA
  D:0051H         SYMBOL        Data
  -------         DO            
  D:0052H         SYMBOL        i
  -------         ENDDO         
  C:09CEH         LINE#         344
  C:09D0H         LINE#         345
  C:09D0H         LINE#         346
  C:09D3H         LINE#         347
  C:09E7H         LINE#         348
  C:09E7H         LINE#         349
  C:09F6H         LINE#         350
  C:0A03H         LINE#         351
  C:0A13H         LINE#         352
  C:0A20H         LINE#         353
  C:0A30H         LINE#         354
  C:0A39H         LINE#         355
  C:0A49H         LINE#         356
  C:0A49H         LINE#         357
  C:0A60H         LINE#         358
  C:0A60H         LINE#         359
  C:0A6FH         LINE#         360
  C:0A7EH         LINE#         361
  C:0A8BH         LINE#         362
  C:0A9BH         LINE#         363
  C:0AA4H         LINE#         364
  C:0AB4H         LINE#         365
  C:0AB4H         LINE#         366
  C:0AC9H         LINE#         367
  C:0AC9H         LINE#         368
  C:0AD8H         LINE#         369
  C:0AE7H         LINE#         370
  C:0AF6H         LINE#         371
  C:0AFFH         LINE#         372
  C:0B0FH         LINE#         373
  C:0B0FH         LINE#         375
  -------         ENDPROC       _LEDNUM_UPDATA
  -------         ENDMOD        SYSTEM

  -------         MODULE        TM1650
  C:0000H         SYMBOL        _ICE_DUMMY_
  C:0026H         PUBLIC        I2Cask
  D:0080H         PUBLIC        P0
  D:0090H         PUBLIC        P1
  D:00A0H         PUBLIC        P2
  D:00B0H         PUBLIC        P3
  D:00C0H         PUBLIC        P4
  D:00C8H         PUBLIC        P5
  D:00E8H         PUBLIC        P6
  D:00F8H         PUBLIC        P7
  D:00A8H         PUBLIC        IE
  D:00B8H         PUBLIC        IP
  B:00D0H.7       PUBLIC        CY
  C:16C0H         PUBLIC        _I2CWrByte
  D:00D8H         PUBLIC        CCON
  D:0098H         PUBLIC        SCON
  D:0088H         PUBLIC        TCON
BL51 BANKED LINKER/LOCATER V6.22.2.0                                                  01/05/2023  09:57:43  PAGE 33


  C:17CCH         PUBLIC        _Delay_us
  C:183CH         PUBLIC        I2CStart
  B:00B0H.3       PUBLIC        CLK
  B:00B0H.2       PUBLIC        DIO
  C:1846H         PUBLIC        I2CStop
  D:00D0H         PUBLIC        PSW
  C:17ACH         PUBLIC        _TM1650_Set
  C:17C8H         SYMBOL        L?0018
  -------         PROC          L?0017
  -------         ENDPROC       L?0017
  C:17C8H         SYMBOL        L?0018
  -------         PROC          _DELAY_US
  D:0053H         SYMBOL        t
  -------         DO            
  D:0006H         SYMBOL        i
  D:0007H         SYMBOL        j
  -------         ENDDO         
  C:17CCH         LINE#         2
  C:17D0H         LINE#         3
  C:17D0H         LINE#         5
  C:17D8H         LINE#         6
  C:17D8H         LINE#         7
  C:17DAH         LINE#         8
  C:17DCH         LINE#         9
  C:17DEH         LINE#         10
  -------         ENDPROC       _DELAY_US
  -------         PROC          I2CSTART
  C:183CH         LINE#         11
  C:183CH         LINE#         12
  C:183CH         LINE#         13
  C:183EH         LINE#         14
  C:1840H         LINE#         15
  C:1843H         LINE#         16
  C:1845H         LINE#         18
  -------         ENDPROC       I2CSTART
  -------         PROC          I2CASK
  -------         DO            
  D:0005H         SYMBOL        timeout
  -------         ENDDO         
  C:0026H         LINE#         20
  C:0026H         LINE#         21
  C:0026H         LINE#         22
  C:0028H         LINE#         23
  C:0028H         LINE#         24
  C:002BH         LINE#         25
  C:002DH         LINE#         26
  C:003AH         LINE#         27
  C:003AH         LINE#         28
  C:003BH         LINE#         29
  C:003DH         LINE#         30
  C:0040H         LINE#         31
  C:0042H         LINE#         32
  -------         ENDPROC       I2CASK
  -------         PROC          I2CSTOP
  C:1846H         LINE#         34
  C:1846H         LINE#         35
  C:1846H         LINE#         36
BL51 BANKED LINKER/LOCATER V6.22.2.0                                                  01/05/2023  09:57:43  PAGE 34


  C:1848H         LINE#         37
  C:184AH         LINE#         38
  C:184DH         LINE#         39
  C:184FH         LINE#         40
  -------         ENDPROC       I2CSTOP
  -------         PROC          _I2CWRBYTE
  D:0005H         SYMBOL        oneByte
  -------         DO            
  D:0004H         SYMBOL        i
  -------         ENDDO         
  C:16C0H         LINE#         42
  C:16C2H         LINE#         43
  C:16C2H         LINE#         45
  C:16C4H         LINE#         46
  C:16CBH         LINE#         47
  C:16D7H         LINE#         48
  C:16D7H         LINE#         49
  C:16DBH         LINE#         50
  C:16DDH         LINE#         51
  C:16DFH         LINE#         52
  C:16E2H         LINE#         53
  C:16E2H         LINE#         54
  C:16E5H         LINE#         55
  C:16E7H         LINE#         56
  C:16EAH         LINE#         57
  -------         ENDPROC       _I2CWRBYTE
  -------         PROC          _TM1650_SET
  D:0005H         SYMBOL        add
  D:0003H         SYMBOL        dat
  C:17ACH         LINE#         59
  C:17B0H         LINE#         60
  C:17B0H         LINE#         62
  C:17B3H         LINE#         63
  C:17B8H         LINE#         64
  C:17BBH         LINE#         65
  C:17C0H         LINE#         66
  C:17C3H         LINE#         67
  -------         ENDPROC       _TM1650_SET
  -------         ENDMOD        TM1650

  -------         MODULE        ?C?FPMUL
  C:0046H         PUBLIC        ?C?FPMUL
  -------         ENDMOD        ?C?FPMUL

  -------         MODULE        ?C?FPDIV
  C:014FH         PUBLIC        ?C?FPDIV
  -------         ENDMOD        ?C?FPDIV

  -------         MODULE        ?C?FCAST
  C:01F6H         PUBLIC        ?C?FCASTC
  C:01F1H         PUBLIC        ?C?FCASTI
  C:01ECH         PUBLIC        ?C?FCASTL
  -------         ENDMOD        ?C?FCAST

  -------         MODULE        ?C?CASTF
  C:022AH         PUBLIC        ?C?CASTF
  -------         ENDMOD        ?C?CASTF
BL51 BANKED LINKER/LOCATER V6.22.2.0                                                  01/05/2023  09:57:43  PAGE 35



  -------         MODULE        ?C?CLDPTR
  C:02ABH         PUBLIC        ?C?CLDPTR
  -------         ENDMOD        ?C?CLDPTR

  -------         MODULE        ?C?CLDOPTR
  C:02C4H         PUBLIC        ?C?CLDOPTR
  -------         ENDMOD        ?C?CLDOPTR

  -------         MODULE        ?C?CSTPTR
  C:02F1H         PUBLIC        ?C?CSTPTR
  -------         ENDMOD        ?C?CSTPTR

  -------         MODULE        ?C?CSTOPTR
  C:0303H         PUBLIC        ?C?CSTOPTR
  -------         ENDMOD        ?C?CSTOPTR

  -------         MODULE        ?C?LNEG
  C:0325H         PUBLIC        ?C?LNEG
  -------         ENDMOD        ?C?LNEG

  -------         MODULE        ?C?PLDOPTR
  C:0333H         PUBLIC        ?C?PLDOPTR
  -------         ENDMOD        ?C?PLDOPTR

  -------         MODULE        ?C?ICALL
  C:0363H         PUBLIC        ?C?ICALL
  C:0367H         PUBLIC        ?C?ICALL2
  -------         ENDMOD        ?C?ICALL

  -------         MODULE        ?C?PLDIDATA
  C:0369H         PUBLIC        ?C?PLDIDATA
  -------         ENDMOD        ?C?PLDIDATA

  -------         MODULE        ?C?PLDXDATA
  C:0372H         PUBLIC        ?C?PLDXDATA
  -------         ENDMOD        ?C?PLDXDATA

  -------         MODULE        ?C?PLDPDATA
  C:037BH         PUBLIC        ?C?PLDPDATA
  -------         ENDMOD        ?C?PLDPDATA

  -------         MODULE        ?C?PLDCODE
  C:0384H         PUBLIC        ?C?PLDCODE
  -------         ENDMOD        ?C?PLDCODE

*** WARNING L16: UNCALLED SEGMENT, IGNORED FOR OVERLAY PROCESS
    SEGMENT: ?PR?_PUTCHAR?UART1

Program Size: data=173.0 xdata=183 code=6232
LINK/LOCATE RUN COMPLETE.  1 WARNING(S),  0 ERROR(S)
